{
	"Documents/GitHub/Solidity-Contracts/Util/Locker/Simple V2/Locker.sol": {
		"Locker": {
			"abi": [
				{
					"inputs": [],
					"stateMutability": "nonpayable",
					"type": "constructor"
				},
				{
					"anonymous": false,
					"inputs": [
						{
							"indexed": false,
							"internalType": "uint256",
							"name": "NewLockTime",
							"type": "uint256"
						},
						{
							"indexed": false,
							"internalType": "uint256",
							"name": "_id",
							"type": "uint256"
						},
						{
							"indexed": true,
							"internalType": "address",
							"name": "tokenAddress",
							"type": "address"
						}
					],
					"name": "LockExtended",
					"type": "event"
				},
				{
					"anonymous": false,
					"inputs": [
						{
							"indexed": true,
							"internalType": "address",
							"name": "previousOwner",
							"type": "address"
						},
						{
							"indexed": true,
							"internalType": "address",
							"name": "newOwner",
							"type": "address"
						}
					],
					"name": "OwnershipTransferred",
					"type": "event"
				},
				{
					"anonymous": false,
					"inputs": [
						{
							"indexed": true,
							"internalType": "address",
							"name": "tokenAddress",
							"type": "address"
						},
						{
							"indexed": true,
							"internalType": "address",
							"name": "sender",
							"type": "address"
						},
						{
							"indexed": false,
							"internalType": "uint256",
							"name": "amount",
							"type": "uint256"
						},
						{
							"indexed": false,
							"internalType": "uint256",
							"name": "unlockTime",
							"type": "uint256"
						},
						{
							"indexed": false,
							"internalType": "uint256",
							"name": "depositId",
							"type": "uint256"
						}
					],
					"name": "TokensLocked",
					"type": "event"
				},
				{
					"anonymous": false,
					"inputs": [
						{
							"indexed": true,
							"internalType": "address",
							"name": "tokenAddress",
							"type": "address"
						},
						{
							"indexed": true,
							"internalType": "address",
							"name": "receiver",
							"type": "address"
						},
						{
							"indexed": false,
							"internalType": "uint256",
							"name": "amount",
							"type": "uint256"
						}
					],
					"name": "TokensWithdrawn",
					"type": "event"
				},
				{
					"inputs": [
						{
							"internalType": "uint256",
							"name": "",
							"type": "uint256"
						}
					],
					"name": "allDepositIds",
					"outputs": [
						{
							"internalType": "uint256",
							"name": "",
							"type": "uint256"
						}
					],
					"stateMutability": "view",
					"type": "function"
				},
				{
					"inputs": [],
					"name": "bnbFee",
					"outputs": [
						{
							"internalType": "uint256",
							"name": "",
							"type": "uint256"
						}
					],
					"stateMutability": "view",
					"type": "function"
				},
				{
					"inputs": [],
					"name": "depositId",
					"outputs": [
						{
							"internalType": "uint256",
							"name": "",
							"type": "uint256"
						}
					],
					"stateMutability": "view",
					"type": "function"
				},
				{
					"inputs": [
						{
							"internalType": "address",
							"name": "",
							"type": "address"
						},
						{
							"internalType": "uint256",
							"name": "",
							"type": "uint256"
						}
					],
					"name": "depositsByTokenAddress",
					"outputs": [
						{
							"internalType": "uint256",
							"name": "",
							"type": "uint256"
						}
					],
					"stateMutability": "view",
					"type": "function"
				},
				{
					"inputs": [
						{
							"internalType": "address",
							"name": "",
							"type": "address"
						},
						{
							"internalType": "uint256",
							"name": "",
							"type": "uint256"
						}
					],
					"name": "depositsByWithdrawalAddress",
					"outputs": [
						{
							"internalType": "uint256",
							"name": "",
							"type": "uint256"
						}
					],
					"stateMutability": "view",
					"type": "function"
				},
				{
					"inputs": [],
					"name": "extendFee",
					"outputs": [
						{
							"internalType": "uint256",
							"name": "",
							"type": "uint256"
						}
					],
					"stateMutability": "view",
					"type": "function"
				},
				{
					"inputs": [
						{
							"internalType": "uint256",
							"name": "newLockTime",
							"type": "uint256"
						},
						{
							"internalType": "uint256",
							"name": "_id",
							"type": "uint256"
						}
					],
					"name": "extendLock",
					"outputs": [],
					"stateMutability": "payable",
					"type": "function"
				},
				{
					"inputs": [],
					"name": "getAllDepositIds",
					"outputs": [
						{
							"internalType": "uint256[]",
							"name": "",
							"type": "uint256[]"
						}
					],
					"stateMutability": "view",
					"type": "function"
				},
				{
					"inputs": [
						{
							"internalType": "uint256",
							"name": "_id",
							"type": "uint256"
						}
					],
					"name": "getDepositDetails",
					"outputs": [
						{
							"internalType": "address",
							"name": "",
							"type": "address"
						},
						{
							"internalType": "address",
							"name": "",
							"type": "address"
						},
						{
							"internalType": "uint256",
							"name": "",
							"type": "uint256"
						},
						{
							"internalType": "uint256",
							"name": "",
							"type": "uint256"
						},
						{
							"internalType": "bool",
							"name": "",
							"type": "bool"
						}
					],
					"stateMutability": "view",
					"type": "function"
				},
				{
					"inputs": [
						{
							"internalType": "address",
							"name": "_tokenAddress",
							"type": "address"
						}
					],
					"name": "getDepositsByTokenAddress",
					"outputs": [
						{
							"internalType": "uint256[]",
							"name": "",
							"type": "uint256[]"
						}
					],
					"stateMutability": "view",
					"type": "function"
				},
				{
					"inputs": [
						{
							"internalType": "address",
							"name": "_withdrawalAddress",
							"type": "address"
						}
					],
					"name": "getDepositsByWithdrawalAddress",
					"outputs": [
						{
							"internalType": "uint256[]",
							"name": "",
							"type": "uint256[]"
						}
					],
					"stateMutability": "view",
					"type": "function"
				},
				{
					"inputs": [
						{
							"internalType": "address",
							"name": "_tokenAddress",
							"type": "address"
						},
						{
							"internalType": "address",
							"name": "_walletAddress",
							"type": "address"
						}
					],
					"name": "getTokenBalanceByAddress",
					"outputs": [
						{
							"internalType": "uint256",
							"name": "",
							"type": "uint256"
						}
					],
					"stateMutability": "view",
					"type": "function"
				},
				{
					"inputs": [
						{
							"internalType": "address",
							"name": "_tokenAddress",
							"type": "address"
						}
					],
					"name": "getTotalTokenBalance",
					"outputs": [
						{
							"internalType": "uint256",
							"name": "",
							"type": "uint256"
						}
					],
					"stateMutability": "view",
					"type": "function"
				},
				{
					"inputs": [
						{
							"internalType": "address",
							"name": "_tokenAddress",
							"type": "address"
						},
						{
							"internalType": "uint256",
							"name": "_amount",
							"type": "uint256"
						},
						{
							"internalType": "uint256",
							"name": "_unlockTime",
							"type": "uint256"
						},
						{
							"internalType": "bool",
							"name": "_feeInBnb",
							"type": "bool"
						}
					],
					"name": "lockTokens",
					"outputs": [
						{
							"internalType": "uint256",
							"name": "_id",
							"type": "uint256"
						}
					],
					"stateMutability": "payable",
					"type": "function"
				},
				{
					"inputs": [
						{
							"internalType": "uint256",
							"name": "",
							"type": "uint256"
						}
					],
					"name": "lockedToken",
					"outputs": [
						{
							"internalType": "address",
							"name": "tokenAddress",
							"type": "address"
						},
						{
							"internalType": "address",
							"name": "withdrawalAddress",
							"type": "address"
						},
						{
							"internalType": "uint256",
							"name": "tokenAmount",
							"type": "uint256"
						},
						{
							"internalType": "uint256",
							"name": "unlockTime",
							"type": "uint256"
						},
						{
							"internalType": "bool",
							"name": "withdrawn",
							"type": "bool"
						}
					],
					"stateMutability": "view",
					"type": "function"
				},
				{
					"inputs": [],
					"name": "lpFeePercent",
					"outputs": [
						{
							"internalType": "uint256",
							"name": "",
							"type": "uint256"
						}
					],
					"stateMutability": "view",
					"type": "function"
				},
				{
					"inputs": [],
					"name": "owner",
					"outputs": [
						{
							"internalType": "address",
							"name": "",
							"type": "address"
						}
					],
					"stateMutability": "view",
					"type": "function"
				},
				{
					"inputs": [],
					"name": "remainingBnbFees",
					"outputs": [
						{
							"internalType": "uint256",
							"name": "",
							"type": "uint256"
						}
					],
					"stateMutability": "view",
					"type": "function"
				},
				{
					"inputs": [],
					"name": "renounceOwnership",
					"outputs": [],
					"stateMutability": "nonpayable",
					"type": "function"
				},
				{
					"inputs": [
						{
							"internalType": "uint256",
							"name": "fee",
							"type": "uint256"
						}
					],
					"name": "setBnbFee",
					"outputs": [],
					"stateMutability": "nonpayable",
					"type": "function"
				},
				{
					"inputs": [
						{
							"internalType": "uint256",
							"name": "fee",
							"type": "uint256"
						}
					],
					"name": "setExtendFee",
					"outputs": [],
					"stateMutability": "nonpayable",
					"type": "function"
				},
				{
					"inputs": [
						{
							"internalType": "uint256",
							"name": "percent",
							"type": "uint256"
						}
					],
					"name": "setLpFee",
					"outputs": [],
					"stateMutability": "nonpayable",
					"type": "function"
				},
				{
					"inputs": [
						{
							"internalType": "address",
							"name": "",
							"type": "address"
						}
					],
					"name": "tokensFees",
					"outputs": [
						{
							"internalType": "uint256",
							"name": "",
							"type": "uint256"
						}
					],
					"stateMutability": "view",
					"type": "function"
				},
				{
					"inputs": [],
					"name": "totalBnbFees",
					"outputs": [
						{
							"internalType": "uint256",
							"name": "",
							"type": "uint256"
						}
					],
					"stateMutability": "view",
					"type": "function"
				},
				{
					"inputs": [
						{
							"internalType": "address",
							"name": "newOwner",
							"type": "address"
						}
					],
					"name": "transferOwnership",
					"outputs": [],
					"stateMutability": "nonpayable",
					"type": "function"
				},
				{
					"inputs": [
						{
							"internalType": "address",
							"name": "",
							"type": "address"
						},
						{
							"internalType": "address",
							"name": "",
							"type": "address"
						}
					],
					"name": "walletTokenBalance",
					"outputs": [
						{
							"internalType": "uint256",
							"name": "",
							"type": "uint256"
						}
					],
					"stateMutability": "view",
					"type": "function"
				},
				{
					"inputs": [
						{
							"internalType": "address payable",
							"name": "withdrawalAddress",
							"type": "address"
						}
					],
					"name": "withdrawFees",
					"outputs": [],
					"stateMutability": "nonpayable",
					"type": "function"
				},
				{
					"inputs": [
						{
							"internalType": "uint256",
							"name": "_id",
							"type": "uint256"
						}
					],
					"name": "withdrawTokens",
					"outputs": [],
					"stateMutability": "nonpayable",
					"type": "function"
				}
			],
			"devdoc": {
				"kind": "dev",
				"methods": {
					"owner()": {
						"details": "Returns the address of the current owner."
					},
					"renounceOwnership()": {
						"details": "Leaves the contract without owner. It will not be possible to call `onlyOwner` functions anymore. Can only be called by the current owner. NOTE: Renouncing ownership will leave the contract without an owner, thereby removing any functionality that is only available to the owner."
					},
					"transferOwnership(address)": {
						"details": "Transfers ownership of the contract to a new account (`newOwner`). Can only be called by the current owner."
					}
				},
				"version": 1
			},
			"evm": {
				"assembly": "    /* \"Documents/GitHub/Solidity-Contracts/Util/Locker/Simple V2/Locker.sol\":144:8804  contract Locker is Ownable, ReentrancyGuard {... */\n  mstore(0x40, 0x80)\n    /* \"Documents/GitHub/Solidity-Contracts/Util/Locker/Simple V2/Locker.sol\":391:400  .25 ether */\n  0x03782dace9d90000\n    /* \"Documents/GitHub/Solidity-Contracts/Util/Locker/Simple V2/Locker.sol\":367:400  uint256 public bnbFee = .25 ether */\n  0x02\n  sstore\n    /* \"Documents/GitHub/Solidity-Contracts/Util/Locker/Simple V2/Locker.sol\":433:443  0.05 ether */\n  0xb1a2bc2ec50000\n    /* \"Documents/GitHub/Solidity-Contracts/Util/Locker/Simple V2/Locker.sol\":406:443  uint256 public extendFee = 0.05 ether */\n  0x03\n  sstore\n    /* \"Documents/GitHub/Solidity-Contracts/Util/Locker/Simple V2/Locker.sol\":479:480  5 */\n  0x05\n    /* \"Documents/GitHub/Solidity-Contracts/Util/Locker/Simple V2/Locker.sol\":449:480  uint256 public lpFeePercent = 5 */\n  0x04\n  sstore\n    /* \"Documents/GitHub/Solidity-Contracts/Util/Locker/Simple V2/Locker.sol\":523:524  0 */\n  0x00\n    /* \"Documents/GitHub/Solidity-Contracts/Util/Locker/Simple V2/Locker.sol\":493:524  uint256 public totalBnbFees = 0 */\n  0x05\n  sstore\n    /* \"Documents/GitHub/Solidity-Contracts/Util/Locker/Simple V2/Locker.sol\":564:565  0 */\n  0x00\n    /* \"Documents/GitHub/Solidity-Contracts/Util/Locker/Simple V2/Locker.sol\":530:565  uint256 public remainingBnbFees = 0 */\n  0x06\n  sstore\n    /* \"Documents/GitHub/Solidity-Contracts/Util/Locker/Simple V2/Locker.sol\":1316:1337  constructor() {... */\n  callvalue\n  dup1\n  iszero\n  tag_1\n  jumpi\n  0x00\n  dup1\n  revert\ntag_1:\n  pop\n    /* \"Documents/GitHub/Solidity-Contracts/Util/Locker/Simple V2/Ownable.sol\":858:875  address msgSender */\n  0x00\n    /* \"Documents/GitHub/Solidity-Contracts/Util/Locker/Simple V2/Ownable.sol\":900:918  _owner = msgSender */\n  dup1\n  sload\n  not(sub(shl(0xa0, 0x01), 0x01))\n  and\n    /* \"Documents/GitHub/Solidity-Contracts/Util/Locker/Simple V2/Context.sol\":184:194  msg.sender */\n  caller\n    /* \"Documents/GitHub/Solidity-Contracts/Util/Locker/Simple V2/Ownable.sol\":900:918  _owner = msgSender */\n  swap1\n  dup2\n  or\n  dup3\n  sstore\n    /* \"Documents/GitHub/Solidity-Contracts/Util/Locker/Simple V2/Ownable.sol\":933:976  OwnershipTransferred(address(0), msgSender) */\n  mload(0x40)\n    /* \"Documents/GitHub/Solidity-Contracts/Util/Locker/Simple V2/Context.sol\":184:194  msg.sender */\n  swap1\n  swap2\n  dup3\n  swap2\n    /* \"Documents/GitHub/Solidity-Contracts/Util/Locker/Simple V2/Ownable.sol\":933:976  OwnershipTransferred(address(0), msgSender) */\n  0x8be0079c531659141344cd1fd0a4f28419497f9722a3daafe3b4186f6b6457e0\n  swap1\n    /* \"Documents/GitHub/Solidity-Contracts/Util/Locker/Simple V2/Ownable.sol\":858:875  address msgSender */\n  dup3\n  swap1\n    /* \"Documents/GitHub/Solidity-Contracts/Util/Locker/Simple V2/Ownable.sol\":933:976  OwnershipTransferred(address(0), msgSender) */\n  log3\n  pop\n    /* \"Documents/GitHub/Solidity-Contracts/Util/Locker/Simple V2/ReentrancyGuard.sol\":1644:1645  1 */\n  0x01\n    /* \"Documents/GitHub/Solidity-Contracts/Util/Locker/Simple V2/ReentrancyGuard.sol\":1750:1772  _status = _NOT_ENTERED */\n  dup1\n  sstore\n    /* \"Documents/GitHub/Solidity-Contracts/Util/Locker/Simple V2/Locker.sol\":144:8804  contract Locker is Ownable, ReentrancyGuard {... */\n  dataSize(sub_0)\n  dup1\n  dataOffset(sub_0)\n  0x00\n  codecopy\n  0x00\n  return\nstop\n\nsub_0: assembly {\n        /* \"Documents/GitHub/Solidity-Contracts/Util/Locker/Simple V2/Locker.sol\":144:8804  contract Locker is Ownable, ReentrancyGuard {... */\n      mstore(0x40, 0x80)\n      jumpi(tag_1, lt(calldatasize, 0x04))\n      shr(0xe0, calldataload(0x00))\n      dup1\n      0x890db72f\n      gt\n      tag_30\n      jumpi\n      dup1\n      0xbb941cff\n      gt\n      tag_31\n      jumpi\n      dup1\n      0xd4dbe3ef\n      gt\n      tag_32\n      jumpi\n      dup1\n      0xd4dbe3ef\n      eq\n      tag_26\n      jumpi\n      dup1\n      0xe6a478b3\n      eq\n      tag_27\n      jumpi\n      dup1\n      0xefc17415\n      eq\n      tag_28\n      jumpi\n      dup1\n      0xf2fde38b\n      eq\n      tag_29\n      jumpi\n      0x00\n      dup1\n      revert\n    tag_32:\n      dup1\n      0xbb941cff\n      eq\n      tag_23\n      jumpi\n      dup1\n      0xc9028aff\n      eq\n      tag_24\n      jumpi\n      dup1\n      0xd0b6fe24\n      eq\n      tag_25\n      jumpi\n      0x00\n      dup1\n      revert\n    tag_31:\n      dup1\n      0x9852099c\n      gt\n      tag_33\n      jumpi\n      dup1\n      0x9852099c\n      eq\n      tag_19\n      jumpi\n      dup1\n      0xadad19bd\n      eq\n      tag_20\n      jumpi\n      dup1\n      0xae3ff3dd\n      eq\n      tag_21\n      jumpi\n      dup1\n      0xb9e7df1c\n      eq\n      tag_22\n      jumpi\n      0x00\n      dup1\n      revert\n    tag_33:\n      dup1\n      0x890db72f\n      eq\n      tag_16\n      jumpi\n      dup1\n      0x8a47446c\n      eq\n      tag_17\n      jumpi\n      dup1\n      0x8da5cb5b\n      eq\n      tag_18\n      jumpi\n      0x00\n      dup1\n      revert\n    tag_30:\n      dup1\n      0x347c80ba\n      gt\n      tag_34\n      jumpi\n      dup1\n      0x6ba03924\n      gt\n      tag_35\n      jumpi\n      dup1\n      0x6ba03924\n      eq\n      tag_12\n      jumpi\n      dup1\n      0x715018a6\n      eq\n      tag_13\n      jumpi\n      dup1\n      0x84dfbfe2\n      eq\n      tag_14\n      jumpi\n      dup1\n      0x86f65a22\n      eq\n      tag_15\n      jumpi\n      0x00\n      dup1\n      revert\n    tag_35:\n      dup1\n      0x347c80ba\n      eq\n      tag_9\n      jumpi\n      dup1\n      0x3fd97b9b\n      eq\n      tag_10\n      jumpi\n      dup1\n      0x530680d8\n      eq\n      tag_11\n      jumpi\n      0x00\n      dup1\n      revert\n    tag_34:\n      dup1\n      0x0cff87f1\n      gt\n      tag_36\n      jumpi\n      dup1\n      0x0cff87f1\n      eq\n      tag_5\n      jumpi\n      dup1\n      0x164e68de\n      eq\n      tag_6\n      jumpi\n      dup1\n      0x213596b8\n      eq\n      tag_7\n      jumpi\n      dup1\n      0x315a095d\n      eq\n      tag_8\n      jumpi\n      0x00\n      dup1\n      revert\n    tag_36:\n      dup1\n      0x070d66bf\n      eq\n      tag_2\n      jumpi\n      dup1\n      0x0ae27c3a\n      eq\n      tag_3\n      jumpi\n      dup1\n      0x0bd59ad3\n      eq\n      tag_4\n      jumpi\n    tag_1:\n      0x00\n      dup1\n      revert\n        /* \"Documents/GitHub/Solidity-Contracts/Util/Locker/Simple V2/Locker.sol\":1343:2130  function extendLock(uint256 newLockTime, uint256 _id) external payable {... */\n    tag_2:\n      tag_37\n      tag_38\n      calldatasize\n      0x04\n      tag_39\n      jump\t// in\n    tag_38:\n      tag_40\n      jump\t// in\n    tag_37:\n      stop\n        /* \"Documents/GitHub/Solidity-Contracts/Util/Locker/Simple V2/Locker.sol\":406:443  uint256 public extendFee = 0.05 ether */\n    tag_3:\n      callvalue\n      dup1\n      iszero\n      tag_41\n      jumpi\n      0x00\n      dup1\n      revert\n    tag_41:\n      pop\n      tag_42\n      sload(0x03)\n      dup2\n      jump\n    tag_42:\n      mload(0x40)\n        /* \"#utility.yul\":12518:12543   */\n      swap1\n      dup2\n      mstore\n        /* \"#utility.yul\":12506:12508   */\n      0x20\n        /* \"#utility.yul\":12491:12509   */\n      add\n        /* \"Documents/GitHub/Solidity-Contracts/Util/Locker/Simple V2/Locker.sol\":406:443  uint256 public extendFee = 0.05 ether */\n    tag_44:\n      mload(0x40)\n      dup1\n      swap2\n      sub\n      swap1\n      return\n        /* \"Documents/GitHub/Solidity-Contracts/Util/Locker/Simple V2/Locker.sol\":7158:7340  function getDepositsByWithdrawalAddress(address _withdrawalAddress) view public returns (uint256[] memory)... */\n    tag_4:\n      callvalue\n      dup1\n      iszero\n      tag_46\n      jumpi\n      0x00\n      dup1\n      revert\n    tag_46:\n      pop\n      tag_47\n      tag_48\n      calldatasize\n      0x04\n      tag_49\n      jump\t// in\n    tag_48:\n      tag_50\n      jump\t// in\n    tag_47:\n      mload(0x40)\n      tag_44\n      swap2\n      swap1\n      tag_52\n      jump\t// in\n        /* \"Documents/GitHub/Solidity-Contracts/Util/Locker/Simple V2/Locker.sol\":609:654  mapping(address => uint256) public tokensFees */\n    tag_5:\n      callvalue\n      dup1\n      iszero\n      tag_53\n      jumpi\n      0x00\n      dup1\n      revert\n    tag_53:\n      pop\n      tag_42\n      tag_55\n      calldatasize\n      0x04\n      tag_49\n      jump\t// in\n    tag_55:\n      mstore(0x20, 0x08)\n      0x00\n      swap1\n      dup2\n      mstore\n      0x40\n      swap1\n      keccak256\n      sload\n      dup2\n      jump\n        /* \"Documents/GitHub/Solidity-Contracts/Util/Locker/Simple V2/Locker.sol\":8096:8802  function withdrawFees(address payable withdrawalAddress) external onlyOwner {... */\n    tag_6:\n      callvalue\n      dup1\n      iszero\n      tag_58\n      jumpi\n      0x00\n      dup1\n      revert\n    tag_58:\n      pop\n      tag_37\n      tag_60\n      calldatasize\n      0x04\n      tag_49\n      jump\t// in\n    tag_60:\n      tag_62\n      jump\t// in\n        /* \"Documents/GitHub/Solidity-Contracts/Util/Locker/Simple V2/Locker.sol\":530:565  uint256 public remainingBnbFees = 0 */\n    tag_7:\n      callvalue\n      dup1\n      iszero\n      tag_63\n      jumpi\n      0x00\n      dup1\n      revert\n    tag_63:\n      pop\n      tag_42\n      sload(0x06)\n      dup2\n      jump\n        /* \"Documents/GitHub/Solidity-Contracts/Util/Locker/Simple V2/Locker.sol\":3991:6382  function withdrawTokens(uint256 _id) external {... */\n    tag_8:\n      callvalue\n      dup1\n      iszero\n      tag_67\n      jumpi\n      0x00\n      dup1\n      revert\n    tag_67:\n      pop\n      tag_37\n      tag_69\n      calldatasize\n      0x04\n      tag_70\n      jump\t// in\n    tag_69:\n      tag_71\n      jump\t// in\n        /* \"Documents/GitHub/Solidity-Contracts/Util/Locker/Simple V2/Locker.sol\":6551:6739  function getTokenBalanceByAddress(address _tokenAddress, address _walletAddress) view public returns (uint256)... */\n    tag_9:\n      callvalue\n      dup1\n      iszero\n      tag_72\n      jumpi\n      0x00\n      dup1\n      revert\n    tag_72:\n      pop\n      tag_42\n      tag_74\n      calldatasize\n      0x04\n      tag_75\n      jump\t// in\n    tag_74:\n      sub(shl(0xa0, 0x01), 0x01)\n        /* \"Documents/GitHub/Solidity-Contracts/Util/Locker/Simple V2/Locker.sol\":6683:6716  walletTokenBalance[_tokenAddress] */\n      swap2\n      dup3\n      and\n        /* \"Documents/GitHub/Solidity-Contracts/Util/Locker/Simple V2/Locker.sol\":6653:6660  uint256 */\n      0x00\n        /* \"Documents/GitHub/Solidity-Contracts/Util/Locker/Simple V2/Locker.sol\":6683:6716  walletTokenBalance[_tokenAddress] */\n      swap1\n      dup2\n      mstore\n        /* \"Documents/GitHub/Solidity-Contracts/Util/Locker/Simple V2/Locker.sol\":6683:6701  walletTokenBalance */\n      0x0e\n        /* \"Documents/GitHub/Solidity-Contracts/Util/Locker/Simple V2/Locker.sol\":6683:6716  walletTokenBalance[_tokenAddress] */\n      0x20\n      swap1\n      dup2\n      mstore\n      0x40\n      dup1\n      dup4\n      keccak256\n        /* \"Documents/GitHub/Solidity-Contracts/Util/Locker/Simple V2/Locker.sol\":6683:6732  walletTokenBalance[_tokenAddress][_walletAddress] */\n      swap4\n      swap1\n      swap5\n      and\n      dup3\n      mstore\n      swap2\n      swap1\n      swap2\n      mstore\n      keccak256\n      sload\n      swap1\n        /* \"Documents/GitHub/Solidity-Contracts/Util/Locker/Simple V2/Locker.sol\":6551:6739  function getTokenBalanceByAddress(address _tokenAddress, address _walletAddress) view public returns (uint256)... */\n      jump\n        /* \"Documents/GitHub/Solidity-Contracts/Util/Locker/Simple V2/Locker.sol\":849:908  mapping(address => uint256[]) public depositsByTokenAddress */\n    tag_10:\n      callvalue\n      dup1\n      iszero\n      tag_78\n      jumpi\n      0x00\n      dup1\n      revert\n    tag_78:\n      pop\n      tag_42\n      tag_80\n      calldatasize\n      0x04\n      tag_81\n      jump\t// in\n    tag_80:\n      tag_82\n      jump\t// in\n        /* \"Documents/GitHub/Solidity-Contracts/Util/Locker/Simple V2/Locker.sol\":779:843  mapping(address => uint256[]) public depositsByWithdrawalAddress */\n    tag_11:\n      callvalue\n      dup1\n      iszero\n      tag_84\n      jumpi\n      0x00\n      dup1\n      revert\n    tag_84:\n      pop\n      tag_42\n      tag_86\n      calldatasize\n      0x04\n      tag_81\n      jump\t// in\n    tag_86:\n      tag_87\n      jump\t// in\n        /* \"Documents/GitHub/Solidity-Contracts/Util/Locker/Simple V2/Locker.sol\":6745:6853  function getAllDepositIds() view public returns (uint256[] memory)... */\n    tag_12:\n      callvalue\n      dup1\n      iszero\n      tag_89\n      jumpi\n      0x00\n      dup1\n      revert\n    tag_89:\n      pop\n      tag_47\n      tag_91\n      jump\t// in\n        /* \"Documents/GitHub/Solidity-Contracts/Util/Locker/Simple V2/Ownable.sol\":1682:1827  function renounceOwnership() public virtual onlyOwner {... */\n    tag_13:\n      callvalue\n      dup1\n      iszero\n      tag_93\n      jumpi\n      0x00\n      dup1\n      revert\n    tag_93:\n      pop\n      tag_37\n      tag_95\n      jump\t// in\n        /* \"Documents/GitHub/Solidity-Contracts/Util/Locker/Simple V2/Locker.sol\":7699:7900  function setLpFee(uint256 percent) external onlyOwner {... */\n    tag_14:\n      callvalue\n      dup1\n      iszero\n      tag_96\n      jumpi\n      0x00\n      dup1\n      revert\n    tag_96:\n      pop\n      tag_37\n      tag_98\n      calldatasize\n      0x04\n      tag_70\n      jump\t// in\n    tag_98:\n      tag_99\n      jump\t// in\n        /* \"Documents/GitHub/Solidity-Contracts/Util/Locker/Simple V2/Locker.sol\":7346:7508  function getDepositsByTokenAddress(address _tokenAddress) view public returns (uint256[] memory)... */\n    tag_15:\n      callvalue\n      dup1\n      iszero\n      tag_100\n      jumpi\n      0x00\n      dup1\n      revert\n    tag_100:\n      pop\n      tag_47\n      tag_102\n      calldatasize\n      0x04\n      tag_49\n      jump\t// in\n    tag_102:\n      tag_103\n      jump\t// in\n        /* \"Documents/GitHub/Solidity-Contracts/Util/Locker/Simple V2/Locker.sol\":6859:7152  function getDepositDetails(uint256 _id) view public returns (address, address, uint256, uint256, bool)... */\n    tag_16:\n      callvalue\n      dup1\n      iszero\n      tag_105\n      jumpi\n      0x00\n      dup1\n      revert\n    tag_105:\n      pop\n      tag_106\n      tag_107\n      calldatasize\n      0x04\n      tag_70\n      jump\t// in\n    tag_107:\n        /* \"Documents/GitHub/Solidity-Contracts/Util/Locker/Simple V2/Locker.sol\":6920:6927  address */\n      0x00\n        /* \"Documents/GitHub/Solidity-Contracts/Util/Locker/Simple V2/Locker.sol\":6984:7000  lockedToken[_id] */\n      swap1\n      dup2\n      mstore\n        /* \"Documents/GitHub/Solidity-Contracts/Util/Locker/Simple V2/Locker.sol\":6984:6995  lockedToken */\n      0x0b\n        /* \"Documents/GitHub/Solidity-Contracts/Util/Locker/Simple V2/Locker.sol\":6984:7000  lockedToken[_id] */\n      0x20\n      mstore\n      0x40\n      swap1\n      keccak256\n        /* \"Documents/GitHub/Solidity-Contracts/Util/Locker/Simple V2/Locker.sol\":6984:7013  lockedToken[_id].tokenAddress */\n      dup1\n      sload\n      0x01\n        /* \"Documents/GitHub/Solidity-Contracts/Util/Locker/Simple V2/Locker.sol\":7015:7049  lockedToken[_id].withdrawalAddress */\n      dup3\n      add\n      sload\n        /* \"Documents/GitHub/Solidity-Contracts/Util/Locker/Simple V2/Locker.sol\":7051:7079  lockedToken[_id].tokenAmount */\n      0x02\n      dup4\n      add\n      sload\n        /* \"Documents/GitHub/Solidity-Contracts/Util/Locker/Simple V2/Locker.sol\":7089:7116  lockedToken[_id].unlockTime */\n      0x03\n      dup5\n      add\n      sload\n        /* \"Documents/GitHub/Solidity-Contracts/Util/Locker/Simple V2/Locker.sol\":7118:7144  lockedToken[_id].withdrawn */\n      0x04\n      swap1\n      swap5\n      add\n      sload\n      sub(shl(0xa0, 0x01), 0x01)\n        /* \"Documents/GitHub/Solidity-Contracts/Util/Locker/Simple V2/Locker.sol\":6984:7013  lockedToken[_id].tokenAddress */\n      swap4\n      dup5\n      and\n      swap6\n        /* \"Documents/GitHub/Solidity-Contracts/Util/Locker/Simple V2/Locker.sol\":7015:7049  lockedToken[_id].withdrawalAddress */\n      swap4\n      swap1\n      swap3\n      and\n      swap4\n        /* \"Documents/GitHub/Solidity-Contracts/Util/Locker/Simple V2/Locker.sol\":7051:7079  lockedToken[_id].tokenAmount */\n      swap1\n      swap3\n        /* \"Documents/GitHub/Solidity-Contracts/Util/Locker/Simple V2/Locker.sol\":7089:7116  lockedToken[_id].unlockTime */\n      swap1\n      swap2\n        /* \"Documents/GitHub/Solidity-Contracts/Util/Locker/Simple V2/Locker.sol\":7118:7144  lockedToken[_id].withdrawn */\n      0xff\n      and\n      swap1\n        /* \"Documents/GitHub/Solidity-Contracts/Util/Locker/Simple V2/Locker.sol\":6859:7152  function getDepositDetails(uint256 _id) view public returns (address, address, uint256, uint256, bool)... */\n      jump\n    tag_106:\n      0x40\n      dup1\n      mload\n      sub(shl(0xa0, 0x01), 0x01)\n        /* \"#utility.yul\":3824:3839   */\n      swap7\n      dup8\n      and\n        /* \"#utility.yul\":3806:3840   */\n      dup2\n      mstore\n        /* \"#utility.yul\":3876:3891   */\n      swap6\n      swap1\n      swap5\n      and\n        /* \"#utility.yul\":3871:3873   */\n      0x20\n        /* \"#utility.yul\":3856:3874   */\n      dup7\n      add\n        /* \"#utility.yul\":3849:3892   */\n      mstore\n        /* \"#utility.yul\":3908:3926   */\n      swap3\n      dup5\n      add\n        /* \"#utility.yul\":3901:3935   */\n      swap2\n      swap1\n      swap2\n      mstore\n        /* \"#utility.yul\":3966:3968   */\n      0x60\n        /* \"#utility.yul\":3951:3969   */\n      dup4\n      add\n        /* \"#utility.yul\":3944:3978   */\n      mstore\n        /* \"#utility.yul\":4022:4036   */\n      iszero\n        /* \"#utility.yul\":4015:4037   */\n      iszero\n        /* \"#utility.yul\":4009:4012   */\n      0x80\n        /* \"#utility.yul\":3994:4013   */\n      dup3\n      add\n        /* \"#utility.yul\":3987:4038   */\n      mstore\n        /* \"#utility.yul\":3755:3758   */\n      0xa0\n        /* \"#utility.yul\":3740:3759   */\n      add\n        /* \"Documents/GitHub/Solidity-Contracts/Util/Locker/Simple V2/Locker.sol\":6859:7152  function getDepositDetails(uint256 _id) view public returns (address, address, uint256, uint256, bool)... */\n      tag_44\n        /* \"#utility.yul\":3515:4044   */\n      jump\n        /* \"Documents/GitHub/Solidity-Contracts/Util/Locker/Simple V2/Locker.sol\":7514:7693  function setBnbFee(uint256 fee) external onlyOwner {... */\n    tag_17:\n      callvalue\n      dup1\n      iszero\n      tag_111\n      jumpi\n      0x00\n      dup1\n      revert\n    tag_111:\n      pop\n      tag_37\n      tag_113\n      calldatasize\n      0x04\n      tag_70\n      jump\t// in\n    tag_113:\n      tag_114\n      jump\t// in\n        /* \"Documents/GitHub/Solidity-Contracts/Util/Locker/Simple V2/Ownable.sol\":1059:1136  function owner() public view returns (address) {... */\n    tag_18:\n      callvalue\n      dup1\n      iszero\n      tag_115\n      jumpi\n      0x00\n      dup1\n      revert\n    tag_115:\n      pop\n        /* \"Documents/GitHub/Solidity-Contracts/Util/Locker/Simple V2/Ownable.sol\":1097:1104  address */\n      0x00\n        /* \"Documents/GitHub/Solidity-Contracts/Util/Locker/Simple V2/Ownable.sol\":1123:1129  _owner */\n      sload\n        /* \"Documents/GitHub/Solidity-Contracts/Util/Locker/Simple V2/Ownable.sol\":1059:1136  function owner() public view returns (address) {... */\n      mload(0x40)\n      sub(shl(0xa0, 0x01), 0x01)\n        /* \"Documents/GitHub/Solidity-Contracts/Util/Locker/Simple V2/Ownable.sol\":1123:1129  _owner */\n      swap1\n      swap2\n      and\n        /* \"#utility.yul\":2786:2837   */\n      dup2\n      mstore\n        /* \"#utility.yul\":2774:2776   */\n      0x20\n        /* \"#utility.yul\":2759:2777   */\n      add\n        /* \"Documents/GitHub/Solidity-Contracts/Util/Locker/Simple V2/Ownable.sol\":1059:1136  function owner() public view returns (address) {... */\n      tag_44\n        /* \"#utility.yul\":2640:2843   */\n      jump\n        /* \"Documents/GitHub/Solidity-Contracts/Util/Locker/Simple V2/Locker.sol\":661:685  uint256 public depositId */\n    tag_19:\n      callvalue\n      dup1\n      iszero\n      tag_120\n      jumpi\n      0x00\n      dup1\n      revert\n    tag_120:\n      pop\n      tag_42\n      sload(0x09)\n      dup2\n      jump\n        /* \"Documents/GitHub/Solidity-Contracts/Util/Locker/Simple V2/Locker.sol\":6388:6545  function getTotalTokenBalance(address _tokenAddress) view public returns (uint256)... */\n    tag_20:\n      callvalue\n      dup1\n      iszero\n      tag_124\n      jumpi\n      0x00\n      dup1\n      revert\n    tag_124:\n      pop\n      tag_42\n      tag_126\n      calldatasize\n      0x04\n      tag_49\n      jump\t// in\n    tag_126:\n      tag_127\n      jump\t// in\n        /* \"Documents/GitHub/Solidity-Contracts/Util/Locker/Simple V2/Locker.sol\":493:524  uint256 public totalBnbFees = 0 */\n    tag_21:\n      callvalue\n      dup1\n      iszero\n      tag_129\n      jumpi\n      0x00\n      dup1\n      revert\n    tag_129:\n      pop\n      tag_42\n      sload(0x05)\n      dup2\n      jump\n        /* \"Documents/GitHub/Solidity-Contracts/Util/Locker/Simple V2/Locker.sol\":915:988  mapping(address => mapping(address => uint256)) public walletTokenBalance */\n    tag_22:\n      callvalue\n      dup1\n      iszero\n      tag_133\n      jumpi\n      0x00\n      dup1\n      revert\n    tag_133:\n      pop\n      tag_42\n      tag_135\n      calldatasize\n      0x04\n      tag_75\n      jump\t// in\n    tag_135:\n      0x0e\n      0x20\n      swap1\n      dup2\n      mstore\n      0x00\n      swap3\n      dup4\n      mstore\n      0x40\n      dup1\n      dup5\n      keccak256\n      swap1\n      swap2\n      mstore\n      swap1\n      dup3\n      mstore\n      swap1\n      keccak256\n      sload\n      dup2\n      jump\n        /* \"Documents/GitHub/Solidity-Contracts/Util/Locker/Simple V2/Locker.sol\":728:772  mapping(uint256 => Items) public lockedToken */\n    tag_23:\n      callvalue\n      dup1\n      iszero\n      tag_138\n      jumpi\n      0x00\n      dup1\n      revert\n    tag_138:\n      pop\n      tag_106\n      tag_140\n      calldatasize\n      0x04\n      tag_70\n      jump\t// in\n    tag_140:\n      mstore(0x20, 0x0b)\n      0x00\n      swap1\n      dup2\n      mstore\n      0x40\n      swap1\n      keccak256\n      dup1\n      sload\n      0x01\n      dup3\n      add\n      sload\n      0x02\n      dup4\n      add\n      sload\n      0x03\n      dup5\n      add\n      sload\n      0x04\n      swap1\n      swap5\n      add\n      sload\n      sub(shl(0xa0, 0x01), 0x01)\n      swap4\n      dup5\n      and\n      swap5\n      swap4\n      swap1\n      swap3\n      and\n      swap3\n      swap1\n      swap2\n      0xff\n      and\n      dup6\n      jump\n        /* \"Documents/GitHub/Solidity-Contracts/Util/Locker/Simple V2/Locker.sol\":691:721  uint256[] public allDepositIds */\n    tag_24:\n      callvalue\n      dup1\n      iszero\n      tag_143\n      jumpi\n      0x00\n      dup1\n      revert\n    tag_143:\n      pop\n      tag_42\n      tag_145\n      calldatasize\n      0x04\n      tag_70\n      jump\t// in\n    tag_145:\n      tag_146\n      jump\t// in\n        /* \"Documents/GitHub/Solidity-Contracts/Util/Locker/Simple V2/Locker.sol\":7906:8090  function setExtendFee(uint256 fee) external onlyOwner {... */\n    tag_25:\n      callvalue\n      dup1\n      iszero\n      tag_148\n      jumpi\n      0x00\n      dup1\n      revert\n    tag_148:\n      pop\n      tag_37\n      tag_150\n      calldatasize\n      0x04\n      tag_70\n      jump\t// in\n    tag_150:\n      tag_151\n      jump\t// in\n        /* \"Documents/GitHub/Solidity-Contracts/Util/Locker/Simple V2/Locker.sol\":449:480  uint256 public lpFeePercent = 5 */\n    tag_26:\n      callvalue\n      dup1\n      iszero\n      tag_152\n      jumpi\n      0x00\n      dup1\n      revert\n    tag_152:\n      pop\n      tag_42\n      sload(0x04)\n      dup2\n      jump\n        /* \"Documents/GitHub/Solidity-Contracts/Util/Locker/Simple V2/Locker.sol\":2136:3985  function lockTokens(... */\n    tag_27:\n      tag_42\n      tag_157\n      calldatasize\n      0x04\n      tag_158\n      jump\t// in\n    tag_157:\n      tag_159\n      jump\t// in\n        /* \"Documents/GitHub/Solidity-Contracts/Util/Locker/Simple V2/Locker.sol\":367:400  uint256 public bnbFee = .25 ether */\n    tag_28:\n      callvalue\n      dup1\n      iszero\n      tag_161\n      jumpi\n      0x00\n      dup1\n      revert\n    tag_161:\n      pop\n      tag_42\n      sload(0x02)\n      dup2\n      jump\n        /* \"Documents/GitHub/Solidity-Contracts/Util/Locker/Simple V2/Ownable.sol\":1976:2216  function transferOwnership(address newOwner) public virtual onlyOwner {... */\n    tag_29:\n      callvalue\n      dup1\n      iszero\n      tag_165\n      jumpi\n      0x00\n      dup1\n      revert\n    tag_165:\n      pop\n      tag_37\n      tag_167\n      calldatasize\n      0x04\n      tag_49\n      jump\t// in\n    tag_167:\n      tag_168\n      jump\t// in\n        /* \"Documents/GitHub/Solidity-Contracts/Util/Locker/Simple V2/Locker.sol\":1343:2130  function extendLock(uint256 newLockTime, uint256 _id) external payable {... */\n    tag_40:\n        /* \"Documents/GitHub/Solidity-Contracts/Util/Locker/Simple V2/Locker.sol\":1447:1463  lockedToken[_id] */\n      0x00\n      dup2\n      dup2\n      mstore\n        /* \"Documents/GitHub/Solidity-Contracts/Util/Locker/Simple V2/Locker.sol\":1447:1458  lockedToken */\n      0x0b\n        /* \"Documents/GitHub/Solidity-Contracts/Util/Locker/Simple V2/Locker.sol\":1447:1463  lockedToken[_id] */\n      0x20\n      mstore\n      0x40\n      swap1\n      keccak256\n        /* \"Documents/GitHub/Solidity-Contracts/Util/Locker/Simple V2/Locker.sol\":1447:1474  lockedToken[_id].unlockTime */\n      0x03\n      add\n      sload\n        /* \"Documents/GitHub/Solidity-Contracts/Util/Locker/Simple V2/Locker.sol\":1432:1474  newLockTime >= lockedToken[_id].unlockTime */\n      dup3\n      lt\n      iszero\n        /* \"Documents/GitHub/Solidity-Contracts/Util/Locker/Simple V2/Locker.sol\":1424:1517  require(newLockTime >= lockedToken[_id].unlockTime, 'New lock time must be after unlockTime') */\n      tag_170\n      jumpi\n      mload(0x40)\n      shl(0xe5, 0x461bcd)\n      dup2\n      mstore\n        /* \"#utility.yul\":10997:10999   */\n      0x20\n        /* \"Documents/GitHub/Solidity-Contracts/Util/Locker/Simple V2/Locker.sol\":1424:1517  require(newLockTime >= lockedToken[_id].unlockTime, 'New lock time must be after unlockTime') */\n      0x04\n      dup3\n      add\n        /* \"#utility.yul\":10979:11000   */\n      mstore\n        /* \"#utility.yul\":11036:11038   */\n      0x26\n        /* \"#utility.yul\":11016:11034   */\n      0x24\n      dup3\n      add\n        /* \"#utility.yul\":11009:11039   */\n      mstore\n        /* \"#utility.yul\":11075:11109   */\n      0x4e6577206c6f636b2074696d65206d75737420626520616674657220756e6c6f\n        /* \"#utility.yul\":11055:11073   */\n      0x44\n      dup3\n      add\n        /* \"#utility.yul\":11048:11110   */\n      mstore\n      shl(0xd0, 0x636b54696d65)\n        /* \"#utility.yul\":11126:11144   */\n      0x64\n      dup3\n      add\n        /* \"#utility.yul\":11119:11155   */\n      mstore\n        /* \"#utility.yul\":11172:11191   */\n      0x84\n      add\n        /* \"Documents/GitHub/Solidity-Contracts/Util/Locker/Simple V2/Locker.sol\":1424:1517  require(newLockTime >= lockedToken[_id].unlockTime, 'New lock time must be after unlockTime') */\n    tag_171:\n      mload(0x40)\n      dup1\n      swap2\n      sub\n      swap1\n      revert\n    tag_170:\n        /* \"Documents/GitHub/Solidity-Contracts/Util/Locker/Simple V2/Locker.sol\":1536:1552  lockedToken[_id] */\n      0x00\n      dup2\n      dup2\n      mstore\n        /* \"Documents/GitHub/Solidity-Contracts/Util/Locker/Simple V2/Locker.sol\":1536:1547  lockedToken */\n      0x0b\n        /* \"Documents/GitHub/Solidity-Contracts/Util/Locker/Simple V2/Locker.sol\":1536:1552  lockedToken[_id] */\n      0x20\n      mstore\n      0x40\n      swap1\n      keccak256\n        /* \"Documents/GitHub/Solidity-Contracts/Util/Locker/Simple V2/Locker.sol\":1536:1562  lockedToken[_id].withdrawn */\n      0x04\n      add\n      sload\n      0xff\n      and\n        /* \"Documents/GitHub/Solidity-Contracts/Util/Locker/Simple V2/Locker.sol\":1535:1562  !lockedToken[_id].withdrawn */\n      iszero\n        /* \"Documents/GitHub/Solidity-Contracts/Util/Locker/Simple V2/Locker.sol\":1527:1591  require(!lockedToken[_id].withdrawn, 'Tokens already withdrawn') */\n      tag_173\n      jumpi\n      mload(0x40)\n      shl(0xe5, 0x461bcd)\n      dup2\n      mstore\n        /* \"#utility.yul\":9949:9951   */\n      0x20\n        /* \"Documents/GitHub/Solidity-Contracts/Util/Locker/Simple V2/Locker.sol\":1527:1591  require(!lockedToken[_id].withdrawn, 'Tokens already withdrawn') */\n      0x04\n      dup3\n      add\n        /* \"#utility.yul\":9931:9952   */\n      mstore\n        /* \"#utility.yul\":9988:9990   */\n      0x18\n        /* \"#utility.yul\":9968:9986   */\n      0x24\n      dup3\n      add\n        /* \"#utility.yul\":9961:9991   */\n      mstore\n      shl(0x41, 0x2a37b5b2b7399030b63932b0b23c903bb4ba34323930bbb7)\n        /* \"#utility.yul\":10007:10025   */\n      0x44\n      dup3\n      add\n        /* \"#utility.yul\":10000:10054   */\n      mstore\n        /* \"#utility.yul\":10071:10089   */\n      0x64\n      add\n        /* \"Documents/GitHub/Solidity-Contracts/Util/Locker/Simple V2/Locker.sol\":1527:1591  require(!lockedToken[_id].withdrawn, 'Tokens already withdrawn') */\n      tag_171\n        /* \"#utility.yul\":9747:10095   */\n      jump\n        /* \"Documents/GitHub/Solidity-Contracts/Util/Locker/Simple V2/Locker.sol\":1527:1591  require(!lockedToken[_id].withdrawn, 'Tokens already withdrawn') */\n    tag_173:\n        /* \"Documents/GitHub/Solidity-Contracts/Util/Locker/Simple V2/Locker.sol\":1623:1639  lockedToken[_id] */\n      0x00\n      dup2\n      dup2\n      mstore\n        /* \"Documents/GitHub/Solidity-Contracts/Util/Locker/Simple V2/Locker.sol\":1623:1634  lockedToken */\n      0x0b\n        /* \"Documents/GitHub/Solidity-Contracts/Util/Locker/Simple V2/Locker.sol\":1623:1639  lockedToken[_id] */\n      0x20\n      mstore\n      0x40\n      swap1\n      keccak256\n        /* \"Documents/GitHub/Solidity-Contracts/Util/Locker/Simple V2/Locker.sol\":1623:1657  lockedToken[_id].withdrawalAddress */\n      0x01\n      add\n      sload\n      sub(shl(0xa0, 0x01), 0x01)\n      and\n        /* \"Documents/GitHub/Solidity-Contracts/Util/Locker/Simple V2/Locker.sol\":1609:1619  msg.sender */\n      caller\n        /* \"Documents/GitHub/Solidity-Contracts/Util/Locker/Simple V2/Locker.sol\":1609:1657  msg.sender == lockedToken[_id].withdrawalAddress */\n      eq\n        /* \"Documents/GitHub/Solidity-Contracts/Util/Locker/Simple V2/Locker.sol\":1601:1708  require(msg.sender == lockedToken[_id].withdrawalAddress, 'Can withdraw from the address used for locking') */\n      tag_176\n      jumpi\n      mload(0x40)\n      shl(0xe5, 0x461bcd)\n      dup2\n      mstore\n      0x04\n      add\n      tag_171\n      swap1\n      tag_178\n      jump\t// in\n    tag_176:\n        /* \"Documents/GitHub/Solidity-Contracts/Util/Locker/Simple V2/Locker.sol\":1744:1755  10000000000 */\n      0x02540be400\n        /* \"Documents/GitHub/Solidity-Contracts/Util/Locker/Simple V2/Locker.sol\":1730:1741  newLockTime */\n      dup3\n        /* \"Documents/GitHub/Solidity-Contracts/Util/Locker/Simple V2/Locker.sol\":1730:1755  newLockTime < 10000000000 */\n      lt\n        /* \"Documents/GitHub/Solidity-Contracts/Util/Locker/Simple V2/Locker.sol\":1722:1811  require(newLockTime < 10000000000, 'Unix timestamp must be in seconds, not milliseconds') */\n      tag_179\n      jumpi\n      mload(0x40)\n      shl(0xe5, 0x461bcd)\n      dup2\n      mstore\n      0x04\n      add\n      tag_171\n      swap1\n      tag_181\n      jump\t// in\n    tag_179:\n        /* \"Documents/GitHub/Solidity-Contracts/Util/Locker/Simple V2/Locker.sol\":1841:1850  extendFee */\n      sload(0x03)\n        /* \"Documents/GitHub/Solidity-Contracts/Util/Locker/Simple V2/Locker.sol\":1829:1838  msg.value */\n      callvalue\n        /* \"Documents/GitHub/Solidity-Contracts/Util/Locker/Simple V2/Locker.sol\":1829:1850  msg.value > extendFee */\n      gt\n        /* \"Documents/GitHub/Solidity-Contracts/Util/Locker/Simple V2/Locker.sol\":1821:1875  require(msg.value > extendFee, 'Must Provide BNB Fee') */\n      tag_182\n      jumpi\n      mload(0x40)\n      shl(0xe5, 0x461bcd)\n      dup2\n      mstore\n        /* \"#utility.yul\":6623:6625   */\n      0x20\n        /* \"Documents/GitHub/Solidity-Contracts/Util/Locker/Simple V2/Locker.sol\":1821:1875  require(msg.value > extendFee, 'Must Provide BNB Fee') */\n      0x04\n      dup3\n      add\n        /* \"#utility.yul\":6605:6626   */\n      mstore\n        /* \"#utility.yul\":6662:6664   */\n      0x14\n        /* \"#utility.yul\":6642:6660   */\n      0x24\n      dup3\n      add\n        /* \"#utility.yul\":6635:6665   */\n      mstore\n      shl(0x60, 0x4d7573742050726f7669646520424e4220466565)\n        /* \"#utility.yul\":6681:6699   */\n      0x44\n      dup3\n      add\n        /* \"#utility.yul\":6674:6724   */\n      mstore\n        /* \"#utility.yul\":6741:6759   */\n      0x64\n      add\n        /* \"Documents/GitHub/Solidity-Contracts/Util/Locker/Simple V2/Locker.sol\":1821:1875  require(msg.value > extendFee, 'Must Provide BNB Fee') */\n      tag_171\n        /* \"#utility.yul\":6421:6765   */\n      jump\n        /* \"Documents/GitHub/Solidity-Contracts/Util/Locker/Simple V2/Locker.sol\":1821:1875  require(msg.value > extendFee, 'Must Provide BNB Fee') */\n    tag_182:\n        /* \"Documents/GitHub/Solidity-Contracts/Util/Locker/Simple V2/Locker.sol\":1901:1910  msg.value */\n      callvalue\n        /* \"Documents/GitHub/Solidity-Contracts/Util/Locker/Simple V2/Locker.sol\":1885:1897  totalBnbFees */\n      0x05\n      0x00\n        /* \"Documents/GitHub/Solidity-Contracts/Util/Locker/Simple V2/Locker.sol\":1885:1910  totalBnbFees += msg.value */\n      dup3\n      dup3\n      sload\n      tag_185\n      swap2\n      swap1\n      tag_186\n      jump\t// in\n    tag_185:\n      swap3\n      pop\n      pop\n      dup2\n      swap1\n      sstore\n      pop\n        /* \"Documents/GitHub/Solidity-Contracts/Util/Locker/Simple V2/Locker.sol\":1940:1949  msg.value */\n      callvalue\n        /* \"Documents/GitHub/Solidity-Contracts/Util/Locker/Simple V2/Locker.sol\":1920:1936  remainingBnbFees */\n      0x06\n      0x00\n        /* \"Documents/GitHub/Solidity-Contracts/Util/Locker/Simple V2/Locker.sol\":1920:1949  remainingBnbFees += msg.value */\n      dup3\n      dup3\n      sload\n      tag_187\n      swap2\n      swap1\n      tag_186\n      jump\t// in\n    tag_187:\n      swap1\n      swap2\n      sstore\n      pop\n      pop\n        /* \"Documents/GitHub/Solidity-Contracts/Util/Locker/Simple V2/Locker.sol\":1959:1975  lockedToken[_id] */\n      0x00\n      dup2\n      dup2\n      mstore\n        /* \"Documents/GitHub/Solidity-Contracts/Util/Locker/Simple V2/Locker.sol\":1959:1970  lockedToken */\n      0x0b\n        /* \"Documents/GitHub/Solidity-Contracts/Util/Locker/Simple V2/Locker.sol\":1959:1975  lockedToken[_id] */\n      0x20\n      swap1\n      dup2\n      mstore\n      0x40\n      swap2\n      dup3\n      swap1\n      keccak256\n        /* \"Documents/GitHub/Solidity-Contracts/Util/Locker/Simple V2/Locker.sol\":1959:1986  lockedToken[_id].unlockTime */\n      0x03\n      dup2\n      add\n        /* \"Documents/GitHub/Solidity-Contracts/Util/Locker/Simple V2/Locker.sol\":1959:2000  lockedToken[_id].unlockTime = newLockTime */\n      dup6\n      swap1\n      sstore\n        /* \"Documents/GitHub/Solidity-Contracts/Util/Locker/Simple V2/Locker.sol\":2034:2063  lockedToken[_id].tokenAddress */\n      sload\n        /* \"Documents/GitHub/Solidity-Contracts/Util/Locker/Simple V2/Locker.sol\":2078:2123  LockExtended(newLockTime, _id, _tokenAddress) */\n      dup3\n      mload\n        /* \"#utility.yul\":12728:12753   */\n      dup6\n      dup2\n      mstore\n        /* \"#utility.yul\":12769:12787   */\n      swap2\n      dup3\n      add\n        /* \"#utility.yul\":12762:12796   */\n      dup5\n      swap1\n      mstore\n      sub(shl(0xa0, 0x01), 0x01)\n        /* \"Documents/GitHub/Solidity-Contracts/Util/Locker/Simple V2/Locker.sol\":2034:2063  lockedToken[_id].tokenAddress */\n      and\n      swap2\n      dup3\n      swap2\n        /* \"Documents/GitHub/Solidity-Contracts/Util/Locker/Simple V2/Locker.sol\":2078:2123  LockExtended(newLockTime, _id, _tokenAddress) */\n      0xaf206878070db16635143d5cd56a51ccd35bc26f7bdb3cd4e55e42673cd95ffa\n      swap2\n        /* \"#utility.yul\":12701:12719   */\n      add\n        /* \"Documents/GitHub/Solidity-Contracts/Util/Locker/Simple V2/Locker.sol\":2078:2123  LockExtended(newLockTime, _id, _tokenAddress) */\n      mload(0x40)\n      dup1\n      swap2\n      sub\n      swap1\n      log2\n        /* \"Documents/GitHub/Solidity-Contracts/Util/Locker/Simple V2/Locker.sol\":1414:2130  {... */\n      pop\n        /* \"Documents/GitHub/Solidity-Contracts/Util/Locker/Simple V2/Locker.sol\":1343:2130  function extendLock(uint256 newLockTime, uint256 _id) external payable {... */\n      pop\n      pop\n      jump\t// out\n        /* \"Documents/GitHub/Solidity-Contracts/Util/Locker/Simple V2/Locker.sol\":7158:7340  function getDepositsByWithdrawalAddress(address _withdrawalAddress) view public returns (uint256[] memory)... */\n    tag_50:\n      sub(shl(0xa0, 0x01), 0x01)\n        /* \"Documents/GitHub/Solidity-Contracts/Util/Locker/Simple V2/Locker.sol\":7286:7333  depositsByWithdrawalAddress[_withdrawalAddress] */\n      dup2\n      and\n      0x00\n      swap1\n      dup2\n      mstore\n        /* \"Documents/GitHub/Solidity-Contracts/Util/Locker/Simple V2/Locker.sol\":7286:7313  depositsByWithdrawalAddress */\n      0x0c\n        /* \"Documents/GitHub/Solidity-Contracts/Util/Locker/Simple V2/Locker.sol\":7286:7333  depositsByWithdrawalAddress[_withdrawalAddress] */\n      0x20\n      swap1\n      dup2\n      mstore\n      0x40\n      swap2\n      dup3\n      swap1\n      keccak256\n        /* \"Documents/GitHub/Solidity-Contracts/Util/Locker/Simple V2/Locker.sol\":7279:7333  return depositsByWithdrawalAddress[_withdrawalAddress] */\n      dup1\n      sload\n      dup4\n      mload\n      dup2\n      dup5\n      mul\n      dup2\n      add\n      dup5\n      add\n      swap1\n      swap5\n      mstore\n      dup1\n      dup5\n      mstore\n        /* \"Documents/GitHub/Solidity-Contracts/Util/Locker/Simple V2/Locker.sol\":7247:7263  uint256[] memory */\n      0x60\n      swap4\n        /* \"Documents/GitHub/Solidity-Contracts/Util/Locker/Simple V2/Locker.sol\":7279:7333  return depositsByWithdrawalAddress[_withdrawalAddress] */\n      swap3\n      dup4\n      add\n        /* \"Documents/GitHub/Solidity-Contracts/Util/Locker/Simple V2/Locker.sol\":7286:7333  depositsByWithdrawalAddress[_withdrawalAddress] */\n      dup3\n        /* \"Documents/GitHub/Solidity-Contracts/Util/Locker/Simple V2/Locker.sol\":7279:7333  return depositsByWithdrawalAddress[_withdrawalAddress] */\n      dup3\n      dup1\n      iszero\n      tag_191\n      jumpi\n      0x20\n      mul\n      dup3\n      add\n      swap2\n      swap1\n      0x00\n      mstore\n      keccak256(0x00, 0x20)\n      swap1\n    tag_192:\n      dup2\n      sload\n      dup2\n      mstore\n      0x20\n      add\n      swap1\n      0x01\n      add\n      swap1\n      dup1\n      dup4\n      gt\n      tag_192\n      jumpi\n    tag_191:\n      pop\n      pop\n      pop\n      pop\n      pop\n      swap1\n      pop\n        /* \"Documents/GitHub/Solidity-Contracts/Util/Locker/Simple V2/Locker.sol\":7158:7340  function getDepositsByWithdrawalAddress(address _withdrawalAddress) view public returns (uint256[] memory)... */\n      swap2\n      swap1\n      pop\n      jump\t// out\n        /* \"Documents/GitHub/Solidity-Contracts/Util/Locker/Simple V2/Locker.sol\":8096:8802  function withdrawFees(address payable withdrawalAddress) external onlyOwner {... */\n    tag_62:\n        /* \"Documents/GitHub/Solidity-Contracts/Util/Locker/Simple V2/Ownable.sol\":1263:1269  _owner */\n      and(sub(shl(0xa0, 0x01), 0x01), sload(0x00))\n        /* \"Documents/GitHub/Solidity-Contracts/Util/Locker/Simple V2/Context.sol\":184:194  msg.sender */\n      caller\n        /* \"Documents/GitHub/Solidity-Contracts/Util/Locker/Simple V2/Ownable.sol\":1263:1285  _owner == _msgSender() */\n      eq\n        /* \"Documents/GitHub/Solidity-Contracts/Util/Locker/Simple V2/Ownable.sol\":1255:1322  require(_owner == _msgSender(), \"Ownable: caller is not the owner\") */\n      tag_196\n      jumpi\n      mload(0x40)\n      shl(0xe5, 0x461bcd)\n      dup2\n      mstore\n      0x04\n      add\n      tag_171\n      swap1\n      tag_198\n      jump\t// in\n    tag_196:\n        /* \"Documents/GitHub/Solidity-Contracts/Util/Locker/Simple V2/Locker.sol\":8186:8202  remainingBnbFees */\n      sload(0x06)\n        /* \"Documents/GitHub/Solidity-Contracts/Util/Locker/Simple V2/Locker.sol\":8186:8206  remainingBnbFees > 0 */\n      iszero\n        /* \"Documents/GitHub/Solidity-Contracts/Util/Locker/Simple V2/Locker.sol\":8182:8311  if (remainingBnbFees > 0) {... */\n      tag_200\n      jumpi\n        /* \"Documents/GitHub/Solidity-Contracts/Util/Locker/Simple V2/Locker.sol\":8249:8265  remainingBnbFees */\n      sload(0x06)\n        /* \"Documents/GitHub/Solidity-Contracts/Util/Locker/Simple V2/Locker.sol\":8222:8266  withdrawalAddress.transfer(remainingBnbFees) */\n      mload(0x40)\n      sub(shl(0xa0, 0x01), 0x01)\n        /* \"Documents/GitHub/Solidity-Contracts/Util/Locker/Simple V2/Locker.sol\":8222:8248  withdrawalAddress.transfer */\n      dup4\n      and\n      swap2\n        /* \"Documents/GitHub/Solidity-Contracts/Util/Locker/Simple V2/Locker.sol\":8222:8266  withdrawalAddress.transfer(remainingBnbFees) */\n      dup1\n      iszero\n      0x08fc\n      mul\n      swap2\n      0x00\n      dup2\n      dup2\n      dup2\n        /* \"Documents/GitHub/Solidity-Contracts/Util/Locker/Simple V2/Locker.sol\":8249:8265  remainingBnbFees */\n      dup6\n        /* \"Documents/GitHub/Solidity-Contracts/Util/Locker/Simple V2/Locker.sol\":8222:8248  withdrawalAddress.transfer */\n      dup9\n        /* \"Documents/GitHub/Solidity-Contracts/Util/Locker/Simple V2/Locker.sol\":8222:8266  withdrawalAddress.transfer(remainingBnbFees) */\n      dup9\n      call\n      swap4\n      pop\n      pop\n      pop\n      pop\n      iszero\n      dup1\n      iszero\n      tag_202\n      jumpi\n      returndatasize\n      0x00\n      dup1\n      returndatacopy\n      revert(0x00, returndatasize)\n    tag_202:\n      pop\n        /* \"Documents/GitHub/Solidity-Contracts/Util/Locker/Simple V2/Locker.sol\":8299:8300  0 */\n      0x00\n        /* \"Documents/GitHub/Solidity-Contracts/Util/Locker/Simple V2/Locker.sol\":8280:8296  remainingBnbFees */\n      0x06\n        /* \"Documents/GitHub/Solidity-Contracts/Util/Locker/Simple V2/Locker.sol\":8280:8300  remainingBnbFees = 0 */\n      sstore\n        /* \"Documents/GitHub/Solidity-Contracts/Util/Locker/Simple V2/Locker.sol\":8182:8311  if (remainingBnbFees > 0) {... */\n    tag_200:\n        /* \"Documents/GitHub/Solidity-Contracts/Util/Locker/Simple V2/Locker.sol\":8335:8336  1 */\n      0x01\n        /* \"Documents/GitHub/Solidity-Contracts/Util/Locker/Simple V2/Locker.sol\":8321:8744  for (uint i = 1; i <= tokenAddressesWithFees.length; i++) {... */\n    tag_203:\n        /* \"Documents/GitHub/Solidity-Contracts/Util/Locker/Simple V2/Locker.sol\":8343:8365  tokenAddressesWithFees */\n      0x07\n        /* \"Documents/GitHub/Solidity-Contracts/Util/Locker/Simple V2/Locker.sol\":8343:8372  tokenAddressesWithFees.length */\n      sload\n        /* \"Documents/GitHub/Solidity-Contracts/Util/Locker/Simple V2/Locker.sol\":8338:8372  i <= tokenAddressesWithFees.length */\n      dup2\n      gt\n        /* \"Documents/GitHub/Solidity-Contracts/Util/Locker/Simple V2/Locker.sol\":8321:8744  for (uint i = 1; i <= tokenAddressesWithFees.length; i++) {... */\n      tag_204\n      jumpi\n        /* \"Documents/GitHub/Solidity-Contracts/Util/Locker/Simple V2/Locker.sol\":8416:8438  tokenAddressesWithFees */\n      0x07\n        /* \"Documents/GitHub/Solidity-Contracts/Util/Locker/Simple V2/Locker.sol\":8439:8468  tokenAddressesWithFees.length */\n      dup1\n      sload\n        /* \"Documents/GitHub/Solidity-Contracts/Util/Locker/Simple V2/Locker.sol\":8393:8413  address tokenAddress */\n      0x00\n      swap2\n        /* \"Documents/GitHub/Solidity-Contracts/Util/Locker/Simple V2/Locker.sol\":8416:8438  tokenAddressesWithFees */\n      swap1\n        /* \"Documents/GitHub/Solidity-Contracts/Util/Locker/Simple V2/Locker.sol\":8439:8472  tokenAddressesWithFees.length - i */\n      tag_206\n      swap1\n        /* \"Documents/GitHub/Solidity-Contracts/Util/Locker/Simple V2/Locker.sol\":8471:8472  i */\n      dup5\n      swap1\n        /* \"Documents/GitHub/Solidity-Contracts/Util/Locker/Simple V2/Locker.sol\":8439:8472  tokenAddressesWithFees.length - i */\n      tag_207\n      jump\t// in\n    tag_206:\n        /* \"Documents/GitHub/Solidity-Contracts/Util/Locker/Simple V2/Locker.sol\":8416:8473  tokenAddressesWithFees[tokenAddressesWithFees.length - i] */\n      dup2\n      sload\n      dup2\n      lt\n      tag_209\n      jumpi\n      tag_209\n      tag_210\n      jump\t// in\n    tag_209:\n      0x00\n      swap2\n      dup3\n      mstore\n      0x20\n      dup1\n      dup4\n      keccak256\n      swap1\n      swap2\n      add\n      sload\n      sub(shl(0xa0, 0x01), 0x01)\n      and\n        /* \"Documents/GitHub/Solidity-Contracts/Util/Locker/Simple V2/Locker.sol\":8504:8528  tokensFees[tokenAddress] */\n      dup1\n      dup4\n      mstore\n        /* \"Documents/GitHub/Solidity-Contracts/Util/Locker/Simple V2/Locker.sol\":8504:8514  tokensFees */\n      0x08\n        /* \"Documents/GitHub/Solidity-Contracts/Util/Locker/Simple V2/Locker.sol\":8504:8528  tokensFees[tokenAddress] */\n      swap1\n      swap2\n      mstore\n      0x40\n      swap1\n      swap2\n      keccak256\n      sload\n        /* \"Documents/GitHub/Solidity-Contracts/Util/Locker/Simple V2/Locker.sol\":8416:8473  tokenAddressesWithFees[tokenAddressesWithFees.length - i] */\n      swap1\n      swap2\n      pop\n        /* \"Documents/GitHub/Solidity-Contracts/Util/Locker/Simple V2/Locker.sol\":8546:8556  amount > 0 */\n      dup1\n      iszero\n        /* \"Documents/GitHub/Solidity-Contracts/Util/Locker/Simple V2/Locker.sol\":8542:8647  if (amount > 0) {... */\n      tag_212\n      jumpi\n        /* \"Documents/GitHub/Solidity-Contracts/Util/Locker/Simple V2/Locker.sol\":8576:8632  IBEP20(tokenAddress).transfer(withdrawalAddress, amount) */\n      mload(0x40)\n      shl(0xe0, 0xa9059cbb)\n      dup2\n      mstore\n      sub(shl(0xa0, 0x01), 0x01)\n        /* \"#utility.yul\":3048:3080   */\n      dup6\n      dup2\n      and\n        /* \"Documents/GitHub/Solidity-Contracts/Util/Locker/Simple V2/Locker.sol\":8576:8632  IBEP20(tokenAddress).transfer(withdrawalAddress, amount) */\n      0x04\n      dup4\n      add\n        /* \"#utility.yul\":3030:3081   */\n      mstore\n        /* \"#utility.yul\":3097:3115   */\n      0x24\n      dup3\n      add\n        /* \"#utility.yul\":3090:3124   */\n      dup4\n      swap1\n      mstore\n        /* \"Documents/GitHub/Solidity-Contracts/Util/Locker/Simple V2/Locker.sol\":8576:8605  IBEP20(tokenAddress).transfer */\n      dup4\n      and\n      swap1\n      0xa9059cbb\n      swap1\n        /* \"#utility.yul\":3003:3021   */\n      0x44\n      add\n        /* \"Documents/GitHub/Solidity-Contracts/Util/Locker/Simple V2/Locker.sol\":8576:8632  IBEP20(tokenAddress).transfer(withdrawalAddress, amount) */\n      0x20\n      mload(0x40)\n      dup1\n      dup4\n      sub\n      dup2\n      0x00\n      dup8\n      dup1\n      extcodesize\n      iszero\n      dup1\n      iszero\n      tag_215\n      jumpi\n      0x00\n      dup1\n      revert\n    tag_215:\n      pop\n      gas\n      call\n      iszero\n      dup1\n      iszero\n      tag_217\n      jumpi\n      returndatasize\n      0x00\n      dup1\n      returndatacopy\n      revert(0x00, returndatasize)\n    tag_217:\n      pop\n      pop\n      pop\n      pop\n      mload(0x40)\n      returndatasize\n      not(0x1f)\n      0x1f\n      dup3\n      add\n      and\n      dup3\n      add\n      dup1\n      0x40\n      mstore\n      pop\n      dup2\n      add\n      swap1\n      tag_218\n      swap2\n      swap1\n      tag_219\n      jump\t// in\n    tag_218:\n      pop\n        /* \"Documents/GitHub/Solidity-Contracts/Util/Locker/Simple V2/Locker.sol\":8542:8647  if (amount > 0) {... */\n    tag_212:\n      sub(shl(0xa0, 0x01), 0x01)\n        /* \"Documents/GitHub/Solidity-Contracts/Util/Locker/Simple V2/Locker.sol\":8667:8691  tokensFees[tokenAddress] */\n      dup3\n      and\n      0x00\n      swap1\n      dup2\n      mstore\n        /* \"Documents/GitHub/Solidity-Contracts/Util/Locker/Simple V2/Locker.sol\":8667:8677  tokensFees */\n      0x08\n        /* \"Documents/GitHub/Solidity-Contracts/Util/Locker/Simple V2/Locker.sol\":8667:8691  tokensFees[tokenAddress] */\n      0x20\n      mstore\n      0x40\n      dup2\n      keccak256\n        /* \"Documents/GitHub/Solidity-Contracts/Util/Locker/Simple V2/Locker.sol\":8660:8691  delete tokensFees[tokenAddress] */\n      sstore\n        /* \"Documents/GitHub/Solidity-Contracts/Util/Locker/Simple V2/Locker.sol\":8705:8727  tokenAddressesWithFees */\n      0x07\n        /* \"Documents/GitHub/Solidity-Contracts/Util/Locker/Simple V2/Locker.sol\":8705:8733  tokenAddressesWithFees.pop() */\n      dup1\n      sload\n      dup1\n      tag_221\n      jumpi\n      tag_221\n      tag_222\n      jump\t// in\n    tag_221:\n      0x00\n      dup3\n      dup2\n      mstore\n      0x20\n      swap1\n      keccak256\n      dup2\n      add\n      not(0x00)\n      swap1\n      dup2\n      add\n      dup1\n      sload\n      not(sub(shl(0xa0, 0x01), 0x01))\n      and\n      swap1\n      sstore\n      add\n      swap1\n      sstore\n      pop\n        /* \"Documents/GitHub/Solidity-Contracts/Util/Locker/Simple V2/Locker.sol\":8374:8377  i++ */\n      dup2\n      swap1\n      pop\n      tag_224\n      dup2\n      tag_225\n      jump\t// in\n    tag_224:\n      swap2\n      pop\n      pop\n        /* \"Documents/GitHub/Solidity-Contracts/Util/Locker/Simple V2/Locker.sol\":8321:8744  for (uint i = 1; i <= tokenAddressesWithFees.length; i++) {... */\n      jump(tag_203)\n    tag_204:\n      pop\n        /* \"Documents/GitHub/Solidity-Contracts/Util/Locker/Simple V2/Locker.sol\":8779:8795  new address[](0) */\n      0x40\n      dup1\n      mload\n        /* \"Documents/GitHub/Solidity-Contracts/Util/Locker/Simple V2/Locker.sol\":8793:8794  0 */\n      0x00\n        /* \"Documents/GitHub/Solidity-Contracts/Util/Locker/Simple V2/Locker.sol\":8779:8795  new address[](0) */\n      dup2\n      mstore\n      0x20\n      dup2\n      add\n      swap2\n      dup3\n      swap1\n      mstore\n        /* \"Documents/GitHub/Solidity-Contracts/Util/Locker/Simple V2/Locker.sol\":8754:8795  tokenAddressesWithFees = new address[](0) */\n      mload\n      tag_230\n      swap2\n        /* \"Documents/GitHub/Solidity-Contracts/Util/Locker/Simple V2/Locker.sol\":8754:8776  tokenAddressesWithFees */\n      0x07\n      swap2\n        /* \"Documents/GitHub/Solidity-Contracts/Util/Locker/Simple V2/Locker.sol\":8754:8795  tokenAddressesWithFees = new address[](0) */\n      tag_231\n      jump\t// in\n    tag_230:\n      pop\n        /* \"Documents/GitHub/Solidity-Contracts/Util/Locker/Simple V2/Locker.sol\":8096:8802  function withdrawFees(address payable withdrawalAddress) external onlyOwner {... */\n      pop\n      jump\t// out\n        /* \"Documents/GitHub/Solidity-Contracts/Util/Locker/Simple V2/Locker.sol\":3991:6382  function withdrawTokens(uint256 _id) external {... */\n    tag_71:\n        /* \"Documents/GitHub/Solidity-Contracts/Util/Locker/Simple V2/Locker.sol\":4074:4090  lockedToken[_id] */\n      0x00\n      dup2\n      dup2\n      mstore\n        /* \"Documents/GitHub/Solidity-Contracts/Util/Locker/Simple V2/Locker.sol\":4074:4085  lockedToken */\n      0x0b\n        /* \"Documents/GitHub/Solidity-Contracts/Util/Locker/Simple V2/Locker.sol\":4074:4090  lockedToken[_id] */\n      0x20\n      mstore\n      0x40\n      swap1\n      keccak256\n        /* \"Documents/GitHub/Solidity-Contracts/Util/Locker/Simple V2/Locker.sol\":4074:4101  lockedToken[_id].unlockTime */\n      0x03\n      add\n      sload\n        /* \"Documents/GitHub/Solidity-Contracts/Util/Locker/Simple V2/Locker.sol\":4055:4070  block.timestamp */\n      timestamp\n        /* \"Documents/GitHub/Solidity-Contracts/Util/Locker/Simple V2/Locker.sol\":4055:4101  block.timestamp >= lockedToken[_id].unlockTime */\n      lt\n      iszero\n        /* \"Documents/GitHub/Solidity-Contracts/Util/Locker/Simple V2/Locker.sol\":4047:4123  require(block.timestamp >= lockedToken[_id].unlockTime, 'Tokens are locked') */\n      tag_233\n      jumpi\n      mload(0x40)\n      shl(0xe5, 0x461bcd)\n      dup2\n      mstore\n        /* \"#utility.yul\":11404:11406   */\n      0x20\n        /* \"Documents/GitHub/Solidity-Contracts/Util/Locker/Simple V2/Locker.sol\":4047:4123  require(block.timestamp >= lockedToken[_id].unlockTime, 'Tokens are locked') */\n      0x04\n      dup3\n      add\n        /* \"#utility.yul\":11386:11407   */\n      mstore\n        /* \"#utility.yul\":11443:11445   */\n      0x11\n        /* \"#utility.yul\":11423:11441   */\n      0x24\n      dup3\n      add\n        /* \"#utility.yul\":11416:11446   */\n      mstore\n      shl(0x7a, 0x151bdad95b9cc8185c99481b1bd8dad959)\n        /* \"#utility.yul\":11462:11480   */\n      0x44\n      dup3\n      add\n        /* \"#utility.yul\":11455:11502   */\n      mstore\n        /* \"#utility.yul\":11519:11537   */\n      0x64\n      add\n        /* \"Documents/GitHub/Solidity-Contracts/Util/Locker/Simple V2/Locker.sol\":4047:4123  require(block.timestamp >= lockedToken[_id].unlockTime, 'Tokens are locked') */\n      tag_171\n        /* \"#utility.yul\":11202:11543   */\n      jump\n        /* \"Documents/GitHub/Solidity-Contracts/Util/Locker/Simple V2/Locker.sol\":4047:4123  require(block.timestamp >= lockedToken[_id].unlockTime, 'Tokens are locked') */\n    tag_233:\n        /* \"Documents/GitHub/Solidity-Contracts/Util/Locker/Simple V2/Locker.sol\":4142:4158  lockedToken[_id] */\n      0x00\n      dup2\n      dup2\n      mstore\n        /* \"Documents/GitHub/Solidity-Contracts/Util/Locker/Simple V2/Locker.sol\":4142:4153  lockedToken */\n      0x0b\n        /* \"Documents/GitHub/Solidity-Contracts/Util/Locker/Simple V2/Locker.sol\":4142:4158  lockedToken[_id] */\n      0x20\n      mstore\n      0x40\n      swap1\n      keccak256\n        /* \"Documents/GitHub/Solidity-Contracts/Util/Locker/Simple V2/Locker.sol\":4142:4168  lockedToken[_id].withdrawn */\n      0x04\n      add\n      sload\n      0xff\n      and\n        /* \"Documents/GitHub/Solidity-Contracts/Util/Locker/Simple V2/Locker.sol\":4141:4168  !lockedToken[_id].withdrawn */\n      iszero\n        /* \"Documents/GitHub/Solidity-Contracts/Util/Locker/Simple V2/Locker.sol\":4133:4197  require(!lockedToken[_id].withdrawn, 'Tokens already withdrawn') */\n      tag_236\n      jumpi\n      mload(0x40)\n      shl(0xe5, 0x461bcd)\n      dup2\n      mstore\n        /* \"#utility.yul\":9949:9951   */\n      0x20\n        /* \"Documents/GitHub/Solidity-Contracts/Util/Locker/Simple V2/Locker.sol\":4133:4197  require(!lockedToken[_id].withdrawn, 'Tokens already withdrawn') */\n      0x04\n      dup3\n      add\n        /* \"#utility.yul\":9931:9952   */\n      mstore\n        /* \"#utility.yul\":9988:9990   */\n      0x18\n        /* \"#utility.yul\":9968:9986   */\n      0x24\n      dup3\n      add\n        /* \"#utility.yul\":9961:9991   */\n      mstore\n      shl(0x41, 0x2a37b5b2b7399030b63932b0b23c903bb4ba34323930bbb7)\n        /* \"#utility.yul\":10007:10025   */\n      0x44\n      dup3\n      add\n        /* \"#utility.yul\":10000:10054   */\n      mstore\n        /* \"#utility.yul\":10071:10089   */\n      0x64\n      add\n        /* \"Documents/GitHub/Solidity-Contracts/Util/Locker/Simple V2/Locker.sol\":4133:4197  require(!lockedToken[_id].withdrawn, 'Tokens already withdrawn') */\n      tag_171\n        /* \"#utility.yul\":9747:10095   */\n      jump\n        /* \"Documents/GitHub/Solidity-Contracts/Util/Locker/Simple V2/Locker.sol\":4133:4197  require(!lockedToken[_id].withdrawn, 'Tokens already withdrawn') */\n    tag_236:\n        /* \"Documents/GitHub/Solidity-Contracts/Util/Locker/Simple V2/Locker.sol\":4229:4245  lockedToken[_id] */\n      0x00\n      dup2\n      dup2\n      mstore\n        /* \"Documents/GitHub/Solidity-Contracts/Util/Locker/Simple V2/Locker.sol\":4229:4240  lockedToken */\n      0x0b\n        /* \"Documents/GitHub/Solidity-Contracts/Util/Locker/Simple V2/Locker.sol\":4229:4245  lockedToken[_id] */\n      0x20\n      mstore\n      0x40\n      swap1\n      keccak256\n        /* \"Documents/GitHub/Solidity-Contracts/Util/Locker/Simple V2/Locker.sol\":4229:4263  lockedToken[_id].withdrawalAddress */\n      0x01\n      add\n      sload\n      sub(shl(0xa0, 0x01), 0x01)\n      and\n        /* \"Documents/GitHub/Solidity-Contracts/Util/Locker/Simple V2/Locker.sol\":4215:4225  msg.sender */\n      caller\n        /* \"Documents/GitHub/Solidity-Contracts/Util/Locker/Simple V2/Locker.sol\":4215:4263  msg.sender == lockedToken[_id].withdrawalAddress */\n      eq\n        /* \"Documents/GitHub/Solidity-Contracts/Util/Locker/Simple V2/Locker.sol\":4207:4314  require(msg.sender == lockedToken[_id].withdrawalAddress, 'Can withdraw from the address used for locking') */\n      tag_238\n      jumpi\n      mload(0x40)\n      shl(0xe5, 0x461bcd)\n      dup2\n      mstore\n      0x04\n      add\n      tag_171\n      swap1\n      tag_178\n      jump\t// in\n    tag_238:\n        /* \"Documents/GitHub/Solidity-Contracts/Util/Locker/Simple V2/Locker.sol\":4325:4345  address tokenAddress */\n      0x00\n        /* \"Documents/GitHub/Solidity-Contracts/Util/Locker/Simple V2/Locker.sol\":4348:4364  lockedToken[_id] */\n      dup2\n      dup2\n      mstore\n        /* \"Documents/GitHub/Solidity-Contracts/Util/Locker/Simple V2/Locker.sol\":4348:4359  lockedToken */\n      0x0b\n        /* \"Documents/GitHub/Solidity-Contracts/Util/Locker/Simple V2/Locker.sol\":4348:4364  lockedToken[_id] */\n      0x20\n      mstore\n      0x40\n      swap1\n      dup2\n      swap1\n      keccak256\n        /* \"Documents/GitHub/Solidity-Contracts/Util/Locker/Simple V2/Locker.sol\":4348:4377  lockedToken[_id].tokenAddress */\n      dup1\n      sload\n      0x01\n        /* \"Documents/GitHub/Solidity-Contracts/Util/Locker/Simple V2/Locker.sol\":4415:4449  lockedToken[_id].withdrawalAddress */\n      dup3\n      add\n      sload\n        /* \"Documents/GitHub/Solidity-Contracts/Util/Locker/Simple V2/Locker.sol\":4476:4504  lockedToken[_id].tokenAmount */\n      0x02\n      swap1\n      swap3\n      add\n      sload\n        /* \"Documents/GitHub/Solidity-Contracts/Util/Locker/Simple V2/Locker.sol\":4523:4579  IBEP20(tokenAddress).transfer(withdrawalAddress, amount) */\n      swap3\n      mload\n      shl(0xe0, 0xa9059cbb)\n      dup2\n      mstore\n      sub(shl(0xa0, 0x01), 0x01)\n        /* \"Documents/GitHub/Solidity-Contracts/Util/Locker/Simple V2/Locker.sol\":4415:4449  lockedToken[_id].withdrawalAddress */\n      swap3\n      dup4\n      and\n        /* \"Documents/GitHub/Solidity-Contracts/Util/Locker/Simple V2/Locker.sol\":4523:4579  IBEP20(tokenAddress).transfer(withdrawalAddress, amount) */\n      0x04\n      dup3\n      add\n        /* \"#utility.yul\":3030:3081   */\n      dup2\n      swap1\n      mstore\n        /* \"#utility.yul\":3097:3115   */\n      0x24\n      dup3\n      add\n        /* \"#utility.yul\":3090:3124   */\n      dup6\n      swap1\n      mstore\n        /* \"Documents/GitHub/Solidity-Contracts/Util/Locker/Simple V2/Locker.sol\":4348:4377  lockedToken[_id].tokenAddress */\n      swap3\n      swap1\n      swap2\n      and\n      swap3\n        /* \"Documents/GitHub/Solidity-Contracts/Util/Locker/Simple V2/Locker.sol\":4476:4504  lockedToken[_id].tokenAmount */\n      swap1\n        /* \"Documents/GitHub/Solidity-Contracts/Util/Locker/Simple V2/Locker.sol\":4348:4377  lockedToken[_id].tokenAddress */\n      dup4\n      swap1\n        /* \"Documents/GitHub/Solidity-Contracts/Util/Locker/Simple V2/Locker.sol\":4523:4552  IBEP20(tokenAddress).transfer */\n      0xa9059cbb\n      swap1\n        /* \"#utility.yul\":3003:3021   */\n      0x44\n      add\n        /* \"Documents/GitHub/Solidity-Contracts/Util/Locker/Simple V2/Locker.sol\":4523:4579  IBEP20(tokenAddress).transfer(withdrawalAddress, amount) */\n      0x20\n      mload(0x40)\n      dup1\n      dup4\n      sub\n      dup2\n      0x00\n      dup8\n      dup1\n      extcodesize\n      iszero\n      dup1\n      iszero\n      tag_242\n      jumpi\n      0x00\n      dup1\n      revert\n    tag_242:\n      pop\n      gas\n      call\n      iszero\n      dup1\n      iszero\n      tag_244\n      jumpi\n      returndatasize\n      0x00\n      dup1\n      returndatacopy\n      revert(0x00, returndatasize)\n    tag_244:\n      pop\n      pop\n      pop\n      pop\n      mload(0x40)\n      returndatasize\n      not(0x1f)\n      0x1f\n      dup3\n      add\n      and\n      dup3\n      add\n      dup1\n      0x40\n      mstore\n      pop\n      dup2\n      add\n      swap1\n      tag_245\n      swap2\n      swap1\n      tag_219\n      jump\t// in\n    tag_245:\n        /* \"Documents/GitHub/Solidity-Contracts/Util/Locker/Simple V2/Locker.sol\":4515:4609  require(IBEP20(tokenAddress).transfer(withdrawalAddress, amount), 'Failed to transfer tokens') */\n      tag_246\n      jumpi\n      mload(0x40)\n      shl(0xe5, 0x461bcd)\n      dup2\n      mstore\n        /* \"#utility.yul\":5516:5518   */\n      0x20\n        /* \"Documents/GitHub/Solidity-Contracts/Util/Locker/Simple V2/Locker.sol\":4515:4609  require(IBEP20(tokenAddress).transfer(withdrawalAddress, amount), 'Failed to transfer tokens') */\n      0x04\n      dup3\n      add\n        /* \"#utility.yul\":5498:5519   */\n      mstore\n        /* \"#utility.yul\":5555:5557   */\n      0x19\n        /* \"#utility.yul\":5535:5553   */\n      0x24\n      dup3\n      add\n        /* \"#utility.yul\":5528:5558   */\n      mstore\n        /* \"#utility.yul\":5594:5621   */\n      0x4661696c656420746f207472616e7366657220746f6b656e7300000000000000\n        /* \"#utility.yul\":5574:5592   */\n      0x44\n      dup3\n      add\n        /* \"#utility.yul\":5567:5622   */\n      mstore\n        /* \"#utility.yul\":5639:5657   */\n      0x64\n      add\n        /* \"Documents/GitHub/Solidity-Contracts/Util/Locker/Simple V2/Locker.sol\":4515:4609  require(IBEP20(tokenAddress).transfer(withdrawalAddress, amount), 'Failed to transfer tokens') */\n      tag_171\n        /* \"#utility.yul\":5314:5663   */\n      jump\n        /* \"Documents/GitHub/Solidity-Contracts/Util/Locker/Simple V2/Locker.sol\":4515:4609  require(IBEP20(tokenAddress).transfer(withdrawalAddress, amount), 'Failed to transfer tokens') */\n    tag_246:\n        /* \"Documents/GitHub/Solidity-Contracts/Util/Locker/Simple V2/Locker.sol\":4620:4636  lockedToken[_id] */\n      0x00\n      dup5\n      dup2\n      mstore\n        /* \"Documents/GitHub/Solidity-Contracts/Util/Locker/Simple V2/Locker.sol\":4620:4631  lockedToken */\n      0x0b\n        /* \"Documents/GitHub/Solidity-Contracts/Util/Locker/Simple V2/Locker.sol\":4620:4636  lockedToken[_id] */\n      0x20\n      swap1\n      dup2\n      mstore\n      0x40\n      dup1\n      dup4\n      keccak256\n        /* \"Documents/GitHub/Solidity-Contracts/Util/Locker/Simple V2/Locker.sol\":4620:4646  lockedToken[_id].withdrawn */\n      0x04\n      add\n        /* \"Documents/GitHub/Solidity-Contracts/Util/Locker/Simple V2/Locker.sol\":4620:4653  lockedToken[_id].withdrawn = true */\n      dup1\n      sload\n      not(0xff)\n      and\n        /* \"Documents/GitHub/Solidity-Contracts/Util/Locker/Simple V2/Locker.sol\":4649:4653  true */\n      0x01\n        /* \"Documents/GitHub/Solidity-Contracts/Util/Locker/Simple V2/Locker.sol\":4620:4653  lockedToken[_id].withdrawn = true */\n      or\n      swap1\n      sstore\n      sub(shl(0xa0, 0x01), 0x01)\n        /* \"Documents/GitHub/Solidity-Contracts/Util/Locker/Simple V2/Locker.sol\":4689:4721  walletTokenBalance[tokenAddress] */\n      dup7\n      and\n      dup4\n      mstore\n        /* \"Documents/GitHub/Solidity-Contracts/Util/Locker/Simple V2/Locker.sol\":4689:4707  walletTokenBalance */\n      0x0e\n        /* \"Documents/GitHub/Solidity-Contracts/Util/Locker/Simple V2/Locker.sol\":4689:4721  walletTokenBalance[tokenAddress] */\n      dup3\n      mstore\n      dup1\n      dup4\n      keccak256\n        /* \"Documents/GitHub/Solidity-Contracts/Util/Locker/Simple V2/Locker.sol\":4722:4732  msg.sender */\n      caller\n        /* \"Documents/GitHub/Solidity-Contracts/Util/Locker/Simple V2/Locker.sol\":4689:4733  walletTokenBalance[tokenAddress][msg.sender] */\n      dup5\n      mstore\n      swap1\n      swap2\n      mstore\n      swap1\n      keccak256\n      sload\n        /* \"Documents/GitHub/Solidity-Contracts/Util/Locker/Simple V2/Locker.sol\":4790:4814  previousBalance - amount */\n      tag_249\n        /* \"Documents/GitHub/Solidity-Contracts/Util/Locker/Simple V2/Locker.sol\":4808:4814  amount */\n      dup3\n        /* \"Documents/GitHub/Solidity-Contracts/Util/Locker/Simple V2/Locker.sol\":4689:4733  walletTokenBalance[tokenAddress][msg.sender] */\n      dup3\n        /* \"Documents/GitHub/Solidity-Contracts/Util/Locker/Simple V2/Locker.sol\":4790:4814  previousBalance - amount */\n      tag_207\n      jump\t// in\n    tag_249:\n      sub(shl(0xa0, 0x01), 0x01)\n        /* \"Documents/GitHub/Solidity-Contracts/Util/Locker/Simple V2/Locker.sol\":4743:4775  walletTokenBalance[tokenAddress] */\n      dup1\n      dup7\n      and\n      0x00\n      swap1\n      dup2\n      mstore\n        /* \"Documents/GitHub/Solidity-Contracts/Util/Locker/Simple V2/Locker.sol\":4743:4761  walletTokenBalance */\n      0x0e\n        /* \"Documents/GitHub/Solidity-Contracts/Util/Locker/Simple V2/Locker.sol\":4743:4775  walletTokenBalance[tokenAddress] */\n      0x20\n      swap1\n      dup2\n      mstore\n      0x40\n      dup1\n      dup4\n      keccak256\n        /* \"Documents/GitHub/Solidity-Contracts/Util/Locker/Simple V2/Locker.sol\":4776:4786  msg.sender */\n      caller\n        /* \"Documents/GitHub/Solidity-Contracts/Util/Locker/Simple V2/Locker.sol\":4743:4787  walletTokenBalance[tokenAddress][msg.sender] */\n      dup5\n      mstore\n      dup3\n      mstore\n      dup1\n      dup4\n      keccak256\n        /* \"Documents/GitHub/Solidity-Contracts/Util/Locker/Simple V2/Locker.sol\":4743:4814  walletTokenBalance[tokenAddress][msg.sender] = previousBalance - amount */\n      swap5\n      swap1\n      swap5\n      sstore\n        /* \"Documents/GitHub/Solidity-Contracts/Util/Locker/Simple V2/Locker.sol\":4945:4991  depositsByWithdrawalAddress[withdrawalAddress] */\n      swap2\n      dup7\n      and\n      dup2\n      mstore\n        /* \"Documents/GitHub/Solidity-Contracts/Util/Locker/Simple V2/Locker.sol\":4945:4972  depositsByWithdrawalAddress */\n      0x0c\n        /* \"Documents/GitHub/Solidity-Contracts/Util/Locker/Simple V2/Locker.sol\":4945:4991  depositsByWithdrawalAddress[withdrawalAddress] */\n      swap1\n      swap2\n      mstore\n      swap1\n      dup2\n      keccak256\n        /* \"Documents/GitHub/Solidity-Contracts/Util/Locker/Simple V2/Locker.sol\":4945:4998  depositsByWithdrawalAddress[withdrawalAddress].length */\n      sload\n        /* \"Documents/GitHub/Solidity-Contracts/Util/Locker/Simple V2/Locker.sol\":4743:4775  walletTokenBalance[tokenAddress] */\n      dup2\n      swap1\n      dup2\n        /* \"Documents/GitHub/Solidity-Contracts/Util/Locker/Simple V2/Locker.sol\":5065:5078  byWLength - 1 */\n      tag_250\n        /* \"Documents/GitHub/Solidity-Contracts/Util/Locker/Simple V2/Locker.sol\":5077:5078  1 */\n      0x01\n        /* \"Documents/GitHub/Solidity-Contracts/Util/Locker/Simple V2/Locker.sol\":4945:4998  depositsByWithdrawalAddress[withdrawalAddress].length */\n      dup4\n        /* \"Documents/GitHub/Solidity-Contracts/Util/Locker/Simple V2/Locker.sol\":5065:5078  byWLength - 1 */\n      tag_207\n      jump\t// in\n    tag_250:\n        /* \"Documents/GitHub/Solidity-Contracts/Util/Locker/Simple V2/Locker.sol\":5051:5079  new uint256[](byWLength - 1) */\n      0xffffffffffffffff\n      dup2\n      gt\n      iszero\n      tag_252\n      jumpi\n      tag_252\n      tag_228\n      jump\t// in\n    tag_252:\n      mload(0x40)\n      swap1\n      dup1\n      dup3\n      mstore\n      dup1\n      0x20\n      mul\n      0x20\n      add\n      dup3\n      add\n      0x40\n      mstore\n      dup1\n      iszero\n      tag_253\n      jumpi\n      dup2\n      0x20\n      add\n      0x20\n      dup3\n      mul\n      dup1\n      calldatasize\n      dup4\n      calldatacopy\n      add\n      swap1\n      pop\n    tag_253:\n      pop\n        /* \"Documents/GitHub/Solidity-Contracts/Util/Locker/Simple V2/Locker.sol\":5008:5079  uint256[] memory newDepositsByWithdrawal = new uint256[](byWLength - 1) */\n      swap1\n      pop\n        /* \"Documents/GitHub/Solidity-Contracts/Util/Locker/Simple V2/Locker.sol\":5099:5100  0 */\n      0x00\n        /* \"Documents/GitHub/Solidity-Contracts/Util/Locker/Simple V2/Locker.sol\":5095:5100  j = 0 */\n      swap3\n      pop\n        /* \"Documents/GitHub/Solidity-Contracts/Util/Locker/Simple V2/Locker.sol\":5090:5539  for (j = 0; j < byWLength; j++) {... */\n    tag_254:\n        /* \"Documents/GitHub/Solidity-Contracts/Util/Locker/Simple V2/Locker.sol\":5106:5115  byWLength */\n      dup2\n        /* \"Documents/GitHub/Solidity-Contracts/Util/Locker/Simple V2/Locker.sol\":5102:5103  j */\n      dup4\n        /* \"Documents/GitHub/Solidity-Contracts/Util/Locker/Simple V2/Locker.sol\":5102:5115  j < byWLength */\n      lt\n        /* \"Documents/GitHub/Solidity-Contracts/Util/Locker/Simple V2/Locker.sol\":5090:5539  for (j = 0; j < byWLength; j++) {... */\n      iszero\n      tag_255\n      jumpi\n      sub(shl(0xa0, 0x01), 0x01)\n        /* \"Documents/GitHub/Solidity-Contracts/Util/Locker/Simple V2/Locker.sol\":5140:5186  depositsByWithdrawalAddress[withdrawalAddress] */\n      dup8\n      and\n      0x00\n      swap1\n      dup2\n      mstore\n        /* \"Documents/GitHub/Solidity-Contracts/Util/Locker/Simple V2/Locker.sol\":5140:5167  depositsByWithdrawalAddress */\n      0x0c\n        /* \"Documents/GitHub/Solidity-Contracts/Util/Locker/Simple V2/Locker.sol\":5140:5186  depositsByWithdrawalAddress[withdrawalAddress] */\n      0x20\n      mstore\n      0x40\n      swap1\n      keccak256\n        /* \"Documents/GitHub/Solidity-Contracts/Util/Locker/Simple V2/Locker.sol\":5140:5189  depositsByWithdrawalAddress[withdrawalAddress][j] */\n      dup1\n      sload\n        /* \"Documents/GitHub/Solidity-Contracts/Util/Locker/Simple V2/Locker.sol\":5193:5196  _id */\n      dup11\n      swap2\n        /* \"Documents/GitHub/Solidity-Contracts/Util/Locker/Simple V2/Locker.sol\":5140:5186  depositsByWithdrawalAddress[withdrawalAddress] */\n      swap1\n        /* \"Documents/GitHub/Solidity-Contracts/Util/Locker/Simple V2/Locker.sol\":5187:5188  j */\n      dup6\n      swap1\n        /* \"Documents/GitHub/Solidity-Contracts/Util/Locker/Simple V2/Locker.sol\":5140:5189  depositsByWithdrawalAddress[withdrawalAddress][j] */\n      dup2\n      lt\n      tag_258\n      jumpi\n      tag_258\n      tag_210\n      jump\t// in\n    tag_258:\n      swap1\n      0x00\n      mstore\n      keccak256(0x00, 0x20)\n      add\n      sload\n        /* \"Documents/GitHub/Solidity-Contracts/Util/Locker/Simple V2/Locker.sol\":5140:5196  depositsByWithdrawalAddress[withdrawalAddress][j] == _id */\n      eq\n        /* \"Documents/GitHub/Solidity-Contracts/Util/Locker/Simple V2/Locker.sol\":5136:5529  if (depositsByWithdrawalAddress[withdrawalAddress][j] == _id) {... */\n      iszero\n      tag_260\n      jumpi\n        /* \"Documents/GitHub/Solidity-Contracts/Util/Locker/Simple V2/Locker.sol\":5225:5226  j */\n      dup3\n        /* \"Documents/GitHub/Solidity-Contracts/Util/Locker/Simple V2/Locker.sol\":5221:5226  i = j */\n      swap4\n      pop\n        /* \"Documents/GitHub/Solidity-Contracts/Util/Locker/Simple V2/Locker.sol\":5216:5375  for (i = j; i < byWLength - 1; i++) {... */\n    tag_261:\n        /* \"Documents/GitHub/Solidity-Contracts/Util/Locker/Simple V2/Locker.sol\":5232:5245  byWLength - 1 */\n      tag_264\n        /* \"Documents/GitHub/Solidity-Contracts/Util/Locker/Simple V2/Locker.sol\":5244:5245  1 */\n      0x01\n        /* \"Documents/GitHub/Solidity-Contracts/Util/Locker/Simple V2/Locker.sol\":5232:5241  byWLength */\n      dup4\n        /* \"Documents/GitHub/Solidity-Contracts/Util/Locker/Simple V2/Locker.sol\":5232:5245  byWLength - 1 */\n      tag_207\n      jump\t// in\n    tag_264:\n        /* \"Documents/GitHub/Solidity-Contracts/Util/Locker/Simple V2/Locker.sol\":5228:5229  i */\n      dup5\n        /* \"Documents/GitHub/Solidity-Contracts/Util/Locker/Simple V2/Locker.sol\":5228:5245  i < byWLength - 1 */\n      lt\n        /* \"Documents/GitHub/Solidity-Contracts/Util/Locker/Simple V2/Locker.sol\":5216:5375  for (i = j; i < byWLength - 1; i++) {... */\n      iszero\n      tag_262\n      jumpi\n      sub(shl(0xa0, 0x01), 0x01)\n        /* \"Documents/GitHub/Solidity-Contracts/Util/Locker/Simple V2/Locker.sol\":5303:5349  depositsByWithdrawalAddress[withdrawalAddress] */\n      dup8\n      and\n      0x00\n      swap1\n      dup2\n      mstore\n        /* \"Documents/GitHub/Solidity-Contracts/Util/Locker/Simple V2/Locker.sol\":5303:5330  depositsByWithdrawalAddress */\n      0x0c\n        /* \"Documents/GitHub/Solidity-Contracts/Util/Locker/Simple V2/Locker.sol\":5303:5349  depositsByWithdrawalAddress[withdrawalAddress] */\n      0x20\n      mstore\n      0x40\n      swap1\n      keccak256\n        /* \"Documents/GitHub/Solidity-Contracts/Util/Locker/Simple V2/Locker.sol\":5350:5355  i + 1 */\n      tag_265\n        /* \"Documents/GitHub/Solidity-Contracts/Util/Locker/Simple V2/Locker.sol\":5350:5351  i */\n      dup6\n        /* \"Documents/GitHub/Solidity-Contracts/Util/Locker/Simple V2/Locker.sol\":5354:5355  1 */\n      0x01\n        /* \"Documents/GitHub/Solidity-Contracts/Util/Locker/Simple V2/Locker.sol\":5350:5355  i + 1 */\n      tag_186\n      jump\t// in\n    tag_265:\n        /* \"Documents/GitHub/Solidity-Contracts/Util/Locker/Simple V2/Locker.sol\":5303:5356  depositsByWithdrawalAddress[withdrawalAddress][i + 1] */\n      dup2\n      sload\n      dup2\n      lt\n      tag_267\n      jumpi\n      tag_267\n      tag_210\n      jump\t// in\n    tag_267:\n      swap1\n      0x00\n      mstore\n      keccak256(0x00, 0x20)\n      add\n      sload\n        /* \"Documents/GitHub/Solidity-Contracts/Util/Locker/Simple V2/Locker.sol\":5274:5297  newDepositsByWithdrawal */\n      dup2\n        /* \"Documents/GitHub/Solidity-Contracts/Util/Locker/Simple V2/Locker.sol\":5298:5299  i */\n      dup6\n        /* \"Documents/GitHub/Solidity-Contracts/Util/Locker/Simple V2/Locker.sol\":5274:5300  newDepositsByWithdrawal[i] */\n      dup2\n      mload\n      dup2\n      lt\n      tag_270\n      jumpi\n      tag_270\n      tag_210\n      jump\t// in\n    tag_270:\n      0x20\n      swap1\n      dup2\n      mul\n      swap2\n      swap1\n      swap2\n      add\n      add\n        /* \"Documents/GitHub/Solidity-Contracts/Util/Locker/Simple V2/Locker.sol\":5274:5356  newDepositsByWithdrawal[i] = depositsByWithdrawalAddress[withdrawalAddress][i + 1] */\n      mstore\n        /* \"Documents/GitHub/Solidity-Contracts/Util/Locker/Simple V2/Locker.sol\":5247:5250  i++ */\n      dup4\n      tag_271\n      dup2\n      tag_225\n      jump\t// in\n    tag_271:\n      swap5\n      pop\n      pop\n        /* \"Documents/GitHub/Solidity-Contracts/Util/Locker/Simple V2/Locker.sol\":5216:5375  for (i = j; i < byWLength - 1; i++) {... */\n      jump(tag_261)\n    tag_262:\n        /* \"Documents/GitHub/Solidity-Contracts/Util/Locker/Simple V2/Locker.sol\":5392:5397  break */\n      jump(tag_255)\n        /* \"Documents/GitHub/Solidity-Contracts/Util/Locker/Simple V2/Locker.sol\":5136:5529  if (depositsByWithdrawalAddress[withdrawalAddress][j] == _id) {... */\n    tag_260:\n      sub(shl(0xa0, 0x01), 0x01)\n        /* \"Documents/GitHub/Solidity-Contracts/Util/Locker/Simple V2/Locker.sol\":5465:5511  depositsByWithdrawalAddress[withdrawalAddress] */\n      dup8\n      and\n      0x00\n      swap1\n      dup2\n      mstore\n        /* \"Documents/GitHub/Solidity-Contracts/Util/Locker/Simple V2/Locker.sol\":5465:5492  depositsByWithdrawalAddress */\n      0x0c\n        /* \"Documents/GitHub/Solidity-Contracts/Util/Locker/Simple V2/Locker.sol\":5465:5511  depositsByWithdrawalAddress[withdrawalAddress] */\n      0x20\n      mstore\n      0x40\n      swap1\n      keccak256\n        /* \"Documents/GitHub/Solidity-Contracts/Util/Locker/Simple V2/Locker.sol\":5465:5514  depositsByWithdrawalAddress[withdrawalAddress][j] */\n      dup1\n      sload\n        /* \"Documents/GitHub/Solidity-Contracts/Util/Locker/Simple V2/Locker.sol\":5512:5513  j */\n      dup5\n      swap1\n        /* \"Documents/GitHub/Solidity-Contracts/Util/Locker/Simple V2/Locker.sol\":5465:5514  depositsByWithdrawalAddress[withdrawalAddress][j] */\n      dup2\n      lt\n      tag_274\n      jumpi\n      tag_274\n      tag_210\n      jump\t// in\n    tag_274:\n      swap1\n      0x00\n      mstore\n      keccak256(0x00, 0x20)\n      add\n      sload\n        /* \"Documents/GitHub/Solidity-Contracts/Util/Locker/Simple V2/Locker.sol\":5436:5459  newDepositsByWithdrawal */\n      dup2\n        /* \"Documents/GitHub/Solidity-Contracts/Util/Locker/Simple V2/Locker.sol\":5460:5461  j */\n      dup5\n        /* \"Documents/GitHub/Solidity-Contracts/Util/Locker/Simple V2/Locker.sol\":5436:5462  newDepositsByWithdrawal[j] */\n      dup2\n      mload\n      dup2\n      lt\n      tag_277\n      jumpi\n      tag_277\n      tag_210\n      jump\t// in\n    tag_277:\n      0x20\n      mul\n      0x20\n      add\n      add\n        /* \"Documents/GitHub/Solidity-Contracts/Util/Locker/Simple V2/Locker.sol\":5436:5514  newDepositsByWithdrawal[j] = depositsByWithdrawalAddress[withdrawalAddress][j] */\n      dup2\n      dup2\n      mstore\n      pop\n      pop\n        /* \"Documents/GitHub/Solidity-Contracts/Util/Locker/Simple V2/Locker.sol\":5117:5120  j++ */\n      dup3\n      tag_278\n      dup2\n      tag_225\n      jump\t// in\n    tag_278:\n      swap4\n      pop\n      pop\n        /* \"Documents/GitHub/Solidity-Contracts/Util/Locker/Simple V2/Locker.sol\":5090:5539  for (j = 0; j < byWLength; j++) {... */\n      jump(tag_254)\n    tag_255:\n      sub(shl(0xa0, 0x01), 0x01)\n        /* \"Documents/GitHub/Solidity-Contracts/Util/Locker/Simple V2/Locker.sol\":5548:5594  depositsByWithdrawalAddress[withdrawalAddress] */\n      dup8\n      and\n      0x00\n      swap1\n      dup2\n      mstore\n        /* \"Documents/GitHub/Solidity-Contracts/Util/Locker/Simple V2/Locker.sol\":5548:5575  depositsByWithdrawalAddress */\n      0x0c\n        /* \"Documents/GitHub/Solidity-Contracts/Util/Locker/Simple V2/Locker.sol\":5548:5594  depositsByWithdrawalAddress[withdrawalAddress] */\n      0x20\n      swap1\n      dup2\n      mstore\n      0x40\n      swap1\n      swap2\n      keccak256\n        /* \"Documents/GitHub/Solidity-Contracts/Util/Locker/Simple V2/Locker.sol\":5548:5620  depositsByWithdrawalAddress[withdrawalAddress] = newDepositsByWithdrawal */\n      dup3\n      mload\n      tag_279\n      swap3\n      dup5\n      add\n      swap1\n      tag_280\n      jump\t// in\n    tag_279:\n      pop\n      sub(shl(0xa0, 0x01), 0x01)\n        /* \"Documents/GitHub/Solidity-Contracts/Util/Locker/Simple V2/Locker.sol\":5699:5735  depositsByTokenAddress[tokenAddress] */\n      dup9\n      and\n        /* \"Documents/GitHub/Solidity-Contracts/Util/Locker/Simple V2/Locker.sol\":5679:5696  uint256 byTLength */\n      0x00\n        /* \"Documents/GitHub/Solidity-Contracts/Util/Locker/Simple V2/Locker.sol\":5699:5735  depositsByTokenAddress[tokenAddress] */\n      swap1\n      dup2\n      mstore\n        /* \"Documents/GitHub/Solidity-Contracts/Util/Locker/Simple V2/Locker.sol\":5699:5721  depositsByTokenAddress */\n      0x0d\n        /* \"Documents/GitHub/Solidity-Contracts/Util/Locker/Simple V2/Locker.sol\":5699:5735  depositsByTokenAddress[tokenAddress] */\n      0x20\n      mstore\n      0x40\n      dup2\n      keccak256\n        /* \"Documents/GitHub/Solidity-Contracts/Util/Locker/Simple V2/Locker.sol\":5699:5742  depositsByTokenAddress[tokenAddress].length */\n      sload\n      swap1\n        /* \"Documents/GitHub/Solidity-Contracts/Util/Locker/Simple V2/Locker.sol\":5804:5817  byTLength - 1 */\n      tag_281\n        /* \"Documents/GitHub/Solidity-Contracts/Util/Locker/Simple V2/Locker.sol\":5816:5817  1 */\n      0x01\n        /* \"Documents/GitHub/Solidity-Contracts/Util/Locker/Simple V2/Locker.sol\":5699:5742  depositsByTokenAddress[tokenAddress].length */\n      dup4\n        /* \"Documents/GitHub/Solidity-Contracts/Util/Locker/Simple V2/Locker.sol\":5804:5817  byTLength - 1 */\n      tag_207\n      jump\t// in\n    tag_281:\n        /* \"Documents/GitHub/Solidity-Contracts/Util/Locker/Simple V2/Locker.sol\":5790:5818  new uint256[](byTLength - 1) */\n      0xffffffffffffffff\n      dup2\n      gt\n      iszero\n      tag_283\n      jumpi\n      tag_283\n      tag_228\n      jump\t// in\n    tag_283:\n      mload(0x40)\n      swap1\n      dup1\n      dup3\n      mstore\n      dup1\n      0x20\n      mul\n      0x20\n      add\n      dup3\n      add\n      0x40\n      mstore\n      dup1\n      iszero\n      tag_284\n      jumpi\n      dup2\n      0x20\n      add\n      0x20\n      dup3\n      mul\n      dup1\n      calldatasize\n      dup4\n      calldatacopy\n      add\n      swap1\n      pop\n    tag_284:\n      pop\n        /* \"Documents/GitHub/Solidity-Contracts/Util/Locker/Simple V2/Locker.sol\":5752:5818  uint256[] memory newDepositsByToken = new uint256[](byTLength - 1) */\n      swap1\n      pop\n        /* \"Documents/GitHub/Solidity-Contracts/Util/Locker/Simple V2/Locker.sol\":5837:5838  0 */\n      0x00\n        /* \"Documents/GitHub/Solidity-Contracts/Util/Locker/Simple V2/Locker.sol\":5833:5838  j = 0 */\n      swap5\n      pop\n        /* \"Documents/GitHub/Solidity-Contracts/Util/Locker/Simple V2/Locker.sol\":5828:6237  for (j = 0; j < byTLength; j++) {... */\n    tag_285:\n        /* \"Documents/GitHub/Solidity-Contracts/Util/Locker/Simple V2/Locker.sol\":5844:5853  byTLength */\n      dup2\n        /* \"Documents/GitHub/Solidity-Contracts/Util/Locker/Simple V2/Locker.sol\":5840:5841  j */\n      dup6\n        /* \"Documents/GitHub/Solidity-Contracts/Util/Locker/Simple V2/Locker.sol\":5840:5853  j < byTLength */\n      lt\n        /* \"Documents/GitHub/Solidity-Contracts/Util/Locker/Simple V2/Locker.sol\":5828:6237  for (j = 0; j < byTLength; j++) {... */\n      iszero\n      tag_286\n      jumpi\n      sub(shl(0xa0, 0x01), 0x01)\n        /* \"Documents/GitHub/Solidity-Contracts/Util/Locker/Simple V2/Locker.sol\":5878:5914  depositsByTokenAddress[tokenAddress] */\n      dup11\n      and\n      0x00\n      swap1\n      dup2\n      mstore\n        /* \"Documents/GitHub/Solidity-Contracts/Util/Locker/Simple V2/Locker.sol\":5878:5900  depositsByTokenAddress */\n      0x0d\n        /* \"Documents/GitHub/Solidity-Contracts/Util/Locker/Simple V2/Locker.sol\":5878:5914  depositsByTokenAddress[tokenAddress] */\n      0x20\n      mstore\n      0x40\n      swap1\n      keccak256\n        /* \"Documents/GitHub/Solidity-Contracts/Util/Locker/Simple V2/Locker.sol\":5878:5917  depositsByTokenAddress[tokenAddress][j] */\n      dup1\n      sload\n        /* \"Documents/GitHub/Solidity-Contracts/Util/Locker/Simple V2/Locker.sol\":5921:5924  _id */\n      dup13\n      swap2\n        /* \"Documents/GitHub/Solidity-Contracts/Util/Locker/Simple V2/Locker.sol\":5878:5914  depositsByTokenAddress[tokenAddress] */\n      swap1\n        /* \"Documents/GitHub/Solidity-Contracts/Util/Locker/Simple V2/Locker.sol\":5915:5916  j */\n      dup8\n      swap1\n        /* \"Documents/GitHub/Solidity-Contracts/Util/Locker/Simple V2/Locker.sol\":5878:5917  depositsByTokenAddress[tokenAddress][j] */\n      dup2\n      lt\n      tag_289\n      jumpi\n      tag_289\n      tag_210\n      jump\t// in\n    tag_289:\n      swap1\n      0x00\n      mstore\n      keccak256(0x00, 0x20)\n      add\n      sload\n        /* \"Documents/GitHub/Solidity-Contracts/Util/Locker/Simple V2/Locker.sol\":5878:5924  depositsByTokenAddress[tokenAddress][j] == _id */\n      eq\n        /* \"Documents/GitHub/Solidity-Contracts/Util/Locker/Simple V2/Locker.sol\":5874:6227  if (depositsByTokenAddress[tokenAddress][j] == _id) {... */\n      iszero\n      tag_291\n      jumpi\n        /* \"Documents/GitHub/Solidity-Contracts/Util/Locker/Simple V2/Locker.sol\":5953:5954  j */\n      dup5\n        /* \"Documents/GitHub/Solidity-Contracts/Util/Locker/Simple V2/Locker.sol\":5949:5954  i = j */\n      swap6\n      pop\n        /* \"Documents/GitHub/Solidity-Contracts/Util/Locker/Simple V2/Locker.sol\":5944:6088  for (i = j; i < byTLength - 1; i++) {... */\n    tag_292:\n        /* \"Documents/GitHub/Solidity-Contracts/Util/Locker/Simple V2/Locker.sol\":5960:5973  byTLength - 1 */\n      tag_295\n        /* \"Documents/GitHub/Solidity-Contracts/Util/Locker/Simple V2/Locker.sol\":5972:5973  1 */\n      0x01\n        /* \"Documents/GitHub/Solidity-Contracts/Util/Locker/Simple V2/Locker.sol\":5960:5969  byTLength */\n      dup4\n        /* \"Documents/GitHub/Solidity-Contracts/Util/Locker/Simple V2/Locker.sol\":5960:5973  byTLength - 1 */\n      tag_207\n      jump\t// in\n    tag_295:\n        /* \"Documents/GitHub/Solidity-Contracts/Util/Locker/Simple V2/Locker.sol\":5956:5957  i */\n      dup7\n        /* \"Documents/GitHub/Solidity-Contracts/Util/Locker/Simple V2/Locker.sol\":5956:5973  i < byTLength - 1 */\n      lt\n        /* \"Documents/GitHub/Solidity-Contracts/Util/Locker/Simple V2/Locker.sol\":5944:6088  for (i = j; i < byTLength - 1; i++) {... */\n      iszero\n      tag_293\n      jumpi\n      sub(shl(0xa0, 0x01), 0x01)\n        /* \"Documents/GitHub/Solidity-Contracts/Util/Locker/Simple V2/Locker.sol\":6026:6062  depositsByTokenAddress[tokenAddress] */\n      dup11\n      and\n      0x00\n      swap1\n      dup2\n      mstore\n        /* \"Documents/GitHub/Solidity-Contracts/Util/Locker/Simple V2/Locker.sol\":6026:6048  depositsByTokenAddress */\n      0x0d\n        /* \"Documents/GitHub/Solidity-Contracts/Util/Locker/Simple V2/Locker.sol\":6026:6062  depositsByTokenAddress[tokenAddress] */\n      0x20\n      mstore\n      0x40\n      swap1\n      keccak256\n        /* \"Documents/GitHub/Solidity-Contracts/Util/Locker/Simple V2/Locker.sol\":6063:6068  i + 1 */\n      tag_296\n        /* \"Documents/GitHub/Solidity-Contracts/Util/Locker/Simple V2/Locker.sol\":6063:6064  i */\n      dup8\n        /* \"Documents/GitHub/Solidity-Contracts/Util/Locker/Simple V2/Locker.sol\":6067:6068  1 */\n      0x01\n        /* \"Documents/GitHub/Solidity-Contracts/Util/Locker/Simple V2/Locker.sol\":6063:6068  i + 1 */\n      tag_186\n      jump\t// in\n    tag_296:\n        /* \"Documents/GitHub/Solidity-Contracts/Util/Locker/Simple V2/Locker.sol\":6026:6069  depositsByTokenAddress[tokenAddress][i + 1] */\n      dup2\n      sload\n      dup2\n      lt\n      tag_298\n      jumpi\n      tag_298\n      tag_210\n      jump\t// in\n    tag_298:\n      swap1\n      0x00\n      mstore\n      keccak256(0x00, 0x20)\n      add\n      sload\n        /* \"Documents/GitHub/Solidity-Contracts/Util/Locker/Simple V2/Locker.sol\":6002:6020  newDepositsByToken */\n      dup2\n        /* \"Documents/GitHub/Solidity-Contracts/Util/Locker/Simple V2/Locker.sol\":6021:6022  i */\n      dup8\n        /* \"Documents/GitHub/Solidity-Contracts/Util/Locker/Simple V2/Locker.sol\":6002:6023  newDepositsByToken[i] */\n      dup2\n      mload\n      dup2\n      lt\n      tag_301\n      jumpi\n      tag_301\n      tag_210\n      jump\t// in\n    tag_301:\n      0x20\n      swap1\n      dup2\n      mul\n      swap2\n      swap1\n      swap2\n      add\n      add\n        /* \"Documents/GitHub/Solidity-Contracts/Util/Locker/Simple V2/Locker.sol\":6002:6069  newDepositsByToken[i] = depositsByTokenAddress[tokenAddress][i + 1] */\n      mstore\n        /* \"Documents/GitHub/Solidity-Contracts/Util/Locker/Simple V2/Locker.sol\":5975:5978  i++ */\n      dup6\n      tag_302\n      dup2\n      tag_225\n      jump\t// in\n    tag_302:\n      swap7\n      pop\n      pop\n        /* \"Documents/GitHub/Solidity-Contracts/Util/Locker/Simple V2/Locker.sol\":5944:6088  for (i = j; i < byTLength - 1; i++) {... */\n      jump(tag_292)\n    tag_293:\n        /* \"Documents/GitHub/Solidity-Contracts/Util/Locker/Simple V2/Locker.sol\":6105:6110  break */\n      jump(tag_286)\n        /* \"Documents/GitHub/Solidity-Contracts/Util/Locker/Simple V2/Locker.sol\":5874:6227  if (depositsByTokenAddress[tokenAddress][j] == _id) {... */\n    tag_291:\n      sub(shl(0xa0, 0x01), 0x01)\n        /* \"Documents/GitHub/Solidity-Contracts/Util/Locker/Simple V2/Locker.sol\":6173:6209  depositsByTokenAddress[tokenAddress] */\n      dup11\n      and\n      0x00\n      swap1\n      dup2\n      mstore\n        /* \"Documents/GitHub/Solidity-Contracts/Util/Locker/Simple V2/Locker.sol\":6173:6195  depositsByTokenAddress */\n      0x0d\n        /* \"Documents/GitHub/Solidity-Contracts/Util/Locker/Simple V2/Locker.sol\":6173:6209  depositsByTokenAddress[tokenAddress] */\n      0x20\n      mstore\n      0x40\n      swap1\n      keccak256\n        /* \"Documents/GitHub/Solidity-Contracts/Util/Locker/Simple V2/Locker.sol\":6173:6212  depositsByTokenAddress[tokenAddress][j] */\n      dup1\n      sload\n        /* \"Documents/GitHub/Solidity-Contracts/Util/Locker/Simple V2/Locker.sol\":6210:6211  j */\n      dup7\n      swap1\n        /* \"Documents/GitHub/Solidity-Contracts/Util/Locker/Simple V2/Locker.sol\":6173:6212  depositsByTokenAddress[tokenAddress][j] */\n      dup2\n      lt\n      tag_305\n      jumpi\n      tag_305\n      tag_210\n      jump\t// in\n    tag_305:\n      swap1\n      0x00\n      mstore\n      keccak256(0x00, 0x20)\n      add\n      sload\n        /* \"Documents/GitHub/Solidity-Contracts/Util/Locker/Simple V2/Locker.sol\":6149:6167  newDepositsByToken */\n      dup2\n        /* \"Documents/GitHub/Solidity-Contracts/Util/Locker/Simple V2/Locker.sol\":6168:6169  j */\n      dup7\n        /* \"Documents/GitHub/Solidity-Contracts/Util/Locker/Simple V2/Locker.sol\":6149:6170  newDepositsByToken[j] */\n      dup2\n      mload\n      dup2\n      lt\n      tag_308\n      jumpi\n      tag_308\n      tag_210\n      jump\t// in\n    tag_308:\n      0x20\n      mul\n      0x20\n      add\n      add\n        /* \"Documents/GitHub/Solidity-Contracts/Util/Locker/Simple V2/Locker.sol\":6149:6212  newDepositsByToken[j] = depositsByTokenAddress[tokenAddress][j] */\n      dup2\n      dup2\n      mstore\n      pop\n      pop\n        /* \"Documents/GitHub/Solidity-Contracts/Util/Locker/Simple V2/Locker.sol\":5855:5858  j++ */\n      dup5\n      tag_309\n      dup2\n      tag_225\n      jump\t// in\n    tag_309:\n      swap6\n      pop\n      pop\n        /* \"Documents/GitHub/Solidity-Contracts/Util/Locker/Simple V2/Locker.sol\":5828:6237  for (j = 0; j < byTLength; j++) {... */\n      jump(tag_285)\n    tag_286:\n      sub(shl(0xa0, 0x01), 0x01)\n        /* \"Documents/GitHub/Solidity-Contracts/Util/Locker/Simple V2/Locker.sol\":6246:6282  depositsByTokenAddress[tokenAddress] */\n      dup11\n      and\n      0x00\n      swap1\n      dup2\n      mstore\n        /* \"Documents/GitHub/Solidity-Contracts/Util/Locker/Simple V2/Locker.sol\":6246:6268  depositsByTokenAddress */\n      0x0d\n        /* \"Documents/GitHub/Solidity-Contracts/Util/Locker/Simple V2/Locker.sol\":6246:6282  depositsByTokenAddress[tokenAddress] */\n      0x20\n      swap1\n      dup2\n      mstore\n      0x40\n      swap1\n      swap2\n      keccak256\n        /* \"Documents/GitHub/Solidity-Contracts/Util/Locker/Simple V2/Locker.sol\":6246:6303  depositsByTokenAddress[tokenAddress] = newDepositsByToken */\n      dup3\n      mload\n      tag_310\n      swap3\n      dup5\n      add\n      swap1\n      tag_280\n      jump\t// in\n    tag_310:\n      pop\n        /* \"Documents/GitHub/Solidity-Contracts/Util/Locker/Simple V2/Locker.sol\":6349:6366  withdrawalAddress */\n      dup9\n      sub(shl(0xa0, 0x01), 0x01)\n        /* \"Documents/GitHub/Solidity-Contracts/Util/Locker/Simple V2/Locker.sol\":6319:6375  TokensWithdrawn(tokenAddress, withdrawalAddress, amount) */\n      and\n        /* \"Documents/GitHub/Solidity-Contracts/Util/Locker/Simple V2/Locker.sol\":6335:6347  tokenAddress */\n      dup11\n      sub(shl(0xa0, 0x01), 0x01)\n        /* \"Documents/GitHub/Solidity-Contracts/Util/Locker/Simple V2/Locker.sol\":6319:6375  TokensWithdrawn(tokenAddress, withdrawalAddress, amount) */\n      and\n      0x6337ed398c0e8467698c581374fdce4db14922df487b5a39483079f5f59b60a4\n        /* \"Documents/GitHub/Solidity-Contracts/Util/Locker/Simple V2/Locker.sol\":6368:6374  amount */\n      dup11\n        /* \"Documents/GitHub/Solidity-Contracts/Util/Locker/Simple V2/Locker.sol\":6319:6375  TokensWithdrawn(tokenAddress, withdrawalAddress, amount) */\n      mload(0x40)\n      tag_311\n      swap2\n        /* \"#utility.yul\":12518:12543   */\n      dup2\n      mstore\n        /* \"#utility.yul\":12506:12508   */\n      0x20\n        /* \"#utility.yul\":12491:12509   */\n      add\n      swap1\n        /* \"#utility.yul\":12372:12549   */\n      jump\n        /* \"Documents/GitHub/Solidity-Contracts/Util/Locker/Simple V2/Locker.sol\":6319:6375  TokensWithdrawn(tokenAddress, withdrawalAddress, amount) */\n    tag_311:\n      mload(0x40)\n      dup1\n      swap2\n      sub\n      swap1\n      log3\n        /* \"Documents/GitHub/Solidity-Contracts/Util/Locker/Simple V2/Locker.sol\":4037:6382  {... */\n      pop\n      pop\n      pop\n      pop\n      pop\n      pop\n      pop\n      pop\n      pop\n      pop\n        /* \"Documents/GitHub/Solidity-Contracts/Util/Locker/Simple V2/Locker.sol\":3991:6382  function withdrawTokens(uint256 _id) external {... */\n      pop\n      jump\t// out\n        /* \"Documents/GitHub/Solidity-Contracts/Util/Locker/Simple V2/Locker.sol\":849:908  mapping(address => uint256[]) public depositsByTokenAddress */\n    tag_82:\n      mstore(0x20, 0x0d)\n      dup2\n      0x00\n      mstore\n      keccak256(0x00, 0x40)\n      dup2\n      dup2\n      sload\n      dup2\n      lt\n      tag_313\n      jumpi\n      0x00\n      dup1\n      revert\n    tag_313:\n      swap1\n      0x00\n      mstore\n      keccak256(0x00, 0x20)\n      add\n      0x00\n      swap2\n      pop\n      swap2\n      pop\n      pop\n      sload\n      dup2\n      jump\t// out\n        /* \"Documents/GitHub/Solidity-Contracts/Util/Locker/Simple V2/Locker.sol\":779:843  mapping(address => uint256[]) public depositsByWithdrawalAddress */\n    tag_87:\n      mstore(0x20, 0x0c)\n      dup2\n      0x00\n      mstore\n      keccak256(0x00, 0x40)\n      dup2\n      dup2\n      sload\n      dup2\n      lt\n      tag_313\n      jumpi\n      0x00\n      dup1\n      revert\n        /* \"Documents/GitHub/Solidity-Contracts/Util/Locker/Simple V2/Locker.sol\":6745:6853  function getAllDepositIds() view public returns (uint256[] memory)... */\n    tag_91:\n        /* \"Documents/GitHub/Solidity-Contracts/Util/Locker/Simple V2/Locker.sol\":6794:6810  uint256[] memory */\n      0x60\n        /* \"Documents/GitHub/Solidity-Contracts/Util/Locker/Simple V2/Locker.sol\":6833:6846  allDepositIds */\n      0x0a\n        /* \"Documents/GitHub/Solidity-Contracts/Util/Locker/Simple V2/Locker.sol\":6826:6846  return allDepositIds */\n      dup1\n      sload\n      dup1\n      0x20\n      mul\n      0x20\n      add\n      mload(0x40)\n      swap1\n      dup2\n      add\n      0x40\n      mstore\n      dup1\n      swap3\n      swap2\n      swap1\n      dup2\n      dup2\n      mstore\n      0x20\n      add\n      dup3\n      dup1\n      sload\n      dup1\n      iszero\n      tag_318\n      jumpi\n      0x20\n      mul\n      dup3\n      add\n      swap2\n      swap1\n      0x00\n      mstore\n      keccak256(0x00, 0x20)\n      swap1\n    tag_319:\n      dup2\n      sload\n      dup2\n      mstore\n      0x20\n      add\n      swap1\n      0x01\n      add\n      swap1\n      dup1\n      dup4\n      gt\n      tag_319\n      jumpi\n    tag_318:\n      pop\n      pop\n      pop\n      pop\n      pop\n      swap1\n      pop\n        /* \"Documents/GitHub/Solidity-Contracts/Util/Locker/Simple V2/Locker.sol\":6745:6853  function getAllDepositIds() view public returns (uint256[] memory)... */\n      swap1\n      jump\t// out\n        /* \"Documents/GitHub/Solidity-Contracts/Util/Locker/Simple V2/Ownable.sol\":1682:1827  function renounceOwnership() public virtual onlyOwner {... */\n    tag_95:\n        /* \"Documents/GitHub/Solidity-Contracts/Util/Locker/Simple V2/Ownable.sol\":1263:1269  _owner */\n      and(sub(shl(0xa0, 0x01), 0x01), sload(0x00))\n        /* \"Documents/GitHub/Solidity-Contracts/Util/Locker/Simple V2/Context.sol\":184:194  msg.sender */\n      caller\n        /* \"Documents/GitHub/Solidity-Contracts/Util/Locker/Simple V2/Ownable.sol\":1263:1285  _owner == _msgSender() */\n      eq\n        /* \"Documents/GitHub/Solidity-Contracts/Util/Locker/Simple V2/Ownable.sol\":1255:1322  require(_owner == _msgSender(), \"Ownable: caller is not the owner\") */\n      tag_322\n      jumpi\n      mload(0x40)\n      shl(0xe5, 0x461bcd)\n      dup2\n      mstore\n      0x04\n      add\n      tag_171\n      swap1\n      tag_198\n      jump\t// in\n    tag_322:\n        /* \"Documents/GitHub/Solidity-Contracts/Util/Locker/Simple V2/Ownable.sol\":1788:1789  0 */\n      0x00\n        /* \"Documents/GitHub/Solidity-Contracts/Util/Locker/Simple V2/Ownable.sol\":1772:1778  _owner */\n      dup1\n      sload\n        /* \"Documents/GitHub/Solidity-Contracts/Util/Locker/Simple V2/Ownable.sol\":1751:1791  OwnershipTransferred(_owner, address(0)) */\n      mload(0x40)\n      sub(shl(0xa0, 0x01), 0x01)\n        /* \"Documents/GitHub/Solidity-Contracts/Util/Locker/Simple V2/Ownable.sol\":1772:1778  _owner */\n      swap1\n      swap2\n      and\n      swap1\n        /* \"Documents/GitHub/Solidity-Contracts/Util/Locker/Simple V2/Ownable.sol\":1751:1791  OwnershipTransferred(_owner, address(0)) */\n      0x8be0079c531659141344cd1fd0a4f28419497f9722a3daafe3b4186f6b6457e0\n      swap1\n        /* \"Documents/GitHub/Solidity-Contracts/Util/Locker/Simple V2/Ownable.sol\":1788:1789  0 */\n      dup4\n      swap1\n        /* \"Documents/GitHub/Solidity-Contracts/Util/Locker/Simple V2/Ownable.sol\":1751:1791  OwnershipTransferred(_owner, address(0)) */\n      log3\n        /* \"Documents/GitHub/Solidity-Contracts/Util/Locker/Simple V2/Ownable.sol\":1818:1819  0 */\n      0x00\n        /* \"Documents/GitHub/Solidity-Contracts/Util/Locker/Simple V2/Ownable.sol\":1801:1820  _owner = address(0) */\n      dup1\n      sload\n      not(sub(shl(0xa0, 0x01), 0x01))\n      and\n      swap1\n      sstore\n        /* \"Documents/GitHub/Solidity-Contracts/Util/Locker/Simple V2/Ownable.sol\":1682:1827  function renounceOwnership() public virtual onlyOwner {... */\n      jump\t// out\n        /* \"Documents/GitHub/Solidity-Contracts/Util/Locker/Simple V2/Locker.sol\":7699:7900  function setLpFee(uint256 percent) external onlyOwner {... */\n    tag_99:\n        /* \"Documents/GitHub/Solidity-Contracts/Util/Locker/Simple V2/Ownable.sol\":1263:1269  _owner */\n      and(sub(shl(0xa0, 0x01), 0x01), sload(0x00))\n        /* \"Documents/GitHub/Solidity-Contracts/Util/Locker/Simple V2/Context.sol\":184:194  msg.sender */\n      caller\n        /* \"Documents/GitHub/Solidity-Contracts/Util/Locker/Simple V2/Ownable.sol\":1263:1285  _owner == _msgSender() */\n      eq\n        /* \"Documents/GitHub/Solidity-Contracts/Util/Locker/Simple V2/Ownable.sol\":1255:1322  require(_owner == _msgSender(), \"Ownable: caller is not the owner\") */\n      tag_327\n      jumpi\n      mload(0x40)\n      shl(0xe5, 0x461bcd)\n      dup2\n      mstore\n      0x04\n      add\n      tag_171\n      swap1\n      tag_198\n      jump\t// in\n    tag_327:\n        /* \"Documents/GitHub/Solidity-Contracts/Util/Locker/Simple V2/Locker.sol\":7781:7782  0 */\n      0x00\n        /* \"Documents/GitHub/Solidity-Contracts/Util/Locker/Simple V2/Locker.sol\":7771:7778  percent */\n      dup2\n        /* \"Documents/GitHub/Solidity-Contracts/Util/Locker/Simple V2/Locker.sol\":7771:7782  percent > 0 */\n      gt\n        /* \"Documents/GitHub/Solidity-Contracts/Util/Locker/Simple V2/Locker.sol\":7763:7807  require(percent > 0, 'Percent is too small') */\n      tag_330\n      jumpi\n      mload(0x40)\n      shl(0xe5, 0x461bcd)\n      dup2\n      mstore\n        /* \"#utility.yul\":7729:7731   */\n      0x20\n        /* \"Documents/GitHub/Solidity-Contracts/Util/Locker/Simple V2/Locker.sol\":7763:7807  require(percent > 0, 'Percent is too small') */\n      0x04\n      dup3\n      add\n        /* \"#utility.yul\":7711:7732   */\n      mstore\n        /* \"#utility.yul\":7768:7770   */\n      0x14\n        /* \"#utility.yul\":7748:7766   */\n      0x24\n      dup3\n      add\n        /* \"#utility.yul\":7741:7771   */\n      mstore\n      shl(0x62, 0x14195c98d95b9d081a5cc81d1bdbc81cdb585b1b)\n        /* \"#utility.yul\":7787:7805   */\n      0x44\n      dup3\n      add\n        /* \"#utility.yul\":7780:7830   */\n      mstore\n        /* \"#utility.yul\":7847:7865   */\n      0x64\n      add\n        /* \"Documents/GitHub/Solidity-Contracts/Util/Locker/Simple V2/Locker.sol\":7763:7807  require(percent > 0, 'Percent is too small') */\n      tag_171\n        /* \"#utility.yul\":7527:7871   */\n      jump\n        /* \"Documents/GitHub/Solidity-Contracts/Util/Locker/Simple V2/Locker.sol\":7763:7807  require(percent > 0, 'Percent is too small') */\n    tag_330:\n        /* \"Documents/GitHub/Solidity-Contracts/Util/Locker/Simple V2/Locker.sol\":7835:7836  3 */\n      0x03\n        /* \"Documents/GitHub/Solidity-Contracts/Util/Locker/Simple V2/Locker.sol\":7825:7832  percent */\n      dup2\n        /* \"Documents/GitHub/Solidity-Contracts/Util/Locker/Simple V2/Locker.sol\":7825:7836  percent < 3 */\n      lt\n        /* \"Documents/GitHub/Solidity-Contracts/Util/Locker/Simple V2/Locker.sol\":7817:7861  require(percent < 3, 'Percent is too Large') */\n      tag_333\n      jumpi\n      mload(0x40)\n      shl(0xe5, 0x461bcd)\n      dup2\n      mstore\n        /* \"#utility.yul\":6972:6974   */\n      0x20\n        /* \"Documents/GitHub/Solidity-Contracts/Util/Locker/Simple V2/Locker.sol\":7817:7861  require(percent < 3, 'Percent is too Large') */\n      0x04\n      dup3\n      add\n        /* \"#utility.yul\":6954:6975   */\n      mstore\n        /* \"#utility.yul\":7011:7013   */\n      0x14\n        /* \"#utility.yul\":6991:7009   */\n      0x24\n      dup3\n      add\n        /* \"#utility.yul\":6984:7014   */\n      mstore\n      shl(0x60, 0x50657263656e7420697320746f6f204c61726765)\n        /* \"#utility.yul\":7030:7048   */\n      0x44\n      dup3\n      add\n        /* \"#utility.yul\":7023:7073   */\n      mstore\n        /* \"#utility.yul\":7090:7108   */\n      0x64\n      add\n        /* \"Documents/GitHub/Solidity-Contracts/Util/Locker/Simple V2/Locker.sol\":7817:7861  require(percent < 3, 'Percent is too Large') */\n      tag_171\n        /* \"#utility.yul\":6770:7114   */\n      jump\n        /* \"Documents/GitHub/Solidity-Contracts/Util/Locker/Simple V2/Locker.sol\":7817:7861  require(percent < 3, 'Percent is too Large') */\n    tag_333:\n        /* \"Documents/GitHub/Solidity-Contracts/Util/Locker/Simple V2/Locker.sol\":7871:7883  lpFeePercent */\n      0x04\n        /* \"Documents/GitHub/Solidity-Contracts/Util/Locker/Simple V2/Locker.sol\":7871:7893  lpFeePercent = percent */\n      sstore\n        /* \"Documents/GitHub/Solidity-Contracts/Util/Locker/Simple V2/Locker.sol\":7699:7900  function setLpFee(uint256 percent) external onlyOwner {... */\n      jump\t// out\n        /* \"Documents/GitHub/Solidity-Contracts/Util/Locker/Simple V2/Locker.sol\":7346:7508  function getDepositsByTokenAddress(address _tokenAddress) view public returns (uint256[] memory)... */\n    tag_103:\n      sub(shl(0xa0, 0x01), 0x01)\n        /* \"Documents/GitHub/Solidity-Contracts/Util/Locker/Simple V2/Locker.sol\":7464:7501  depositsByTokenAddress[_tokenAddress] */\n      dup2\n      and\n      0x00\n      swap1\n      dup2\n      mstore\n        /* \"Documents/GitHub/Solidity-Contracts/Util/Locker/Simple V2/Locker.sol\":7464:7486  depositsByTokenAddress */\n      0x0d\n        /* \"Documents/GitHub/Solidity-Contracts/Util/Locker/Simple V2/Locker.sol\":7464:7501  depositsByTokenAddress[_tokenAddress] */\n      0x20\n      swap1\n      dup2\n      mstore\n      0x40\n      swap2\n      dup3\n      swap1\n      keccak256\n        /* \"Documents/GitHub/Solidity-Contracts/Util/Locker/Simple V2/Locker.sol\":7457:7501  return depositsByTokenAddress[_tokenAddress] */\n      dup1\n      sload\n      dup4\n      mload\n      dup2\n      dup5\n      mul\n      dup2\n      add\n      dup5\n      add\n      swap1\n      swap5\n      mstore\n      dup1\n      dup5\n      mstore\n        /* \"Documents/GitHub/Solidity-Contracts/Util/Locker/Simple V2/Locker.sol\":7425:7441  uint256[] memory */\n      0x60\n      swap4\n        /* \"Documents/GitHub/Solidity-Contracts/Util/Locker/Simple V2/Locker.sol\":7457:7501  return depositsByTokenAddress[_tokenAddress] */\n      swap3\n      dup4\n      add\n        /* \"Documents/GitHub/Solidity-Contracts/Util/Locker/Simple V2/Locker.sol\":7464:7501  depositsByTokenAddress[_tokenAddress] */\n      dup3\n        /* \"Documents/GitHub/Solidity-Contracts/Util/Locker/Simple V2/Locker.sol\":7457:7501  return depositsByTokenAddress[_tokenAddress] */\n      dup3\n      dup1\n      iszero\n      tag_191\n      jumpi\n      0x20\n      mul\n      dup3\n      add\n      swap2\n      swap1\n      0x00\n      mstore\n      keccak256(0x00, 0x20)\n      swap1\n      dup2\n      sload\n      dup2\n      mstore\n      0x20\n      add\n      swap1\n      0x01\n      add\n      swap1\n      dup1\n      dup4\n      gt\n      tag_192\n      jumpi\n      pop\n      pop\n      pop\n      pop\n      pop\n      swap1\n      pop\n        /* \"Documents/GitHub/Solidity-Contracts/Util/Locker/Simple V2/Locker.sol\":7346:7508  function getDepositsByTokenAddress(address _tokenAddress) view public returns (uint256[] memory)... */\n      swap2\n      swap1\n      pop\n      jump\t// out\n        /* \"Documents/GitHub/Solidity-Contracts/Util/Locker/Simple V2/Locker.sol\":7514:7693  function setBnbFee(uint256 fee) external onlyOwner {... */\n    tag_114:\n        /* \"Documents/GitHub/Solidity-Contracts/Util/Locker/Simple V2/Ownable.sol\":1263:1269  _owner */\n      and(sub(shl(0xa0, 0x01), 0x01), sload(0x00))\n        /* \"Documents/GitHub/Solidity-Contracts/Util/Locker/Simple V2/Context.sol\":184:194  msg.sender */\n      caller\n        /* \"Documents/GitHub/Solidity-Contracts/Util/Locker/Simple V2/Ownable.sol\":1263:1285  _owner == _msgSender() */\n      eq\n        /* \"Documents/GitHub/Solidity-Contracts/Util/Locker/Simple V2/Ownable.sol\":1255:1322  require(_owner == _msgSender(), \"Ownable: caller is not the owner\") */\n      tag_342\n      jumpi\n      mload(0x40)\n      shl(0xe5, 0x461bcd)\n      dup2\n      mstore\n      0x04\n      add\n      tag_171\n      swap1\n      tag_198\n      jump\t// in\n    tag_342:\n        /* \"Documents/GitHub/Solidity-Contracts/Util/Locker/Simple V2/Locker.sol\":7589:7590  0 */\n      0x00\n        /* \"Documents/GitHub/Solidity-Contracts/Util/Locker/Simple V2/Locker.sol\":7583:7586  fee */\n      dup2\n        /* \"Documents/GitHub/Solidity-Contracts/Util/Locker/Simple V2/Locker.sol\":7583:7590  fee > 0 */\n      gt\n        /* \"Documents/GitHub/Solidity-Contracts/Util/Locker/Simple V2/Locker.sol\":7575:7611  require(fee > 0, 'Fee is too small') */\n      tag_345\n      jumpi\n      mload(0x40)\n      shl(0xe5, 0x461bcd)\n      dup2\n      mstore\n        /* \"#utility.yul\":9604:9606   */\n      0x20\n        /* \"Documents/GitHub/Solidity-Contracts/Util/Locker/Simple V2/Locker.sol\":7575:7611  require(fee > 0, 'Fee is too small') */\n      0x04\n      dup3\n      add\n        /* \"#utility.yul\":9586:9607   */\n      mstore\n        /* \"#utility.yul\":9643:9645   */\n      0x10\n        /* \"#utility.yul\":9623:9641   */\n      0x24\n      dup3\n      add\n        /* \"#utility.yul\":9616:9646   */\n      mstore\n      shl(0x82, 0x119959481a5cc81d1bdbc81cdb585b1b)\n        /* \"#utility.yul\":9662:9680   */\n      0x44\n      dup3\n      add\n        /* \"#utility.yul\":9655:9701   */\n      mstore\n        /* \"#utility.yul\":9718:9736   */\n      0x64\n      add\n        /* \"Documents/GitHub/Solidity-Contracts/Util/Locker/Simple V2/Locker.sol\":7575:7611  require(fee > 0, 'Fee is too small') */\n      tag_171\n        /* \"#utility.yul\":9402:9742   */\n      jump\n        /* \"Documents/GitHub/Solidity-Contracts/Util/Locker/Simple V2/Locker.sol\":7575:7611  require(fee > 0, 'Fee is too small') */\n    tag_345:\n        /* \"Documents/GitHub/Solidity-Contracts/Util/Locker/Simple V2/Locker.sol\":7635:7642  1 ether */\n      0x0de0b6b3a7640000\n        /* \"Documents/GitHub/Solidity-Contracts/Util/Locker/Simple V2/Locker.sol\":7629:7632  fee */\n      dup2\n        /* \"Documents/GitHub/Solidity-Contracts/Util/Locker/Simple V2/Locker.sol\":7629:7642  fee < 1 ether */\n      lt\n        /* \"Documents/GitHub/Solidity-Contracts/Util/Locker/Simple V2/Locker.sol\":7621:7664  require(fee < 1 ether, 'Feee is too Large') */\n      tag_348\n      jumpi\n      mload(0x40)\n      shl(0xe5, 0x461bcd)\n      dup2\n      mstore\n        /* \"#utility.yul\":6277:6279   */\n      0x20\n        /* \"Documents/GitHub/Solidity-Contracts/Util/Locker/Simple V2/Locker.sol\":7621:7664  require(fee < 1 ether, 'Feee is too Large') */\n      0x04\n      dup3\n      add\n        /* \"#utility.yul\":6259:6280   */\n      mstore\n        /* \"#utility.yul\":6316:6318   */\n      0x11\n        /* \"#utility.yul\":6296:6314   */\n      0x24\n      dup3\n      add\n        /* \"#utility.yul\":6289:6319   */\n      mstore\n      shl(0x78, 0x4665656520697320746f6f204c61726765)\n        /* \"#utility.yul\":6335:6353   */\n      0x44\n      dup3\n      add\n        /* \"#utility.yul\":6328:6375   */\n      mstore\n        /* \"#utility.yul\":6392:6410   */\n      0x64\n      add\n        /* \"Documents/GitHub/Solidity-Contracts/Util/Locker/Simple V2/Locker.sol\":7621:7664  require(fee < 1 ether, 'Feee is too Large') */\n      tag_171\n        /* \"#utility.yul\":6075:6416   */\n      jump\n        /* \"Documents/GitHub/Solidity-Contracts/Util/Locker/Simple V2/Locker.sol\":7621:7664  require(fee < 1 ether, 'Feee is too Large') */\n    tag_348:\n        /* \"Documents/GitHub/Solidity-Contracts/Util/Locker/Simple V2/Locker.sol\":7674:7680  bnbFee */\n      0x02\n        /* \"Documents/GitHub/Solidity-Contracts/Util/Locker/Simple V2/Locker.sol\":7674:7686  bnbFee = fee */\n      sstore\n        /* \"Documents/GitHub/Solidity-Contracts/Util/Locker/Simple V2/Locker.sol\":7514:7693  function setBnbFee(uint256 fee) external onlyOwner {... */\n      jump\t// out\n        /* \"Documents/GitHub/Solidity-Contracts/Util/Locker/Simple V2/Locker.sol\":6388:6545  function getTotalTokenBalance(address _tokenAddress) view public returns (uint256)... */\n    tag_127:\n        /* \"Documents/GitHub/Solidity-Contracts/Util/Locker/Simple V2/Locker.sol\":6492:6538  IBEP20(_tokenAddress).balanceOf(address(this)) */\n      mload(0x40)\n      shl(0xe0, 0x70a08231)\n      dup2\n      mstore\n        /* \"Documents/GitHub/Solidity-Contracts/Util/Locker/Simple V2/Locker.sol\":6532:6536  this */\n      address\n        /* \"Documents/GitHub/Solidity-Contracts/Util/Locker/Simple V2/Locker.sol\":6492:6538  IBEP20(_tokenAddress).balanceOf(address(this)) */\n      0x04\n      dup3\n      add\n        /* \"#utility.yul\":2786:2837   */\n      mstore\n        /* \"Documents/GitHub/Solidity-Contracts/Util/Locker/Simple V2/Locker.sol\":6462:6469  uint256 */\n      0x00\n      swap1\n      sub(shl(0xa0, 0x01), 0x01)\n        /* \"Documents/GitHub/Solidity-Contracts/Util/Locker/Simple V2/Locker.sol\":6492:6523  IBEP20(_tokenAddress).balanceOf */\n      dup4\n      and\n      swap1\n      0x70a08231\n      swap1\n        /* \"#utility.yul\":2759:2777   */\n      0x24\n      add\n        /* \"Documents/GitHub/Solidity-Contracts/Util/Locker/Simple V2/Locker.sol\":6492:6538  IBEP20(_tokenAddress).balanceOf(address(this)) */\n      0x20\n      mload(0x40)\n      dup1\n      dup4\n      sub\n      dup2\n      dup7\n      dup1\n      extcodesize\n      iszero\n      dup1\n      iszero\n      tag_354\n      jumpi\n      0x00\n      dup1\n      revert\n    tag_354:\n      pop\n      gas\n      staticcall\n      iszero\n      dup1\n      iszero\n      tag_356\n      jumpi\n      returndatasize\n      0x00\n      dup1\n      returndatacopy\n      revert(0x00, returndatasize)\n    tag_356:\n      pop\n      pop\n      pop\n      pop\n      mload(0x40)\n      returndatasize\n      not(0x1f)\n      0x1f\n      dup3\n      add\n      and\n      dup3\n      add\n      dup1\n      0x40\n      mstore\n      pop\n      dup2\n      add\n      swap1\n      tag_357\n      swap2\n      swap1\n      tag_358\n      jump\t// in\n    tag_357:\n        /* \"Documents/GitHub/Solidity-Contracts/Util/Locker/Simple V2/Locker.sol\":6485:6538  return IBEP20(_tokenAddress).balanceOf(address(this)) */\n      swap3\n        /* \"Documents/GitHub/Solidity-Contracts/Util/Locker/Simple V2/Locker.sol\":6388:6545  function getTotalTokenBalance(address _tokenAddress) view public returns (uint256)... */\n      swap2\n      pop\n      pop\n      jump\t// out\n        /* \"Documents/GitHub/Solidity-Contracts/Util/Locker/Simple V2/Locker.sol\":691:721  uint256[] public allDepositIds */\n    tag_146:\n      0x0a\n      dup2\n      dup2\n      sload\n      dup2\n      lt\n      tag_359\n      jumpi\n      0x00\n      dup1\n      revert\n    tag_359:\n      0x00\n      swap2\n      dup3\n      mstore\n      0x20\n      swap1\n      swap2\n      keccak256\n      add\n      sload\n      swap1\n      pop\n      dup2\n      jump\t// out\n        /* \"Documents/GitHub/Solidity-Contracts/Util/Locker/Simple V2/Locker.sol\":7906:8090  function setExtendFee(uint256 fee) external onlyOwner {... */\n    tag_151:\n        /* \"Documents/GitHub/Solidity-Contracts/Util/Locker/Simple V2/Ownable.sol\":1263:1269  _owner */\n      and(sub(shl(0xa0, 0x01), 0x01), sload(0x00))\n        /* \"Documents/GitHub/Solidity-Contracts/Util/Locker/Simple V2/Context.sol\":184:194  msg.sender */\n      caller\n        /* \"Documents/GitHub/Solidity-Contracts/Util/Locker/Simple V2/Ownable.sol\":1263:1285  _owner == _msgSender() */\n      eq\n        /* \"Documents/GitHub/Solidity-Contracts/Util/Locker/Simple V2/Ownable.sol\":1255:1322  require(_owner == _msgSender(), \"Ownable: caller is not the owner\") */\n      tag_363\n      jumpi\n      mload(0x40)\n      shl(0xe5, 0x461bcd)\n      dup2\n      mstore\n      0x04\n      add\n      tag_171\n      swap1\n      tag_198\n      jump\t// in\n    tag_363:\n        /* \"Documents/GitHub/Solidity-Contracts/Util/Locker/Simple V2/Locker.sol\":7984:7985  0 */\n      0x00\n        /* \"Documents/GitHub/Solidity-Contracts/Util/Locker/Simple V2/Locker.sol\":7978:7981  fee */\n      dup2\n        /* \"Documents/GitHub/Solidity-Contracts/Util/Locker/Simple V2/Locker.sol\":7978:7985  fee > 0 */\n      gt\n        /* \"Documents/GitHub/Solidity-Contracts/Util/Locker/Simple V2/Locker.sol\":7970:8003  require(fee > 0, 'Fee too small') */\n      tag_366\n      jumpi\n      mload(0x40)\n      shl(0xe5, 0x461bcd)\n      dup2\n      mstore\n        /* \"#utility.yul\":10655:10657   */\n      0x20\n        /* \"Documents/GitHub/Solidity-Contracts/Util/Locker/Simple V2/Locker.sol\":7970:8003  require(fee > 0, 'Fee too small') */\n      0x04\n      dup3\n      add\n        /* \"#utility.yul\":10637:10658   */\n      mstore\n        /* \"#utility.yul\":10694:10696   */\n      0x0d\n        /* \"#utility.yul\":10674:10692   */\n      0x24\n      dup3\n      add\n        /* \"#utility.yul\":10667:10697   */\n      mstore\n      shl(0x9a, 0x119959481d1bdbc81cdb585b1b)\n        /* \"#utility.yul\":10713:10731   */\n      0x44\n      dup3\n      add\n        /* \"#utility.yul\":10706:10749   */\n      mstore\n        /* \"#utility.yul\":10766:10784   */\n      0x64\n      add\n        /* \"Documents/GitHub/Solidity-Contracts/Util/Locker/Simple V2/Locker.sol\":7970:8003  require(fee > 0, 'Fee too small') */\n      tag_171\n        /* \"#utility.yul\":10453:10790   */\n      jump\n        /* \"Documents/GitHub/Solidity-Contracts/Util/Locker/Simple V2/Locker.sol\":7970:8003  require(fee > 0, 'Fee too small') */\n    tag_366:\n        /* \"Documents/GitHub/Solidity-Contracts/Util/Locker/Simple V2/Locker.sol\":8027:8037  0.25 ether */\n      0x03782dace9d90000\n        /* \"Documents/GitHub/Solidity-Contracts/Util/Locker/Simple V2/Locker.sol\":8021:8024  fee */\n      dup2\n        /* \"Documents/GitHub/Solidity-Contracts/Util/Locker/Simple V2/Locker.sol\":8021:8037  fee < 0.25 ether */\n      lt\n        /* \"Documents/GitHub/Solidity-Contracts/Util/Locker/Simple V2/Locker.sol\":8013:8058  require(fee < 0.25 ether, 'Fee is too Large') */\n      tag_369\n      jumpi\n      mload(0x40)\n      shl(0xe5, 0x461bcd)\n      dup2\n      mstore\n        /* \"#utility.yul\":8898:8900   */\n      0x20\n        /* \"Documents/GitHub/Solidity-Contracts/Util/Locker/Simple V2/Locker.sol\":8013:8058  require(fee < 0.25 ether, 'Fee is too Large') */\n      0x04\n      dup3\n      add\n        /* \"#utility.yul\":8880:8901   */\n      mstore\n        /* \"#utility.yul\":8937:8939   */\n      0x10\n        /* \"#utility.yul\":8917:8935   */\n      0x24\n      dup3\n      add\n        /* \"#utility.yul\":8910:8940   */\n      mstore\n      shl(0x80, 0x46656520697320746f6f204c61726765)\n        /* \"#utility.yul\":8956:8974   */\n      0x44\n      dup3\n      add\n        /* \"#utility.yul\":8949:8995   */\n      mstore\n        /* \"#utility.yul\":9012:9030   */\n      0x64\n      add\n        /* \"Documents/GitHub/Solidity-Contracts/Util/Locker/Simple V2/Locker.sol\":8013:8058  require(fee < 0.25 ether, 'Fee is too Large') */\n      tag_171\n        /* \"#utility.yul\":8696:9036   */\n      jump\n        /* \"Documents/GitHub/Solidity-Contracts/Util/Locker/Simple V2/Locker.sol\":8013:8058  require(fee < 0.25 ether, 'Fee is too Large') */\n    tag_369:\n        /* \"Documents/GitHub/Solidity-Contracts/Util/Locker/Simple V2/Locker.sol\":8068:8077  extendFee */\n      0x03\n        /* \"Documents/GitHub/Solidity-Contracts/Util/Locker/Simple V2/Locker.sol\":8068:8083  extendFee = fee */\n      sstore\n        /* \"Documents/GitHub/Solidity-Contracts/Util/Locker/Simple V2/Locker.sol\":7906:8090  function setExtendFee(uint256 fee) external onlyOwner {... */\n      jump\t// out\n        /* \"Documents/GitHub/Solidity-Contracts/Util/Locker/Simple V2/Locker.sol\":2136:3985  function lockTokens(... */\n    tag_159:\n        /* \"Documents/GitHub/Solidity-Contracts/Util/Locker/Simple V2/Locker.sol\":2297:2308  uint256 _id */\n      0x00\n        /* \"Documents/GitHub/Solidity-Contracts/Util/Locker/Simple V2/Locker.sol\":2338:2339  0 */\n      dup1\n        /* \"Documents/GitHub/Solidity-Contracts/Util/Locker/Simple V2/Locker.sol\":2328:2335  _amount */\n      dup5\n        /* \"Documents/GitHub/Solidity-Contracts/Util/Locker/Simple V2/Locker.sol\":2328:2339  _amount > 0 */\n      gt\n        /* \"Documents/GitHub/Solidity-Contracts/Util/Locker/Simple V2/Locker.sol\":2320:2380  require(_amount > 0, 'Tokens amount must be greater than 0') */\n      tag_373\n      jumpi\n      mload(0x40)\n      shl(0xe5, 0x461bcd)\n      dup2\n      mstore\n        /* \"#utility.yul\":8078:8080   */\n      0x20\n        /* \"Documents/GitHub/Solidity-Contracts/Util/Locker/Simple V2/Locker.sol\":2320:2380  require(_amount > 0, 'Tokens amount must be greater than 0') */\n      0x04\n      dup3\n      add\n        /* \"#utility.yul\":8060:8081   */\n      mstore\n        /* \"#utility.yul\":8117:8119   */\n      0x24\n        /* \"#utility.yul\":8097:8115   */\n      dup1\n      dup3\n      add\n        /* \"#utility.yul\":8090:8120   */\n      mstore\n        /* \"#utility.yul\":8156:8190   */\n      0x546f6b656e7320616d6f756e74206d7573742062652067726561746572207468\n        /* \"#utility.yul\":8136:8154   */\n      0x44\n      dup3\n      add\n        /* \"#utility.yul\":8129:8191   */\n      mstore\n      shl(0xe4, 0x0616e203)\n        /* \"#utility.yul\":8207:8225   */\n      0x64\n      dup3\n      add\n        /* \"#utility.yul\":8200:8234   */\n      mstore\n        /* \"#utility.yul\":8251:8270   */\n      0x84\n      add\n        /* \"Documents/GitHub/Solidity-Contracts/Util/Locker/Simple V2/Locker.sol\":2320:2380  require(_amount > 0, 'Tokens amount must be greater than 0') */\n      tag_171\n        /* \"#utility.yul\":7876:8276   */\n      jump\n        /* \"Documents/GitHub/Solidity-Contracts/Util/Locker/Simple V2/Locker.sol\":2320:2380  require(_amount > 0, 'Tokens amount must be greater than 0') */\n    tag_373:\n        /* \"Documents/GitHub/Solidity-Contracts/Util/Locker/Simple V2/Locker.sol\":2412:2423  10000000000 */\n      0x02540be400\n        /* \"Documents/GitHub/Solidity-Contracts/Util/Locker/Simple V2/Locker.sol\":2398:2409  _unlockTime */\n      dup4\n        /* \"Documents/GitHub/Solidity-Contracts/Util/Locker/Simple V2/Locker.sol\":2398:2423  _unlockTime < 10000000000 */\n      lt\n        /* \"Documents/GitHub/Solidity-Contracts/Util/Locker/Simple V2/Locker.sol\":2390:2479  require(_unlockTime < 10000000000, 'Unix timestamp must be in seconds, not milliseconds') */\n      tag_376\n      jumpi\n      mload(0x40)\n      shl(0xe5, 0x461bcd)\n      dup2\n      mstore\n      0x04\n      add\n      tag_171\n      swap1\n      tag_181\n      jump\t// in\n    tag_376:\n        /* \"Documents/GitHub/Solidity-Contracts/Util/Locker/Simple V2/Locker.sol\":2511:2535  block.timestamp + 1 days */\n      tag_378\n        /* \"Documents/GitHub/Solidity-Contracts/Util/Locker/Simple V2/Locker.sol\":2511:2526  block.timestamp */\n      timestamp\n        /* \"Documents/GitHub/Solidity-Contracts/Util/Locker/Simple V2/Locker.sol\":2529:2535  1 days */\n      0x015180\n        /* \"Documents/GitHub/Solidity-Contracts/Util/Locker/Simple V2/Locker.sol\":2511:2535  block.timestamp + 1 days */\n      tag_186\n      jump\t// in\n    tag_378:\n        /* \"Documents/GitHub/Solidity-Contracts/Util/Locker/Simple V2/Locker.sol\":2497:2508  _unlockTime */\n      dup4\n        /* \"Documents/GitHub/Solidity-Contracts/Util/Locker/Simple V2/Locker.sol\":2497:2535  _unlockTime > block.timestamp + 1 days */\n      gt\n        /* \"Documents/GitHub/Solidity-Contracts/Util/Locker/Simple V2/Locker.sol\":2489:2579  require(_unlockTime > block.timestamp + 1 days, 'Unlock time must be after atleast 1 day') */\n      tag_379\n      jumpi\n      mload(0x40)\n      shl(0xe5, 0x461bcd)\n      dup2\n      mstore\n        /* \"#utility.yul\":7321:7323   */\n      0x20\n        /* \"Documents/GitHub/Solidity-Contracts/Util/Locker/Simple V2/Locker.sol\":2489:2579  require(_unlockTime > block.timestamp + 1 days, 'Unlock time must be after atleast 1 day') */\n      0x04\n      dup3\n      add\n        /* \"#utility.yul\":7303:7324   */\n      mstore\n        /* \"#utility.yul\":7360:7362   */\n      0x27\n        /* \"#utility.yul\":7340:7358   */\n      0x24\n      dup3\n      add\n        /* \"#utility.yul\":7333:7363   */\n      mstore\n        /* \"#utility.yul\":7399:7433   */\n      0x556e6c6f636b2074696d65206d7573742062652061667465722061746c656173\n        /* \"#utility.yul\":7379:7397   */\n      0x44\n      dup3\n      add\n        /* \"#utility.yul\":7372:7434   */\n      mstore\n      shl(0xc8, 0x74203120646179)\n        /* \"#utility.yul\":7450:7468   */\n      0x64\n      dup3\n      add\n        /* \"#utility.yul\":7443:7480   */\n      mstore\n        /* \"#utility.yul\":7497:7516   */\n      0x84\n      add\n        /* \"Documents/GitHub/Solidity-Contracts/Util/Locker/Simple V2/Locker.sol\":2489:2579  require(_unlockTime > block.timestamp + 1 days, 'Unlock time must be after atleast 1 day') */\n      tag_171\n        /* \"#utility.yul\":7119:7522   */\n      jump\n        /* \"Documents/GitHub/Solidity-Contracts/Util/Locker/Simple V2/Locker.sol\":2489:2579  require(_unlockTime > block.timestamp + 1 days, 'Unlock time must be after atleast 1 day') */\n    tag_379:\n        /* \"Documents/GitHub/Solidity-Contracts/Util/Locker/Simple V2/Locker.sol\":2598:2607  _feeInBnb */\n      dup2\n        /* \"Documents/GitHub/Solidity-Contracts/Util/Locker/Simple V2/Locker.sol\":2597:2607  !_feeInBnb */\n      iszero\n        /* \"Documents/GitHub/Solidity-Contracts/Util/Locker/Simple V2/Locker.sol\":2597:2629  !_feeInBnb || msg.value > bnbFee */\n      dup1\n      tag_382\n      jumpi\n      pop\n        /* \"Documents/GitHub/Solidity-Contracts/Util/Locker/Simple V2/Locker.sol\":2623:2629  bnbFee */\n      sload(0x02)\n        /* \"Documents/GitHub/Solidity-Contracts/Util/Locker/Simple V2/Locker.sol\":2611:2620  msg.value */\n      callvalue\n        /* \"Documents/GitHub/Solidity-Contracts/Util/Locker/Simple V2/Locker.sol\":2611:2629  msg.value > bnbFee */\n      gt\n        /* \"Documents/GitHub/Solidity-Contracts/Util/Locker/Simple V2/Locker.sol\":2597:2629  !_feeInBnb || msg.value > bnbFee */\n    tag_382:\n        /* \"Documents/GitHub/Solidity-Contracts/Util/Locker/Simple V2/Locker.sol\":2589:2654  require(!_feeInBnb || msg.value > bnbFee, 'BNB fee not provided') */\n      tag_383\n      jumpi\n      mload(0x40)\n      shl(0xe5, 0x461bcd)\n      dup2\n      mstore\n        /* \"#utility.yul\":5167:5169   */\n      0x20\n        /* \"Documents/GitHub/Solidity-Contracts/Util/Locker/Simple V2/Locker.sol\":2589:2654  require(!_feeInBnb || msg.value > bnbFee, 'BNB fee not provided') */\n      0x04\n      dup3\n      add\n        /* \"#utility.yul\":5149:5170   */\n      mstore\n        /* \"#utility.yul\":5206:5208   */\n      0x14\n        /* \"#utility.yul\":5186:5204   */\n      0x24\n      dup3\n      add\n        /* \"#utility.yul\":5179:5209   */\n      mstore\n      shl(0x62, 0x10939088199959481b9bdd081c1c9bdd9a591959)\n        /* \"#utility.yul\":5225:5243   */\n      0x44\n      dup3\n      add\n        /* \"#utility.yul\":5218:5268   */\n      mstore\n        /* \"#utility.yul\":5285:5303   */\n      0x64\n      add\n        /* \"Documents/GitHub/Solidity-Contracts/Util/Locker/Simple V2/Locker.sol\":2589:2654  require(!_feeInBnb || msg.value > bnbFee, 'BNB fee not provided') */\n      tag_171\n        /* \"#utility.yul\":4965:5309   */\n      jump\n        /* \"Documents/GitHub/Solidity-Contracts/Util/Locker/Simple V2/Locker.sol\":2589:2654  require(!_feeInBnb || msg.value > bnbFee, 'BNB fee not provided') */\n    tag_383:\n        /* \"Documents/GitHub/Solidity-Contracts/Util/Locker/Simple V2/Locker.sol\":2673:2726  IBEP20(_tokenAddress).approve(address(this), _amount) */\n      mload(0x40)\n      shl(0xe0, 0x095ea7b3)\n      dup2\n      mstore\n        /* \"Documents/GitHub/Solidity-Contracts/Util/Locker/Simple V2/Locker.sol\":2711:2715  this */\n      address\n        /* \"Documents/GitHub/Solidity-Contracts/Util/Locker/Simple V2/Locker.sol\":2673:2726  IBEP20(_tokenAddress).approve(address(this), _amount) */\n      0x04\n      dup3\n      add\n        /* \"#utility.yul\":3030:3081   */\n      mstore\n        /* \"#utility.yul\":3097:3115   */\n      0x24\n      dup2\n      add\n        /* \"#utility.yul\":3090:3124   */\n      dup6\n      swap1\n      mstore\n      sub(shl(0xa0, 0x01), 0x01)\n        /* \"Documents/GitHub/Solidity-Contracts/Util/Locker/Simple V2/Locker.sol\":2673:2702  IBEP20(_tokenAddress).approve */\n      dup7\n      and\n      swap1\n      0x095ea7b3\n      swap1\n        /* \"#utility.yul\":3003:3021   */\n      0x44\n      add\n        /* \"Documents/GitHub/Solidity-Contracts/Util/Locker/Simple V2/Locker.sol\":2673:2726  IBEP20(_tokenAddress).approve(address(this), _amount) */\n      0x20\n      mload(0x40)\n      dup1\n      dup4\n      sub\n      dup2\n      0x00\n      dup8\n      dup1\n      extcodesize\n      iszero\n      dup1\n      iszero\n      tag_387\n      jumpi\n      0x00\n      dup1\n      revert\n    tag_387:\n      pop\n      gas\n      call\n      iszero\n      dup1\n      iszero\n      tag_389\n      jumpi\n      returndatasize\n      0x00\n      dup1\n      returndatacopy\n      revert(0x00, returndatasize)\n    tag_389:\n      pop\n      pop\n      pop\n      pop\n      mload(0x40)\n      returndatasize\n      not(0x1f)\n      0x1f\n      dup3\n      add\n      and\n      dup3\n      add\n      dup1\n      0x40\n      mstore\n      pop\n      dup2\n      add\n      swap1\n      tag_390\n      swap2\n      swap1\n      tag_219\n      jump\t// in\n    tag_390:\n        /* \"Documents/GitHub/Solidity-Contracts/Util/Locker/Simple V2/Locker.sol\":2665:2755  require(IBEP20(_tokenAddress).approve(address(this), _amount), 'Failed to approve tokens') */\n      tag_391\n      jumpi\n      mload(0x40)\n      shl(0xe5, 0x461bcd)\n      dup2\n      mstore\n        /* \"#utility.yul\":10302:10304   */\n      0x20\n        /* \"Documents/GitHub/Solidity-Contracts/Util/Locker/Simple V2/Locker.sol\":2665:2755  require(IBEP20(_tokenAddress).approve(address(this), _amount), 'Failed to approve tokens') */\n      0x04\n      dup3\n      add\n        /* \"#utility.yul\":10284:10305   */\n      mstore\n        /* \"#utility.yul\":10341:10343   */\n      0x18\n        /* \"#utility.yul\":10321:10339   */\n      0x24\n      dup3\n      add\n        /* \"#utility.yul\":10314:10344   */\n      mstore\n        /* \"#utility.yul\":10380:10406   */\n      0x4661696c656420746f20617070726f766520746f6b656e730000000000000000\n        /* \"#utility.yul\":10360:10378   */\n      0x44\n      dup3\n      add\n        /* \"#utility.yul\":10353:10407   */\n      mstore\n        /* \"#utility.yul\":10424:10442   */\n      0x64\n      add\n        /* \"Documents/GitHub/Solidity-Contracts/Util/Locker/Simple V2/Locker.sol\":2665:2755  require(IBEP20(_tokenAddress).approve(address(this), _amount), 'Failed to approve tokens') */\n      tag_171\n        /* \"#utility.yul\":10100:10448   */\n      jump\n        /* \"Documents/GitHub/Solidity-Contracts/Util/Locker/Simple V2/Locker.sol\":2665:2755  require(IBEP20(_tokenAddress).approve(address(this), _amount), 'Failed to approve tokens') */\n    tag_391:\n        /* \"Documents/GitHub/Solidity-Contracts/Util/Locker/Simple V2/Locker.sol\":2773:2843  IBEP20(_tokenAddress).transferFrom(msg.sender, address(this), _amount) */\n      mload(0x40)\n      shl(0xe0, 0x23b872dd)\n      dup2\n      mstore\n        /* \"Documents/GitHub/Solidity-Contracts/Util/Locker/Simple V2/Locker.sol\":2808:2818  msg.sender */\n      caller\n        /* \"Documents/GitHub/Solidity-Contracts/Util/Locker/Simple V2/Locker.sol\":2773:2843  IBEP20(_tokenAddress).transferFrom(msg.sender, address(this), _amount) */\n      0x04\n      dup3\n      add\n        /* \"#utility.yul\":3375:3409   */\n      mstore\n        /* \"Documents/GitHub/Solidity-Contracts/Util/Locker/Simple V2/Locker.sol\":2828:2832  this */\n      address\n        /* \"#utility.yul\":3425:3443   */\n      0x24\n      dup3\n      add\n        /* \"#utility.yul\":3418:3461   */\n      mstore\n        /* \"#utility.yul\":3477:3495   */\n      0x44\n      dup2\n      add\n        /* \"#utility.yul\":3470:3504   */\n      dup6\n      swap1\n      mstore\n      sub(shl(0xa0, 0x01), 0x01)\n        /* \"Documents/GitHub/Solidity-Contracts/Util/Locker/Simple V2/Locker.sol\":2773:2807  IBEP20(_tokenAddress).transferFrom */\n      dup7\n      and\n      swap1\n      0x23b872dd\n      swap1\n        /* \"#utility.yul\":3310:3328   */\n      0x64\n      add\n        /* \"Documents/GitHub/Solidity-Contracts/Util/Locker/Simple V2/Locker.sol\":2773:2843  IBEP20(_tokenAddress).transferFrom(msg.sender, address(this), _amount) */\n      0x20\n      mload(0x40)\n      dup1\n      dup4\n      sub\n      dup2\n      0x00\n      dup8\n      dup1\n      extcodesize\n      iszero\n      dup1\n      iszero\n      tag_396\n      jumpi\n      0x00\n      dup1\n      revert\n    tag_396:\n      pop\n      gas\n      call\n      iszero\n      dup1\n      iszero\n      tag_398\n      jumpi\n      returndatasize\n      0x00\n      dup1\n      returndatacopy\n      revert(0x00, returndatasize)\n    tag_398:\n      pop\n      pop\n      pop\n      pop\n      mload(0x40)\n      returndatasize\n      not(0x1f)\n      0x1f\n      dup3\n      add\n      and\n      dup3\n      add\n      dup1\n      0x40\n      mstore\n      pop\n      dup2\n      add\n      swap1\n      tag_399\n      swap2\n      swap1\n      tag_219\n      jump\t// in\n    tag_399:\n        /* \"Documents/GitHub/Solidity-Contracts/Util/Locker/Simple V2/Locker.sol\":2765:2883  require(IBEP20(_tokenAddress).transferFrom(msg.sender, address(this), _amount), 'Failed to transfer tokens to locker') */\n      tag_400\n      jumpi\n      mload(0x40)\n      shl(0xe5, 0x461bcd)\n      dup2\n      mstore\n        /* \"#utility.yul\":12170:12172   */\n      0x20\n        /* \"Documents/GitHub/Solidity-Contracts/Util/Locker/Simple V2/Locker.sol\":2765:2883  require(IBEP20(_tokenAddress).transferFrom(msg.sender, address(this), _amount), 'Failed to transfer tokens to locker') */\n      0x04\n      dup3\n      add\n        /* \"#utility.yul\":12152:12173   */\n      mstore\n        /* \"#utility.yul\":12209:12211   */\n      0x23\n        /* \"#utility.yul\":12189:12207   */\n      0x24\n      dup3\n      add\n        /* \"#utility.yul\":12182:12212   */\n      mstore\n        /* \"#utility.yul\":12248:12282   */\n      0x4661696c656420746f207472616e7366657220746f6b656e7320746f206c6f63\n        /* \"#utility.yul\":12228:12246   */\n      0x44\n      dup3\n      add\n        /* \"#utility.yul\":12221:12283   */\n      mstore\n      shl(0xe9, 0x35b2b9)\n        /* \"#utility.yul\":12299:12317   */\n      0x64\n      dup3\n      add\n        /* \"#utility.yul\":12292:12325   */\n      mstore\n        /* \"#utility.yul\":12342:12361   */\n      0x84\n      add\n        /* \"Documents/GitHub/Solidity-Contracts/Util/Locker/Simple V2/Locker.sol\":2765:2883  require(IBEP20(_tokenAddress).transferFrom(msg.sender, address(this), _amount), 'Failed to transfer tokens to locker') */\n      tag_171\n        /* \"#utility.yul\":11968:12367   */\n      jump\n        /* \"Documents/GitHub/Solidity-Contracts/Util/Locker/Simple V2/Locker.sol\":2765:2883  require(IBEP20(_tokenAddress).transferFrom(msg.sender, address(this), _amount), 'Failed to transfer tokens to locker') */\n    tag_400:\n        /* \"Documents/GitHub/Solidity-Contracts/Util/Locker/Simple V2/Locker.sol\":2915:2922  _amount */\n      dup4\n        /* \"Documents/GitHub/Solidity-Contracts/Util/Locker/Simple V2/Locker.sol\":2932:3323  if (_feeInBnb) {... */\n      dup3\n      iszero\n      tag_403\n      jumpi\n        /* \"Documents/GitHub/Solidity-Contracts/Util/Locker/Simple V2/Locker.sol\":2977:2986  msg.value */\n      callvalue\n        /* \"Documents/GitHub/Solidity-Contracts/Util/Locker/Simple V2/Locker.sol\":2961:2973  totalBnbFees */\n      0x05\n      0x00\n        /* \"Documents/GitHub/Solidity-Contracts/Util/Locker/Simple V2/Locker.sol\":2961:2986  totalBnbFees += msg.value */\n      dup3\n      dup3\n      sload\n      tag_404\n      swap2\n      swap1\n      tag_186\n      jump\t// in\n    tag_404:\n      swap3\n      pop\n      pop\n      dup2\n      swap1\n      sstore\n      pop\n        /* \"Documents/GitHub/Solidity-Contracts/Util/Locker/Simple V2/Locker.sol\":3020:3029  msg.value */\n      callvalue\n        /* \"Documents/GitHub/Solidity-Contracts/Util/Locker/Simple V2/Locker.sol\":3000:3016  remainingBnbFees */\n      0x06\n      0x00\n        /* \"Documents/GitHub/Solidity-Contracts/Util/Locker/Simple V2/Locker.sol\":3000:3029  remainingBnbFees += msg.value */\n      dup3\n      dup3\n      sload\n      tag_405\n      swap2\n      swap1\n      tag_186\n      jump\t// in\n    tag_405:\n      swap1\n      swap2\n      sstore\n      pop\n        /* \"Documents/GitHub/Solidity-Contracts/Util/Locker/Simple V2/Locker.sol\":2932:3323  if (_feeInBnb) {... */\n      tag_406\n      swap1\n      pop\n      jump\n    tag_403:\n        /* \"Documents/GitHub/Solidity-Contracts/Util/Locker/Simple V2/Locker.sol\":3060:3071  uint256 fee */\n      0x00\n        /* \"Documents/GitHub/Solidity-Contracts/Util/Locker/Simple V2/Locker.sol\":3105:3109  1000 */\n      0x03e8\n        /* \"Documents/GitHub/Solidity-Contracts/Util/Locker/Simple V2/Locker.sol\":3088:3100  lpFeePercent */\n      sload(0x04)\n        /* \"Documents/GitHub/Solidity-Contracts/Util/Locker/Simple V2/Locker.sol\":3075:3085  lockAmount */\n      dup4\n        /* \"Documents/GitHub/Solidity-Contracts/Util/Locker/Simple V2/Locker.sol\":3075:3100  lockAmount * lpFeePercent */\n      tag_407\n      swap2\n      swap1\n      tag_408\n      jump\t// in\n    tag_407:\n        /* \"Documents/GitHub/Solidity-Contracts/Util/Locker/Simple V2/Locker.sol\":3074:3110  (lockAmount * lpFeePercent) / (1000) */\n      tag_409\n      swap2\n      swap1\n      tag_410\n      jump\t// in\n    tag_409:\n        /* \"Documents/GitHub/Solidity-Contracts/Util/Locker/Simple V2/Locker.sol\":3060:3110  uint256 fee = (lockAmount * lpFeePercent) / (1000) */\n      swap1\n      pop\n        /* \"Documents/GitHub/Solidity-Contracts/Util/Locker/Simple V2/Locker.sol\":3124:3141  lockAmount -= fee */\n      tag_411\n        /* \"Documents/GitHub/Solidity-Contracts/Util/Locker/Simple V2/Locker.sol\":3060:3110  uint256 fee = (lockAmount * lpFeePercent) / (1000) */\n      dup2\n        /* \"Documents/GitHub/Solidity-Contracts/Util/Locker/Simple V2/Locker.sol\":3124:3141  lockAmount -= fee */\n      dup4\n      tag_207\n      jump\t// in\n    tag_411:\n      sub(shl(0xa0, 0x01), 0x01)\n        /* \"Documents/GitHub/Solidity-Contracts/Util/Locker/Simple V2/Locker.sol\":3160:3185  tokensFees[_tokenAddress] */\n      dup9\n      and\n      0x00\n      swap1\n      dup2\n      mstore\n        /* \"Documents/GitHub/Solidity-Contracts/Util/Locker/Simple V2/Locker.sol\":3160:3170  tokensFees */\n      0x08\n        /* \"Documents/GitHub/Solidity-Contracts/Util/Locker/Simple V2/Locker.sol\":3160:3185  tokensFees[_tokenAddress] */\n      0x20\n      mstore\n      0x40\n      swap1\n      keccak256\n      sload\n        /* \"Documents/GitHub/Solidity-Contracts/Util/Locker/Simple V2/Locker.sol\":3124:3141  lockAmount -= fee */\n      swap1\n      swap3\n      pop\n        /* \"Documents/GitHub/Solidity-Contracts/Util/Locker/Simple V2/Locker.sol\":3156:3267  if (tokensFees[_tokenAddress] == 0) {... */\n      tag_412\n      jumpi\n        /* \"Documents/GitHub/Solidity-Contracts/Util/Locker/Simple V2/Locker.sol\":3210:3232  tokenAddressesWithFees */\n      0x07\n        /* \"Documents/GitHub/Solidity-Contracts/Util/Locker/Simple V2/Locker.sol\":3210:3252  tokenAddressesWithFees.push(_tokenAddress) */\n      dup1\n      sload\n      0x01\n      dup2\n      add\n      dup3\n      sstore\n      0x00\n      swap2\n      swap1\n      swap2\n      mstore\n      0xa66cc928b5edb82af9bd49922954155ab7b0942694bea4ce44661d9a8736c688\n      add\n      dup1\n      sload\n      not(sub(shl(0xa0, 0x01), 0x01))\n      and\n      sub(shl(0xa0, 0x01), 0x01)\n      dup10\n      and\n      or\n      swap1\n      sstore\n        /* \"Documents/GitHub/Solidity-Contracts/Util/Locker/Simple V2/Locker.sol\":3156:3267  if (tokensFees[_tokenAddress] == 0) {... */\n    tag_412:\n      sub(shl(0xa0, 0x01), 0x01)\n        /* \"Documents/GitHub/Solidity-Contracts/Util/Locker/Simple V2/Locker.sol\":3280:3305  tokensFees[_tokenAddress] */\n      dup8\n      and\n      0x00\n      swap1\n      dup2\n      mstore\n        /* \"Documents/GitHub/Solidity-Contracts/Util/Locker/Simple V2/Locker.sol\":3280:3290  tokensFees */\n      0x08\n        /* \"Documents/GitHub/Solidity-Contracts/Util/Locker/Simple V2/Locker.sol\":3280:3305  tokensFees[_tokenAddress] */\n      0x20\n      mstore\n      0x40\n      dup2\n      keccak256\n        /* \"Documents/GitHub/Solidity-Contracts/Util/Locker/Simple V2/Locker.sol\":3280:3312  tokensFees[_tokenAddress] += fee */\n      dup1\n      sload\n        /* \"Documents/GitHub/Solidity-Contracts/Util/Locker/Simple V2/Locker.sol\":3309:3312  fee */\n      dup4\n      swap3\n        /* \"Documents/GitHub/Solidity-Contracts/Util/Locker/Simple V2/Locker.sol\":3280:3305  tokensFees[_tokenAddress] */\n      swap1\n        /* \"Documents/GitHub/Solidity-Contracts/Util/Locker/Simple V2/Locker.sol\":3280:3312  tokensFees[_tokenAddress] += fee */\n      tag_414\n      swap1\n        /* \"Documents/GitHub/Solidity-Contracts/Util/Locker/Simple V2/Locker.sol\":3309:3312  fee */\n      dup5\n      swap1\n        /* \"Documents/GitHub/Solidity-Contracts/Util/Locker/Simple V2/Locker.sol\":3280:3312  tokensFees[_tokenAddress] += fee */\n      tag_186\n      jump\t// in\n    tag_414:\n      swap1\n      swap2\n      sstore\n      pop\n      pop\n      pop\n        /* \"Documents/GitHub/Solidity-Contracts/Util/Locker/Simple V2/Locker.sol\":2932:3323  if (_feeInBnb) {... */\n    tag_406:\n      sub(shl(0xa0, 0x01), 0x01)\n        /* \"Documents/GitHub/Solidity-Contracts/Util/Locker/Simple V2/Locker.sol\":3333:3366  walletTokenBalance[_tokenAddress] */\n      dup7\n      and\n      0x00\n      swap1\n      dup2\n      mstore\n        /* \"Documents/GitHub/Solidity-Contracts/Util/Locker/Simple V2/Locker.sol\":3333:3351  walletTokenBalance */\n      0x0e\n        /* \"Documents/GitHub/Solidity-Contracts/Util/Locker/Simple V2/Locker.sol\":3333:3366  walletTokenBalance[_tokenAddress] */\n      0x20\n      swap1\n      dup2\n      mstore\n      0x40\n      dup1\n      dup4\n      keccak256\n        /* \"Documents/GitHub/Solidity-Contracts/Util/Locker/Simple V2/Locker.sol\":3367:3377  msg.sender */\n      caller\n        /* \"Documents/GitHub/Solidity-Contracts/Util/Locker/Simple V2/Locker.sol\":3333:3378  walletTokenBalance[_tokenAddress][msg.sender] */\n      dup5\n      mstore\n      swap1\n      swap2\n      mstore\n      dup2\n      keccak256\n        /* \"Documents/GitHub/Solidity-Contracts/Util/Locker/Simple V2/Locker.sol\":3333:3389  walletTokenBalance[_tokenAddress][msg.sender] += _amount */\n      dup1\n      sload\n        /* \"Documents/GitHub/Solidity-Contracts/Util/Locker/Simple V2/Locker.sol\":3382:3389  _amount */\n      dup8\n      swap3\n        /* \"Documents/GitHub/Solidity-Contracts/Util/Locker/Simple V2/Locker.sol\":3333:3366  walletTokenBalance[_tokenAddress] */\n      swap1\n        /* \"Documents/GitHub/Solidity-Contracts/Util/Locker/Simple V2/Locker.sol\":3333:3389  walletTokenBalance[_tokenAddress][msg.sender] += _amount */\n      tag_415\n      swap1\n        /* \"Documents/GitHub/Solidity-Contracts/Util/Locker/Simple V2/Locker.sol\":3382:3389  _amount */\n      dup5\n      swap1\n        /* \"Documents/GitHub/Solidity-Contracts/Util/Locker/Simple V2/Locker.sol\":3333:3389  walletTokenBalance[_tokenAddress][msg.sender] += _amount */\n      tag_186\n      jump\t// in\n    tag_415:\n      swap1\n      swap2\n      sstore\n      pop\n      pop\n        /* \"Documents/GitHub/Solidity-Contracts/Util/Locker/Simple V2/Locker.sol\":3457:3466  depositId */\n      0x09\n        /* \"Documents/GitHub/Solidity-Contracts/Util/Locker/Simple V2/Locker.sol\":3455:3466  ++depositId */\n      dup1\n      sload\n        /* \"Documents/GitHub/Solidity-Contracts/Util/Locker/Simple V2/Locker.sol\":3429:3439  msg.sender */\n      caller\n      swap2\n        /* \"Documents/GitHub/Solidity-Contracts/Util/Locker/Simple V2/Locker.sol\":3457:3466  depositId */\n      swap1\n        /* \"Documents/GitHub/Solidity-Contracts/Util/Locker/Simple V2/Locker.sol\":3400:3426  address _withdrawalAddress */\n      0x00\n      swap1\n        /* \"Documents/GitHub/Solidity-Contracts/Util/Locker/Simple V2/Locker.sol\":3455:3466  ++depositId */\n      tag_416\n      swap1\n      tag_225\n      jump\t// in\n    tag_416:\n      swap2\n      dup3\n      swap1\n      sstore\n      pop\n        /* \"Documents/GitHub/Solidity-Contracts/Util/Locker/Simple V2/Locker.sol\":3476:3492  lockedToken[_id] */\n      0x00\n      dup2\n      dup2\n      mstore\n        /* \"Documents/GitHub/Solidity-Contracts/Util/Locker/Simple V2/Locker.sol\":3476:3487  lockedToken */\n      0x0b\n        /* \"Documents/GitHub/Solidity-Contracts/Util/Locker/Simple V2/Locker.sol\":3476:3492  lockedToken[_id] */\n      0x20\n      swap1\n      dup2\n      mstore\n      0x40\n      dup1\n      dup4\n      keccak256\n        /* \"Documents/GitHub/Solidity-Contracts/Util/Locker/Simple V2/Locker.sol\":3476:3521  lockedToken[_id].tokenAddress = _tokenAddress */\n      dup1\n      sload\n      sub(shl(0xa0, 0x01), 0x01)\n      dup14\n      dup2\n      and\n      not(sub(shl(0xa0, 0x01), 0x01))\n      swap3\n      dup4\n      and\n      dup2\n      or\n      dup5\n      sstore\n      0x01\n        /* \"Documents/GitHub/Solidity-Contracts/Util/Locker/Simple V2/Locker.sol\":3531:3565  lockedToken[_id].withdrawalAddress */\n      dup1\n      dup6\n      add\n        /* \"Documents/GitHub/Solidity-Contracts/Util/Locker/Simple V2/Locker.sol\":3531:3586  lockedToken[_id].withdrawalAddress = _withdrawalAddress */\n      dup1\n      sload\n      swap4\n      dup12\n      and\n      swap4\n      swap1\n      swap5\n      and\n      dup4\n      or\n      swap1\n      swap4\n      sstore\n        /* \"Documents/GitHub/Solidity-Contracts/Util/Locker/Simple V2/Locker.sol\":3596:3624  lockedToken[_id].tokenAmount */\n      0x02\n      dup5\n      add\n        /* \"Documents/GitHub/Solidity-Contracts/Util/Locker/Simple V2/Locker.sol\":3596:3637  lockedToken[_id].tokenAmount = lockAmount */\n      dup11\n      swap1\n      sstore\n        /* \"Documents/GitHub/Solidity-Contracts/Util/Locker/Simple V2/Locker.sol\":3647:3674  lockedToken[_id].unlockTime */\n      0x03\n      dup5\n      add\n        /* \"Documents/GitHub/Solidity-Contracts/Util/Locker/Simple V2/Locker.sol\":3647:3688  lockedToken[_id].unlockTime = _unlockTime */\n      dup14\n      swap1\n      sstore\n        /* \"Documents/GitHub/Solidity-Contracts/Util/Locker/Simple V2/Locker.sol\":3698:3724  lockedToken[_id].withdrawn */\n      0x04\n      swap1\n      swap4\n      add\n        /* \"Documents/GitHub/Solidity-Contracts/Util/Locker/Simple V2/Locker.sol\":3698:3732  lockedToken[_id].withdrawn = false */\n      dup1\n      sload\n      not(0xff)\n      and\n      swap1\n      sstore\n        /* \"Documents/GitHub/Solidity-Contracts/Util/Locker/Simple V2/Locker.sol\":3743:3756  allDepositIds */\n      0x0a\n        /* \"Documents/GitHub/Solidity-Contracts/Util/Locker/Simple V2/Locker.sol\":3743:3766  allDepositIds.push(_id) */\n      dup1\n      sload\n      dup1\n      dup5\n      add\n      swap1\n      swap2\n      sstore\n      0xc65a7bb8d6351c1cf70c95a316cc6a92839c986682d98bc35f958f4883f9d2a8\n      add\n      dup8\n      swap1\n      sstore\n        /* \"Documents/GitHub/Solidity-Contracts/Util/Locker/Simple V2/Locker.sol\":3776:3823  depositsByWithdrawalAddress[_withdrawalAddress] */\n      dup6\n      mstore\n        /* \"Documents/GitHub/Solidity-Contracts/Util/Locker/Simple V2/Locker.sol\":3776:3803  depositsByWithdrawalAddress */\n      0x0c\n        /* \"Documents/GitHub/Solidity-Contracts/Util/Locker/Simple V2/Locker.sol\":3776:3823  depositsByWithdrawalAddress[_withdrawalAddress] */\n      dup5\n      mstore\n      dup3\n      dup6\n      keccak256\n        /* \"Documents/GitHub/Solidity-Contracts/Util/Locker/Simple V2/Locker.sol\":3776:3833  depositsByWithdrawalAddress[_withdrawalAddress].push(_id) */\n      dup1\n      sload\n      dup1\n      dup4\n      add\n      dup3\n      sstore\n      swap1\n      dup7\n      mstore\n      dup5\n      dup7\n      keccak256\n      add\n      dup7\n      swap1\n      sstore\n        /* \"Documents/GitHub/Solidity-Contracts/Util/Locker/Simple V2/Locker.sol\":3843:3880  depositsByTokenAddress[_tokenAddress] */\n      dup2\n      dup6\n      mstore\n        /* \"Documents/GitHub/Solidity-Contracts/Util/Locker/Simple V2/Locker.sol\":3843:3865  depositsByTokenAddress */\n      0x0d\n        /* \"Documents/GitHub/Solidity-Contracts/Util/Locker/Simple V2/Locker.sol\":3843:3880  depositsByTokenAddress[_tokenAddress] */\n      dup5\n      mstore\n      dup3\n      dup6\n      keccak256\n        /* \"Documents/GitHub/Solidity-Contracts/Util/Locker/Simple V2/Locker.sol\":3843:3890  depositsByTokenAddress[_tokenAddress].push(_id) */\n      dup1\n      sload\n      swap2\n      dup3\n      add\n      dup2\n      sstore\n      dup6\n      mstore\n      swap4\n      dup4\n      swap1\n      keccak256\n      swap1\n      swap4\n      add\n      dup5\n      swap1\n      sstore\n        /* \"Documents/GitHub/Solidity-Contracts/Util/Locker/Simple V2/Locker.sol\":3968:3977  depositId */\n      sload(0x09)\n        /* \"Documents/GitHub/Solidity-Contracts/Util/Locker/Simple V2/Locker.sol\":3906:3978  TokensLocked(_tokenAddress, msg.sender, _amount, _unlockTime, depositId) */\n      dup2\n      mload\n        /* \"#utility.yul\":13009:13034   */\n      dup12\n      dup2\n      mstore\n        /* \"#utility.yul\":13050:13068   */\n      swap3\n      dup4\n      add\n        /* \"#utility.yul\":13043:13077   */\n      dup11\n      swap1\n      mstore\n        /* \"#utility.yul\":13093:13111   */\n      swap1\n      dup3\n      add\n        /* \"#utility.yul\":13086:13120   */\n      mstore\n        /* \"Documents/GitHub/Solidity-Contracts/Util/Locker/Simple V2/Locker.sol\":3455:3466  ++depositId */\n      swap2\n      swap5\n      pop\n        /* \"Documents/GitHub/Solidity-Contracts/Util/Locker/Simple V2/Locker.sol\":3934:3944  msg.sender */\n      caller\n      swap2\n        /* \"Documents/GitHub/Solidity-Contracts/Util/Locker/Simple V2/Locker.sol\":3906:3978  TokensLocked(_tokenAddress, msg.sender, _amount, _unlockTime, depositId) */\n      0xa6782d3322abbfbe850e6d5c5c78e8e1df603ea07608bb9a62dd83f40d4feccc\n      swap1\n        /* \"#utility.yul\":12997:12999   */\n      0x60\n        /* \"#utility.yul\":12982:13000   */\n      add\n        /* \"Documents/GitHub/Solidity-Contracts/Util/Locker/Simple V2/Locker.sol\":3906:3978  TokensLocked(_tokenAddress, msg.sender, _amount, _unlockTime, depositId) */\n      mload(0x40)\n      dup1\n      swap2\n      sub\n      swap1\n      log3\n        /* \"Documents/GitHub/Solidity-Contracts/Util/Locker/Simple V2/Locker.sol\":2310:3985  {... */\n      pop\n      pop\n        /* \"Documents/GitHub/Solidity-Contracts/Util/Locker/Simple V2/Locker.sol\":2136:3985  function lockTokens(... */\n      swap5\n      swap4\n      pop\n      pop\n      pop\n      pop\n      jump\t// out\n        /* \"Documents/GitHub/Solidity-Contracts/Util/Locker/Simple V2/Ownable.sol\":1976:2216  function transferOwnership(address newOwner) public virtual onlyOwner {... */\n    tag_168:\n        /* \"Documents/GitHub/Solidity-Contracts/Util/Locker/Simple V2/Ownable.sol\":1263:1269  _owner */\n      and(sub(shl(0xa0, 0x01), 0x01), sload(0x00))\n        /* \"Documents/GitHub/Solidity-Contracts/Util/Locker/Simple V2/Context.sol\":184:194  msg.sender */\n      caller\n        /* \"Documents/GitHub/Solidity-Contracts/Util/Locker/Simple V2/Ownable.sol\":1263:1285  _owner == _msgSender() */\n      eq\n        /* \"Documents/GitHub/Solidity-Contracts/Util/Locker/Simple V2/Ownable.sol\":1255:1322  require(_owner == _msgSender(), \"Ownable: caller is not the owner\") */\n      tag_424\n      jumpi\n      mload(0x40)\n      shl(0xe5, 0x461bcd)\n      dup2\n      mstore\n      0x04\n      add\n      tag_171\n      swap1\n      tag_198\n      jump\t// in\n    tag_424:\n      sub(shl(0xa0, 0x01), 0x01)\n        /* \"Documents/GitHub/Solidity-Contracts/Util/Locker/Simple V2/Ownable.sol\":2064:2086  newOwner != address(0) */\n      dup2\n      and\n        /* \"Documents/GitHub/Solidity-Contracts/Util/Locker/Simple V2/Ownable.sol\":2056:2129  require(newOwner != address(0), \"Ownable: new owner is the zero address\") */\n      tag_427\n      jumpi\n      mload(0x40)\n      shl(0xe5, 0x461bcd)\n      dup2\n      mstore\n        /* \"#utility.yul\":5870:5872   */\n      0x20\n        /* \"Documents/GitHub/Solidity-Contracts/Util/Locker/Simple V2/Ownable.sol\":2056:2129  require(newOwner != address(0), \"Ownable: new owner is the zero address\") */\n      0x04\n      dup3\n      add\n        /* \"#utility.yul\":5852:5873   */\n      mstore\n        /* \"#utility.yul\":5909:5911   */\n      0x26\n        /* \"#utility.yul\":5889:5907   */\n      0x24\n      dup3\n      add\n        /* \"#utility.yul\":5882:5912   */\n      mstore\n        /* \"#utility.yul\":5948:5982   */\n      0x4f776e61626c653a206e6577206f776e657220697320746865207a65726f2061\n        /* \"#utility.yul\":5928:5946   */\n      0x44\n      dup3\n      add\n        /* \"#utility.yul\":5921:5983   */\n      mstore\n      shl(0xd0, 0x646472657373)\n        /* \"#utility.yul\":5999:6017   */\n      0x64\n      dup3\n      add\n        /* \"#utility.yul\":5992:6028   */\n      mstore\n        /* \"#utility.yul\":6045:6064   */\n      0x84\n      add\n        /* \"Documents/GitHub/Solidity-Contracts/Util/Locker/Simple V2/Ownable.sol\":2056:2129  require(newOwner != address(0), \"Ownable: new owner is the zero address\") */\n      tag_171\n        /* \"#utility.yul\":5668:6070   */\n      jump\n        /* \"Documents/GitHub/Solidity-Contracts/Util/Locker/Simple V2/Ownable.sol\":2056:2129  require(newOwner != address(0), \"Ownable: new owner is the zero address\") */\n    tag_427:\n        /* \"Documents/GitHub/Solidity-Contracts/Util/Locker/Simple V2/Ownable.sol\":2165:2171  _owner */\n      0x00\n      dup1\n      sload\n        /* \"Documents/GitHub/Solidity-Contracts/Util/Locker/Simple V2/Ownable.sol\":2144:2182  OwnershipTransferred(_owner, newOwner) */\n      mload(0x40)\n      sub(shl(0xa0, 0x01), 0x01)\n      dup1\n      dup6\n      and\n      swap4\n        /* \"Documents/GitHub/Solidity-Contracts/Util/Locker/Simple V2/Ownable.sol\":2165:2171  _owner */\n      swap3\n      and\n      swap2\n        /* \"Documents/GitHub/Solidity-Contracts/Util/Locker/Simple V2/Ownable.sol\":2144:2182  OwnershipTransferred(_owner, newOwner) */\n      0x8be0079c531659141344cd1fd0a4f28419497f9722a3daafe3b4186f6b6457e0\n      swap2\n      log3\n        /* \"Documents/GitHub/Solidity-Contracts/Util/Locker/Simple V2/Ownable.sol\":2192:2198  _owner */\n      0x00\n        /* \"Documents/GitHub/Solidity-Contracts/Util/Locker/Simple V2/Ownable.sol\":2192:2209  _owner = newOwner */\n      dup1\n      sload\n      not(sub(shl(0xa0, 0x01), 0x01))\n      and\n      sub(shl(0xa0, 0x01), 0x01)\n      swap3\n      swap1\n      swap3\n      and\n      swap2\n      swap1\n      swap2\n      or\n      swap1\n      sstore\n        /* \"Documents/GitHub/Solidity-Contracts/Util/Locker/Simple V2/Ownable.sol\":1976:2216  function transferOwnership(address newOwner) public virtual onlyOwner {... */\n      jump\t// out\n    tag_231:\n      dup3\n      dup1\n      sload\n      dup3\n      dup3\n      sstore\n      swap1\n      0x00\n      mstore\n      keccak256(0x00, 0x20)\n      swap1\n      dup2\n      add\n      swap3\n      dup3\n      iszero\n      tag_433\n      jumpi\n      swap2\n      0x20\n      mul\n      dup3\n      add\n    tag_432:\n      dup3\n      dup2\n      gt\n      iszero\n      tag_433\n      jumpi\n      dup3\n      mload\n      dup3\n      sload\n      not(sub(shl(0xa0, 0x01), 0x01))\n      and\n      sub(shl(0xa0, 0x01), 0x01)\n      swap1\n      swap2\n      and\n      or\n      dup3\n      sstore\n      0x20\n      swap1\n      swap3\n      add\n      swap2\n      0x01\n      swap1\n      swap2\n      add\n      swap1\n      jump(tag_432)\n    tag_433:\n      pop\n      tag_434\n      swap3\n      swap2\n      pop\n      tag_435\n      jump\t// in\n    tag_434:\n      pop\n      swap1\n      jump\t// out\n    tag_280:\n      dup3\n      dup1\n      sload\n      dup3\n      dup3\n      sstore\n      swap1\n      0x00\n      mstore\n      keccak256(0x00, 0x20)\n      swap1\n      dup2\n      add\n      swap3\n      dup3\n      iszero\n      tag_433\n      jumpi\n      swap2\n      0x20\n      mul\n      dup3\n      add\n    tag_437:\n      dup3\n      dup2\n      gt\n      iszero\n      tag_433\n      jumpi\n      dup3\n      mload\n      dup3\n      sstore\n      swap2\n      0x20\n      add\n      swap2\n      swap1\n      0x01\n      add\n      swap1\n      jump(tag_437)\n    tag_435:\n    tag_440:\n      dup1\n      dup3\n      gt\n      iszero\n      tag_434\n      jumpi\n      0x00\n      dup2\n      sstore\n      0x01\n      add\n      jump(tag_440)\n        /* \"#utility.yul\":14:261   */\n    tag_49:\n        /* \"#utility.yul\":73:79   */\n      0x00\n        /* \"#utility.yul\":126:128   */\n      0x20\n        /* \"#utility.yul\":114:123   */\n      dup3\n        /* \"#utility.yul\":105:112   */\n      dup5\n        /* \"#utility.yul\":101:124   */\n      sub\n        /* \"#utility.yul\":97:129   */\n      slt\n        /* \"#utility.yul\":94:146   */\n      iszero\n      tag_444\n      jumpi\n        /* \"#utility.yul\":142:143   */\n      0x00\n        /* \"#utility.yul\":139:140   */\n      dup1\n        /* \"#utility.yul\":132:144   */\n      revert\n        /* \"#utility.yul\":94:146   */\n    tag_444:\n        /* \"#utility.yul\":181:190   */\n      dup2\n        /* \"#utility.yul\":168:191   */\n      calldataload\n        /* \"#utility.yul\":200:231   */\n      tag_445\n        /* \"#utility.yul\":225:230   */\n      dup2\n        /* \"#utility.yul\":200:231   */\n      tag_446\n      jump\t// in\n    tag_445:\n        /* \"#utility.yul\":250:255   */\n      swap4\n        /* \"#utility.yul\":14:261   */\n      swap3\n      pop\n      pop\n      pop\n      jump\t// out\n        /* \"#utility.yul\":526:914   */\n    tag_75:\n        /* \"#utility.yul\":594:600   */\n      0x00\n        /* \"#utility.yul\":602:608   */\n      dup1\n        /* \"#utility.yul\":655:657   */\n      0x40\n        /* \"#utility.yul\":643:652   */\n      dup4\n        /* \"#utility.yul\":634:641   */\n      dup6\n        /* \"#utility.yul\":630:653   */\n      sub\n        /* \"#utility.yul\":626:658   */\n      slt\n        /* \"#utility.yul\":623:675   */\n      iszero\n      tag_451\n      jumpi\n        /* \"#utility.yul\":671:672   */\n      0x00\n        /* \"#utility.yul\":668:669   */\n      dup1\n        /* \"#utility.yul\":661:673   */\n      revert\n        /* \"#utility.yul\":623:675   */\n    tag_451:\n        /* \"#utility.yul\":710:719   */\n      dup3\n        /* \"#utility.yul\":697:720   */\n      calldataload\n        /* \"#utility.yul\":729:760   */\n      tag_452\n        /* \"#utility.yul\":754:759   */\n      dup2\n        /* \"#utility.yul\":729:760   */\n      tag_446\n      jump\t// in\n    tag_452:\n        /* \"#utility.yul\":779:784   */\n      swap2\n      pop\n        /* \"#utility.yul\":836:838   */\n      0x20\n        /* \"#utility.yul\":821:839   */\n      dup4\n      add\n        /* \"#utility.yul\":808:840   */\n      calldataload\n        /* \"#utility.yul\":849:882   */\n      tag_453\n        /* \"#utility.yul\":808:840   */\n      dup2\n        /* \"#utility.yul\":849:882   */\n      tag_446\n      jump\t// in\n    tag_453:\n        /* \"#utility.yul\":901:908   */\n      dup1\n        /* \"#utility.yul\":891:908   */\n      swap2\n      pop\n      pop\n        /* \"#utility.yul\":526:914   */\n      swap3\n      pop\n      swap3\n      swap1\n      pop\n      jump\t// out\n        /* \"#utility.yul\":919:1234   */\n    tag_81:\n        /* \"#utility.yul\":987:993   */\n      0x00\n        /* \"#utility.yul\":995:1001   */\n      dup1\n        /* \"#utility.yul\":1048:1050   */\n      0x40\n        /* \"#utility.yul\":1036:1045   */\n      dup4\n        /* \"#utility.yul\":1027:1034   */\n      dup6\n        /* \"#utility.yul\":1023:1046   */\n      sub\n        /* \"#utility.yul\":1019:1051   */\n      slt\n        /* \"#utility.yul\":1016:1068   */\n      iszero\n      tag_455\n      jumpi\n        /* \"#utility.yul\":1064:1065   */\n      0x00\n        /* \"#utility.yul\":1061:1062   */\n      dup1\n        /* \"#utility.yul\":1054:1066   */\n      revert\n        /* \"#utility.yul\":1016:1068   */\n    tag_455:\n        /* \"#utility.yul\":1103:1112   */\n      dup3\n        /* \"#utility.yul\":1090:1113   */\n      calldataload\n        /* \"#utility.yul\":1122:1153   */\n      tag_456\n        /* \"#utility.yul\":1147:1152   */\n      dup2\n        /* \"#utility.yul\":1122:1153   */\n      tag_446\n      jump\t// in\n    tag_456:\n        /* \"#utility.yul\":1172:1177   */\n      swap5\n        /* \"#utility.yul\":1224:1226   */\n      0x20\n        /* \"#utility.yul\":1209:1227   */\n      swap4\n      swap1\n      swap4\n      add\n        /* \"#utility.yul\":1196:1228   */\n      calldataload\n      swap4\n      pop\n      pop\n      pop\n        /* \"#utility.yul\":919:1234   */\n      jump\t// out\n        /* \"#utility.yul\":1239:1758   */\n    tag_158:\n        /* \"#utility.yul\":1322:1328   */\n      0x00\n        /* \"#utility.yul\":1330:1336   */\n      dup1\n        /* \"#utility.yul\":1338:1344   */\n      0x00\n        /* \"#utility.yul\":1346:1352   */\n      dup1\n        /* \"#utility.yul\":1399:1402   */\n      0x80\n        /* \"#utility.yul\":1387:1396   */\n      dup6\n        /* \"#utility.yul\":1378:1385   */\n      dup8\n        /* \"#utility.yul\":1374:1397   */\n      sub\n        /* \"#utility.yul\":1370:1403   */\n      slt\n        /* \"#utility.yul\":1367:1420   */\n      iszero\n      tag_458\n      jumpi\n        /* \"#utility.yul\":1416:1417   */\n      0x00\n        /* \"#utility.yul\":1413:1414   */\n      dup1\n        /* \"#utility.yul\":1406:1418   */\n      revert\n        /* \"#utility.yul\":1367:1420   */\n    tag_458:\n        /* \"#utility.yul\":1455:1464   */\n      dup5\n        /* \"#utility.yul\":1442:1465   */\n      calldataload\n        /* \"#utility.yul\":1474:1505   */\n      tag_459\n        /* \"#utility.yul\":1499:1504   */\n      dup2\n        /* \"#utility.yul\":1474:1505   */\n      tag_446\n      jump\t// in\n    tag_459:\n        /* \"#utility.yul\":1524:1529   */\n      swap4\n      pop\n        /* \"#utility.yul\":1576:1578   */\n      0x20\n        /* \"#utility.yul\":1561:1579   */\n      dup6\n      add\n        /* \"#utility.yul\":1548:1580   */\n      calldataload\n      swap3\n      pop\n        /* \"#utility.yul\":1627:1629   */\n      0x40\n        /* \"#utility.yul\":1612:1630   */\n      dup6\n      add\n        /* \"#utility.yul\":1599:1631   */\n      calldataload\n      swap2\n      pop\n        /* \"#utility.yul\":1683:1685   */\n      0x60\n        /* \"#utility.yul\":1668:1686   */\n      dup6\n      add\n        /* \"#utility.yul\":1655:1687   */\n      calldataload\n        /* \"#utility.yul\":1696:1726   */\n      tag_460\n        /* \"#utility.yul\":1655:1687   */\n      dup2\n        /* \"#utility.yul\":1696:1726   */\n      tag_461\n      jump\t// in\n    tag_460:\n        /* \"#utility.yul\":1239:1758   */\n      swap4\n      swap7\n      swap3\n      swap6\n      pop\n      swap1\n      swap4\n      pop\n      pop\n      jump\t// out\n        /* \"#utility.yul\":1763:2008   */\n    tag_219:\n        /* \"#utility.yul\":1830:1836   */\n      0x00\n        /* \"#utility.yul\":1883:1885   */\n      0x20\n        /* \"#utility.yul\":1871:1880   */\n      dup3\n        /* \"#utility.yul\":1862:1869   */\n      dup5\n        /* \"#utility.yul\":1858:1881   */\n      sub\n        /* \"#utility.yul\":1854:1886   */\n      slt\n        /* \"#utility.yul\":1851:1903   */\n      iszero\n      tag_463\n      jumpi\n        /* \"#utility.yul\":1899:1900   */\n      0x00\n        /* \"#utility.yul\":1896:1897   */\n      dup1\n        /* \"#utility.yul\":1889:1901   */\n      revert\n        /* \"#utility.yul\":1851:1903   */\n    tag_463:\n        /* \"#utility.yul\":1931:1940   */\n      dup2\n        /* \"#utility.yul\":1925:1941   */\n      mload\n        /* \"#utility.yul\":1950:1978   */\n      tag_445\n        /* \"#utility.yul\":1972:1977   */\n      dup2\n        /* \"#utility.yul\":1950:1978   */\n      tag_461\n      jump\t// in\n        /* \"#utility.yul\":2013:2193   */\n    tag_70:\n        /* \"#utility.yul\":2072:2078   */\n      0x00\n        /* \"#utility.yul\":2125:2127   */\n      0x20\n        /* \"#utility.yul\":2113:2122   */\n      dup3\n        /* \"#utility.yul\":2104:2111   */\n      dup5\n        /* \"#utility.yul\":2100:2123   */\n      sub\n        /* \"#utility.yul\":2096:2128   */\n      slt\n        /* \"#utility.yul\":2093:2145   */\n      iszero\n      tag_466\n      jumpi\n        /* \"#utility.yul\":2141:2142   */\n      0x00\n        /* \"#utility.yul\":2138:2139   */\n      dup1\n        /* \"#utility.yul\":2131:2143   */\n      revert\n        /* \"#utility.yul\":2093:2145   */\n    tag_466:\n      pop\n        /* \"#utility.yul\":2164:2187   */\n      calldataload\n      swap2\n        /* \"#utility.yul\":2013:2193   */\n      swap1\n      pop\n      jump\t// out\n        /* \"#utility.yul\":2198:2382   */\n    tag_358:\n        /* \"#utility.yul\":2268:2274   */\n      0x00\n        /* \"#utility.yul\":2321:2323   */\n      0x20\n        /* \"#utility.yul\":2309:2318   */\n      dup3\n        /* \"#utility.yul\":2300:2307   */\n      dup5\n        /* \"#utility.yul\":2296:2319   */\n      sub\n        /* \"#utility.yul\":2292:2324   */\n      slt\n        /* \"#utility.yul\":2289:2341   */\n      iszero\n      tag_468\n      jumpi\n        /* \"#utility.yul\":2337:2338   */\n      0x00\n        /* \"#utility.yul\":2334:2335   */\n      dup1\n        /* \"#utility.yul\":2327:2339   */\n      revert\n        /* \"#utility.yul\":2289:2341   */\n    tag_468:\n      pop\n        /* \"#utility.yul\":2360:2376   */\n      mload\n      swap2\n        /* \"#utility.yul\":2198:2382   */\n      swap1\n      pop\n      jump\t// out\n        /* \"#utility.yul\":2387:2635   */\n    tag_39:\n        /* \"#utility.yul\":2455:2461   */\n      0x00\n        /* \"#utility.yul\":2463:2469   */\n      dup1\n        /* \"#utility.yul\":2516:2518   */\n      0x40\n        /* \"#utility.yul\":2504:2513   */\n      dup4\n        /* \"#utility.yul\":2495:2502   */\n      dup6\n        /* \"#utility.yul\":2491:2514   */\n      sub\n        /* \"#utility.yul\":2487:2519   */\n      slt\n        /* \"#utility.yul\":2484:2536   */\n      iszero\n      tag_470\n      jumpi\n        /* \"#utility.yul\":2532:2533   */\n      0x00\n        /* \"#utility.yul\":2529:2530   */\n      dup1\n        /* \"#utility.yul\":2522:2534   */\n      revert\n        /* \"#utility.yul\":2484:2536   */\n    tag_470:\n      pop\n      pop\n        /* \"#utility.yul\":2555:2578   */\n      dup1\n      calldataload\n      swap3\n        /* \"#utility.yul\":2625:2627   */\n      0x20\n        /* \"#utility.yul\":2610:2628   */\n      swap1\n      swap2\n      add\n        /* \"#utility.yul\":2597:2629   */\n      calldataload\n      swap2\n      pop\n        /* \"#utility.yul\":2387:2635   */\n      jump\t// out\n        /* \"#utility.yul\":4328:4960   */\n    tag_52:\n        /* \"#utility.yul\":4499:4501   */\n      0x20\n        /* \"#utility.yul\":4551:4572   */\n      dup1\n      dup3\n      mstore\n        /* \"#utility.yul\":4621:4634   */\n      dup3\n      mload\n        /* \"#utility.yul\":4524:4542   */\n      dup3\n      dup3\n      add\n        /* \"#utility.yul\":4643:4665   */\n      dup2\n      swap1\n      mstore\n        /* \"#utility.yul\":4470:4474   */\n      0x00\n      swap2\n        /* \"#utility.yul\":4499:4501   */\n      swap1\n        /* \"#utility.yul\":4722:4737   */\n      dup5\n      dup3\n      add\n      swap1\n        /* \"#utility.yul\":4696:4698   */\n      0x40\n        /* \"#utility.yul\":4681:4699   */\n      dup6\n      add\n      swap1\n        /* \"#utility.yul\":4470:4474   */\n      dup5\n        /* \"#utility.yul\":4765:4934   */\n    tag_477:\n        /* \"#utility.yul\":4779:4785   */\n      dup2\n        /* \"#utility.yul\":4776:4777   */\n      dup2\n        /* \"#utility.yul\":4773:4786   */\n      lt\n        /* \"#utility.yul\":4765:4934   */\n      iszero\n      tag_479\n      jumpi\n        /* \"#utility.yul\":4840:4853   */\n      dup4\n      mload\n        /* \"#utility.yul\":4828:4854   */\n      dup4\n      mstore\n        /* \"#utility.yul\":4909:4924   */\n      swap3\n      dup5\n      add\n      swap3\n        /* \"#utility.yul\":4874:4886   */\n      swap2\n      dup5\n      add\n      swap2\n        /* \"#utility.yul\":4801:4802   */\n      0x01\n        /* \"#utility.yul\":4794:4803   */\n      add\n        /* \"#utility.yul\":4765:4934   */\n      jump(tag_477)\n    tag_479:\n      pop\n        /* \"#utility.yul\":4951:4954   */\n      swap1\n      swap7\n        /* \"#utility.yul\":4328:4960   */\n      swap6\n      pop\n      pop\n      pop\n      pop\n      pop\n      pop\n      jump\t// out\n        /* \"#utility.yul\":8281:8691   */\n    tag_178:\n        /* \"#utility.yul\":8483:8485   */\n      0x20\n        /* \"#utility.yul\":8465:8486   */\n      dup1\n      dup3\n      mstore\n        /* \"#utility.yul\":8522:8524   */\n      0x2e\n        /* \"#utility.yul\":8502:8520   */\n      swap1\n      dup3\n      add\n        /* \"#utility.yul\":8495:8525   */\n      mstore\n        /* \"#utility.yul\":8561:8595   */\n      0x43616e2077697468647261772066726f6d207468652061646472657373207573\n        /* \"#utility.yul\":8556:8558   */\n      0x40\n        /* \"#utility.yul\":8541:8559   */\n      dup3\n      add\n        /* \"#utility.yul\":8534:8596   */\n      mstore\n      shl(0x90, 0x656420666f72206c6f636b696e67)\n        /* \"#utility.yul\":8627:8629   */\n      0x60\n        /* \"#utility.yul\":8612:8630   */\n      dup3\n      add\n        /* \"#utility.yul\":8605:8649   */\n      mstore\n        /* \"#utility.yul\":8681:8684   */\n      0x80\n        /* \"#utility.yul\":8666:8685   */\n      add\n      swap1\n        /* \"#utility.yul\":8281:8691   */\n      jump\t// out\n        /* \"#utility.yul\":9041:9397   */\n    tag_198:\n        /* \"#utility.yul\":9243:9245   */\n      0x20\n        /* \"#utility.yul\":9225:9246   */\n      dup1\n      dup3\n      mstore\n        /* \"#utility.yul\":9262:9280   */\n      dup2\n      dup2\n      add\n        /* \"#utility.yul\":9255:9285   */\n      mstore\n        /* \"#utility.yul\":9321:9355   */\n      0x4f776e61626c653a2063616c6c6572206973206e6f7420746865206f776e6572\n        /* \"#utility.yul\":9316:9318   */\n      0x40\n        /* \"#utility.yul\":9301:9319   */\n      dup3\n      add\n        /* \"#utility.yul\":9294:9356   */\n      mstore\n        /* \"#utility.yul\":9388:9390   */\n      0x60\n        /* \"#utility.yul\":9373:9391   */\n      add\n      swap1\n        /* \"#utility.yul\":9041:9397   */\n      jump\t// out\n        /* \"#utility.yul\":11548:11963   */\n    tag_181:\n        /* \"#utility.yul\":11750:11752   */\n      0x20\n        /* \"#utility.yul\":11732:11753   */\n      dup1\n      dup3\n      mstore\n        /* \"#utility.yul\":11789:11791   */\n      0x33\n        /* \"#utility.yul\":11769:11787   */\n      swap1\n      dup3\n      add\n        /* \"#utility.yul\":11762:11792   */\n      mstore\n        /* \"#utility.yul\":11828:11862   */\n      0x556e69782074696d657374616d70206d75737420626520696e207365636f6e64\n        /* \"#utility.yul\":11823:11825   */\n      0x40\n        /* \"#utility.yul\":11808:11826   */\n      dup3\n      add\n        /* \"#utility.yul\":11801:11863   */\n      mstore\n      shl(0x68, 0x732c206e6f74206d696c6c697365636f6e6473)\n        /* \"#utility.yul\":11894:11896   */\n      0x60\n        /* \"#utility.yul\":11879:11897   */\n      dup3\n      add\n        /* \"#utility.yul\":11872:11921   */\n      mstore\n        /* \"#utility.yul\":11953:11956   */\n      0x80\n        /* \"#utility.yul\":11938:11957   */\n      add\n      swap1\n        /* \"#utility.yul\":11548:11963   */\n      jump\t// out\n        /* \"#utility.yul\":13131:13259   */\n    tag_186:\n        /* \"#utility.yul\":13171:13174   */\n      0x00\n        /* \"#utility.yul\":13202:13203   */\n      dup3\n        /* \"#utility.yul\":13198:13204   */\n      not\n        /* \"#utility.yul\":13195:13196   */\n      dup3\n        /* \"#utility.yul\":13192:13205   */\n      gt\n        /* \"#utility.yul\":13189:13228   */\n      iszero\n      tag_505\n      jumpi\n        /* \"#utility.yul\":13208:13226   */\n      tag_505\n      tag_506\n      jump\t// in\n    tag_505:\n      pop\n        /* \"#utility.yul\":13244:13253   */\n      add\n      swap1\n        /* \"#utility.yul\":13131:13259   */\n      jump\t// out\n        /* \"#utility.yul\":13264:13481   */\n    tag_410:\n        /* \"#utility.yul\":13304:13305   */\n      0x00\n        /* \"#utility.yul\":13330:13331   */\n      dup3\n        /* \"#utility.yul\":13320:13452   */\n      tag_508\n      jumpi\n        /* \"#utility.yul\":13374:13384   */\n      0x4e487b71\n        /* \"#utility.yul\":13369:13372   */\n      0xe0\n        /* \"#utility.yul\":13365:13385   */\n      shl\n        /* \"#utility.yul\":13362:13363   */\n      0x00\n        /* \"#utility.yul\":13355:13386   */\n      mstore\n        /* \"#utility.yul\":13409:13413   */\n      0x12\n        /* \"#utility.yul\":13406:13407   */\n      0x04\n        /* \"#utility.yul\":13399:13414   */\n      mstore\n        /* \"#utility.yul\":13437:13441   */\n      0x24\n        /* \"#utility.yul\":13434:13435   */\n      0x00\n        /* \"#utility.yul\":13427:13442   */\n      revert\n        /* \"#utility.yul\":13320:13452   */\n    tag_508:\n      pop\n        /* \"#utility.yul\":13466:13475   */\n      div\n      swap1\n        /* \"#utility.yul\":13264:13481   */\n      jump\t// out\n        /* \"#utility.yul\":13486:13654   */\n    tag_408:\n        /* \"#utility.yul\":13526:13533   */\n      0x00\n        /* \"#utility.yul\":13592:13593   */\n      dup2\n        /* \"#utility.yul\":13588:13589   */\n      0x00\n        /* \"#utility.yul\":13584:13590   */\n      not\n        /* \"#utility.yul\":13580:13594   */\n      div\n        /* \"#utility.yul\":13577:13578   */\n      dup4\n        /* \"#utility.yul\":13574:13595   */\n      gt\n        /* \"#utility.yul\":13569:13570   */\n      dup3\n        /* \"#utility.yul\":13562:13571   */\n      iszero\n        /* \"#utility.yul\":13555:13572   */\n      iszero\n        /* \"#utility.yul\":13551:13596   */\n      and\n        /* \"#utility.yul\":13548:13619   */\n      iszero\n      tag_511\n      jumpi\n        /* \"#utility.yul\":13599:13617   */\n      tag_511\n      tag_506\n      jump\t// in\n    tag_511:\n      pop\n        /* \"#utility.yul\":13639:13648   */\n      mul\n      swap1\n        /* \"#utility.yul\":13486:13654   */\n      jump\t// out\n        /* \"#utility.yul\":13659:13784   */\n    tag_207:\n        /* \"#utility.yul\":13699:13703   */\n      0x00\n        /* \"#utility.yul\":13727:13728   */\n      dup3\n        /* \"#utility.yul\":13724:13725   */\n      dup3\n        /* \"#utility.yul\":13721:13729   */\n      lt\n        /* \"#utility.yul\":13718:13752   */\n      iszero\n      tag_514\n      jumpi\n        /* \"#utility.yul\":13732:13750   */\n      tag_514\n      tag_506\n      jump\t// in\n    tag_514:\n      pop\n        /* \"#utility.yul\":13769:13778   */\n      sub\n      swap1\n        /* \"#utility.yul\":13659:13784   */\n      jump\t// out\n        /* \"#utility.yul\":13789:13924   */\n    tag_225:\n        /* \"#utility.yul\":13828:13831   */\n      0x00\n      not(0x00)\n        /* \"#utility.yul\":13849:13866   */\n      dup3\n      eq\n        /* \"#utility.yul\":13846:13889   */\n      iszero\n      tag_517\n      jumpi\n        /* \"#utility.yul\":13869:13887   */\n      tag_517\n      tag_506\n      jump\t// in\n    tag_517:\n      pop\n        /* \"#utility.yul\":13916:13917   */\n      0x01\n        /* \"#utility.yul\":13905:13918   */\n      add\n      swap1\n        /* \"#utility.yul\":13789:13924   */\n      jump\t// out\n        /* \"#utility.yul\":13929:14056   */\n    tag_506:\n        /* \"#utility.yul\":13990:14000   */\n      0x4e487b71\n        /* \"#utility.yul\":13985:13988   */\n      0xe0\n        /* \"#utility.yul\":13981:14001   */\n      shl\n        /* \"#utility.yul\":13978:13979   */\n      0x00\n        /* \"#utility.yul\":13971:14002   */\n      mstore\n        /* \"#utility.yul\":14021:14025   */\n      0x11\n        /* \"#utility.yul\":14018:14019   */\n      0x04\n        /* \"#utility.yul\":14011:14026   */\n      mstore\n        /* \"#utility.yul\":14045:14049   */\n      0x24\n        /* \"#utility.yul\":14042:14043   */\n      0x00\n        /* \"#utility.yul\":14035:14050   */\n      revert\n        /* \"#utility.yul\":14061:14188   */\n    tag_222:\n        /* \"#utility.yul\":14122:14132   */\n      0x4e487b71\n        /* \"#utility.yul\":14117:14120   */\n      0xe0\n        /* \"#utility.yul\":14113:14133   */\n      shl\n        /* \"#utility.yul\":14110:14111   */\n      0x00\n        /* \"#utility.yul\":14103:14134   */\n      mstore\n        /* \"#utility.yul\":14153:14157   */\n      0x31\n        /* \"#utility.yul\":14150:14151   */\n      0x04\n        /* \"#utility.yul\":14143:14158   */\n      mstore\n        /* \"#utility.yul\":14177:14181   */\n      0x24\n        /* \"#utility.yul\":14174:14175   */\n      0x00\n        /* \"#utility.yul\":14167:14182   */\n      revert\n        /* \"#utility.yul\":14193:14320   */\n    tag_210:\n        /* \"#utility.yul\":14254:14264   */\n      0x4e487b71\n        /* \"#utility.yul\":14249:14252   */\n      0xe0\n        /* \"#utility.yul\":14245:14265   */\n      shl\n        /* \"#utility.yul\":14242:14243   */\n      0x00\n        /* \"#utility.yul\":14235:14266   */\n      mstore\n        /* \"#utility.yul\":14285:14289   */\n      0x32\n        /* \"#utility.yul\":14282:14283   */\n      0x04\n        /* \"#utility.yul\":14275:14290   */\n      mstore\n        /* \"#utility.yul\":14309:14313   */\n      0x24\n        /* \"#utility.yul\":14306:14307   */\n      0x00\n        /* \"#utility.yul\":14299:14314   */\n      revert\n        /* \"#utility.yul\":14325:14452   */\n    tag_228:\n        /* \"#utility.yul\":14386:14396   */\n      0x4e487b71\n        /* \"#utility.yul\":14381:14384   */\n      0xe0\n        /* \"#utility.yul\":14377:14397   */\n      shl\n        /* \"#utility.yul\":14374:14375   */\n      0x00\n        /* \"#utility.yul\":14367:14398   */\n      mstore\n        /* \"#utility.yul\":14417:14421   */\n      0x41\n        /* \"#utility.yul\":14414:14415   */\n      0x04\n        /* \"#utility.yul\":14407:14422   */\n      mstore\n        /* \"#utility.yul\":14441:14445   */\n      0x24\n        /* \"#utility.yul\":14438:14439   */\n      0x00\n        /* \"#utility.yul\":14431:14446   */\n      revert\n        /* \"#utility.yul\":14457:14588   */\n    tag_446:\n      sub(shl(0xa0, 0x01), 0x01)\n        /* \"#utility.yul\":14532:14563   */\n      dup2\n      and\n        /* \"#utility.yul\":14522:14564   */\n      dup2\n      eq\n        /* \"#utility.yul\":14512:14582   */\n      tag_523\n      jumpi\n        /* \"#utility.yul\":14578:14579   */\n      0x00\n        /* \"#utility.yul\":14575:14576   */\n      dup1\n        /* \"#utility.yul\":14568:14580   */\n      revert\n        /* \"#utility.yul\":14512:14582   */\n    tag_523:\n        /* \"#utility.yul\":14457:14588   */\n      pop\n      jump\t// out\n        /* \"#utility.yul\":14593:14711   */\n    tag_461:\n        /* \"#utility.yul\":14679:14684   */\n      dup1\n        /* \"#utility.yul\":14672:14685   */\n      iszero\n        /* \"#utility.yul\":14665:14686   */\n      iszero\n        /* \"#utility.yul\":14658:14663   */\n      dup2\n        /* \"#utility.yul\":14655:14687   */\n      eq\n        /* \"#utility.yul\":14645:14705   */\n      tag_523\n      jumpi\n        /* \"#utility.yul\":14701:14702   */\n      0x00\n        /* \"#utility.yul\":14698:14699   */\n      dup1\n        /* \"#utility.yul\":14691:14703   */\n      revert\n\n    auxdata: 0xa264697066735822122010dd2f0c563c8d0d06c2c2e4be44c5b8756178cd1f9c1b995c62b452b07575a364736f6c63430008070033\n}\n",
				"bytecode": {
					"linkReferences": {},
					"object": "60806040526703782dace9d9000060025566b1a2bc2ec5000060035560056004556000600555600060065534801561003657600080fd5b50600080546001600160a01b031916339081178255604051909182917f8be0079c531659141344cd1fd0a4f28419497f9722a3daafe3b4186f6b6457e0908290a35060018055611f418061008b6000396000f3fe6080604052600436106101b75760003560e01c8063890db72f116100ec578063bb941cff1161008a578063d4dbe3ef11610064578063d4dbe3ef1461058f578063e6a478b3146105a5578063efc17415146105b8578063f2fde38b146105ce57600080fd5b8063bb941cff146104f6578063c9028aff1461054f578063d0b6fe241461056f57600080fd5b80639852099c116100c65780639852099c14610472578063adad19bd14610488578063ae3ff3dd146104a8578063b9e7df1c146104be57600080fd5b8063890db72f1461039a5780638a47446c1461042a5780638da5cb5b1461044a57600080fd5b8063347c80ba116101595780636ba03924116101335780636ba0392414610330578063715018a61461034557806384dfbfe21461035a57806386f65a221461037a57600080fd5b8063347c80ba146102aa5780633fd97b9b146102f0578063530680d81461031057600080fd5b80630cff87f1116101955780630cff87f114610227578063164e68de14610254578063213596b814610274578063315a095d1461028a57600080fd5b8063070d66bf146101bc5780630ae27c3a146101d15780630bd59ad3146101fa575b600080fd5b6101cf6101ca366004611cc6565b6105ee565b005b3480156101dd57600080fd5b506101e760035481565b6040519081526020015b60405180910390f35b34801561020657600080fd5b5061021a610215366004611ba4565b6107f6565b6040516101f19190611ce8565b34801561023357600080fd5b506101e7610242366004611ba4565b60086020526000908152604090205481565b34801561026057600080fd5b506101cf61026f366004611ba4565b610862565b34801561028057600080fd5b506101e760065481565b34801561029657600080fd5b506101cf6102a5366004611c94565b610a36565b3480156102b657600080fd5b506101e76102c5366004611bc8565b6001600160a01b039182166000908152600e6020908152604080832093909416825291909152205490565b3480156102fc57600080fd5b506101e761030b366004611c01565b611066565b34801561031c57600080fd5b506101e761032b366004611c01565b611097565b34801561033c57600080fd5b5061021a6110b3565b34801561035157600080fd5b506101cf61110b565b34801561036657600080fd5b506101cf610375366004611c94565b61117f565b34801561038657600080fd5b5061021a610395366004611ba4565b61123c565b3480156103a657600080fd5b506103f56103b5366004611c94565b6000908152600b6020526040902080546001820154600283015460038401546004909401546001600160a01b039384169593909216939092909160ff1690565b604080516001600160a01b0396871681529590941660208601529284019190915260608301521515608082015260a0016101f1565b34801561043657600080fd5b506101cf610445366004611c94565b6112a6565b34801561045657600080fd5b506000546040516001600160a01b0390911681526020016101f1565b34801561047e57600080fd5b506101e760095481565b34801561049457600080fd5b506101e76104a3366004611ba4565b611363565b3480156104b457600080fd5b506101e760055481565b3480156104ca57600080fd5b506101e76104d9366004611bc8565b600e60209081526000928352604080842090915290825290205481565b34801561050257600080fd5b506103f5610511366004611c94565b600b60205260009081526040902080546001820154600283015460038401546004909401546001600160a01b03938416949390921692909160ff1685565b34801561055b57600080fd5b506101e761056a366004611c94565b6113e3565b34801561057b57600080fd5b506101cf61058a366004611c94565b611404565b34801561059b57600080fd5b506101e760045481565b6101e76105b3366004611c2d565b6114bd565b3480156105c457600080fd5b506101e760025481565b3480156105da57600080fd5b506101cf6105e9366004611ba4565b611a05565b6000818152600b60205260409020600301548210156106635760405162461bcd60e51b815260206004820152602660248201527f4e6577206c6f636b2074696d65206d75737420626520616674657220756e6c6f604482015265636b54696d6560d01b60648201526084015b60405180910390fd5b6000818152600b602052604090206004015460ff16156106c05760405162461bcd60e51b81526020600482015260186024820152772a37b5b2b7399030b63932b0b23c903bb4ba34323930bbb760411b604482015260640161065a565b6000818152600b60205260409020600101546001600160a01b031633146106f95760405162461bcd60e51b815260040161065a90611d2c565b6402540be400821061071d5760405162461bcd60e51b815260040161065a90611daf565b60035434116107655760405162461bcd60e51b81526020600482015260146024820152734d7573742050726f7669646520424e422046656560601b604482015260640161065a565b34600560008282546107779190611e02565b9250508190555034600660008282546107909190611e02565b90915550506000818152600b6020908152604091829020600381018590555482518581529182018490526001600160a01b03169182917faf206878070db16635143d5cd56a51ccd35bc26f7bdb3cd4e55e42673cd95ffa910160405180910390a2505050565b6001600160a01b0381166000908152600c602090815260409182902080548351818402810184019094528084526060939283018282801561085657602002820191906000526020600020905b815481526020019060010190808311610842575b50505050509050919050565b6000546001600160a01b0316331461088c5760405162461bcd60e51b815260040161065a90611d7a565b600654156108d2576006546040516001600160a01b0383169180156108fc02916000818181858888f193505050501580156108cb573d6000803e3d6000fd5b5060006006555b60015b6007548111610a145760078054600091906108f1908490611e5b565b8154811061090157610901611eb9565b60009182526020808320909101546001600160a01b0316808352600890915260409091205490915080156109b35760405163a9059cbb60e01b81526001600160a01b0385811660048301526024820183905283169063a9059cbb90604401602060405180830381600087803b15801561097957600080fd5b505af115801561098d573d6000803e3d6000fd5b505050506040513d601f19601f820116820180604052508101906109b19190611c77565b505b6001600160a01b03821660009081526008602052604081205560078054806109dd576109dd611ea3565b600082815260209020810160001990810180546001600160a01b031916905501905550819050610a0c81611e72565b9150506108d5565b506040805160008152602081019182905251610a3291600791611aef565b5050565b6000818152600b6020526040902060030154421015610a8b5760405162461bcd60e51b8152602060048201526011602482015270151bdad95b9cc8185c99481b1bd8dad959607a1b604482015260640161065a565b6000818152600b602052604090206004015460ff1615610ae85760405162461bcd60e51b81526020600482015260186024820152772a37b5b2b7399030b63932b0b23c903bb4ba34323930bbb760411b604482015260640161065a565b6000818152600b60205260409020600101546001600160a01b03163314610b215760405162461bcd60e51b815260040161065a90611d2c565b6000818152600b60205260409081902080546001820154600290920154925163a9059cbb60e01b81526001600160a01b039283166004820181905260248201859052929091169290839063a9059cbb90604401602060405180830381600087803b158015610b8e57600080fd5b505af1158015610ba2573d6000803e3d6000fd5b505050506040513d601f19601f82011682018060405250810190610bc69190611c77565b610c125760405162461bcd60e51b815260206004820152601960248201527f4661696c656420746f207472616e7366657220746f6b656e7300000000000000604482015260640161065a565b6000848152600b60209081526040808320600401805460ff191660011790556001600160a01b0386168352600e8252808320338452909152902054610c578282611e5b565b6001600160a01b038086166000908152600e602090815260408083203384528252808320949094559186168152600c90915290812054819081610c9b600183611e5b565b67ffffffffffffffff811115610cb357610cb3611ecf565b604051908082528060200260200182016040528015610cdc578160200160208202803683370190505b509050600092505b81831015610e17576001600160a01b0387166000908152600c6020526040902080548a919085908110610d1957610d19611eb9565b90600052602060002001541415610db2578293505b610d39600183611e5b565b841015610dad576001600160a01b0387166000908152600c60205260409020610d63856001611e02565b81548110610d7357610d73611eb9565b9060005260206000200154818581518110610d9057610d90611eb9565b602090810291909101015283610da581611e72565b945050610d2e565b610e17565b6001600160a01b0387166000908152600c60205260409020805484908110610ddc57610ddc611eb9565b9060005260206000200154818481518110610df957610df9611eb9565b60200260200101818152505082610e0f81611e72565b935050610ce4565b6001600160a01b0387166000908152600c602090815260409091208251610e4092840190611b54565b506001600160a01b0388166000908152600d602052604081205490610e66600183611e5b565b67ffffffffffffffff811115610e7e57610e7e611ecf565b604051908082528060200260200182016040528015610ea7578160200160208202803683370190505b509050600094505b81851015610fe2576001600160a01b038a166000908152600d6020526040902080548c919087908110610ee457610ee4611eb9565b90600052602060002001541415610f7d578495505b610f04600183611e5b565b861015610f78576001600160a01b038a166000908152600d60205260409020610f2e876001611e02565b81548110610f3e57610f3e611eb9565b9060005260206000200154818781518110610f5b57610f5b611eb9565b602090810291909101015285610f7081611e72565b965050610ef9565b610fe2565b6001600160a01b038a166000908152600d60205260409020805486908110610fa757610fa7611eb9565b9060005260206000200154818681518110610fc457610fc4611eb9565b60200260200101818152505084610fda81611e72565b955050610eaf565b6001600160a01b038a166000908152600d60209081526040909120825161100b92840190611b54565b50886001600160a01b03168a6001600160a01b03167f6337ed398c0e8467698c581374fdce4db14922df487b5a39483079f5f59b60a48a60405161105191815260200190565b60405180910390a35050505050505050505050565b600d602052816000526040600020818154811061108257600080fd5b90600052602060002001600091509150505481565b600c602052816000526040600020818154811061108257600080fd5b6060600a80548060200260200160405190810160405280929190818152602001828054801561110157602002820191906000526020600020905b8154815260200190600101908083116110ed575b5050505050905090565b6000546001600160a01b031633146111355760405162461bcd60e51b815260040161065a90611d7a565b600080546040516001600160a01b03909116907f8be0079c531659141344cd1fd0a4f28419497f9722a3daafe3b4186f6b6457e0908390a3600080546001600160a01b0319169055565b6000546001600160a01b031633146111a95760405162461bcd60e51b815260040161065a90611d7a565b600081116111f05760405162461bcd60e51b815260206004820152601460248201527314195c98d95b9d081a5cc81d1bdbc81cdb585b1b60621b604482015260640161065a565b600381106112375760405162461bcd60e51b815260206004820152601460248201527350657263656e7420697320746f6f204c6172676560601b604482015260640161065a565b600455565b6001600160a01b0381166000908152600d602090815260409182902080548351818402810184019094528084526060939283018282801561085657602002820191906000526020600020908154815260200190600101908083116108425750505050509050919050565b6000546001600160a01b031633146112d05760405162461bcd60e51b815260040161065a90611d7a565b600081116113135760405162461bcd60e51b815260206004820152601060248201526f119959481a5cc81d1bdbc81cdb585b1b60821b604482015260640161065a565b670de0b6b3a7640000811061135e5760405162461bcd60e51b81526020600482015260116024820152704665656520697320746f6f204c6172676560781b604482015260640161065a565b600255565b6040516370a0823160e01b81523060048201526000906001600160a01b038316906370a082319060240160206040518083038186803b1580156113a557600080fd5b505afa1580156113b9573d6000803e3d6000fd5b505050506040513d601f19601f820116820180604052508101906113dd9190611cad565b92915050565b600a81815481106113f357600080fd5b600091825260209091200154905081565b6000546001600160a01b0316331461142e5760405162461bcd60e51b815260040161065a90611d7a565b6000811161146e5760405162461bcd60e51b815260206004820152600d60248201526c119959481d1bdbc81cdb585b1b609a1b604482015260640161065a565b6703782dace9d9000081106114b85760405162461bcd60e51b815260206004820152601060248201526f46656520697320746f6f204c6172676560801b604482015260640161065a565b600355565b600080841161151a5760405162461bcd60e51b8152602060048201526024808201527f546f6b656e7320616d6f756e74206d75737420626520677265617465722074686044820152630616e20360e41b606482015260840161065a565b6402540be400831061153e5760405162461bcd60e51b815260040161065a90611daf565b61154b4262015180611e02565b83116115a95760405162461bcd60e51b815260206004820152602760248201527f556e6c6f636b2074696d65206d7573742062652061667465722061746c6561736044820152667420312064617960c81b606482015260840161065a565b8115806115b7575060025434115b6115fa5760405162461bcd60e51b815260206004820152601460248201527310939088199959481b9bdd081c1c9bdd9a59195960621b604482015260640161065a565b60405163095ea7b360e01b8152306004820152602481018590526001600160a01b0386169063095ea7b390604401602060405180830381600087803b15801561164257600080fd5b505af1158015611656573d6000803e3d6000fd5b505050506040513d601f19601f8201168201806040525081019061167a9190611c77565b6116c65760405162461bcd60e51b815260206004820152601860248201527f4661696c656420746f20617070726f766520746f6b656e730000000000000000604482015260640161065a565b6040516323b872dd60e01b8152336004820152306024820152604481018590526001600160a01b038616906323b872dd90606401602060405180830381600087803b15801561171457600080fd5b505af1158015611728573d6000803e3d6000fd5b505050506040513d601f19601f8201168201806040525081019061174c9190611c77565b6117a45760405162461bcd60e51b815260206004820152602360248201527f4661696c656420746f207472616e7366657220746f6b656e7320746f206c6f6360448201526235b2b960e91b606482015260840161065a565b8382156117e15734600560008282546117bd9190611e02565b9250508190555034600660008282546117d69190611e02565b909155506118a59050565b60006103e8600454836117f49190611e3c565b6117fe9190611e1a565b905061180a8183611e5b565b6001600160a01b03881660009081526008602052604090205490925061187657600780546001810182556000919091527fa66cc928b5edb82af9bd49922954155ab7b0942694bea4ce44661d9a8736c6880180546001600160a01b0319166001600160a01b0389161790555b6001600160a01b0387166000908152600860205260408120805483929061189e908490611e02565b9091555050505b6001600160a01b0386166000908152600e60209081526040808320338452909152812080548792906118d8908490611e02565b9091555050600980543391906000906118f090611e72565b91829055506000818152600b6020908152604080832080546001600160a01b038d81166001600160a01b03199283168117845560018085018054938b16939094168317909355600284018a9055600384018d90556004909301805460ff19169055600a80548084019091557fc65a7bb8d6351c1cf70c95a316cc6a92839c986682d98bc35f958f4883f9d2a8018790558552600c84528285208054808301825590865284862001869055818552600d84528285208054918201815585529383902090930184905560095481518b81529283018a90529082015291945033917fa6782d3322abbfbe850e6d5c5c78e8e1df603ea07608bb9a62dd83f40d4feccc9060600160405180910390a35050949350505050565b6000546001600160a01b03163314611a2f5760405162461bcd60e51b815260040161065a90611d7a565b6001600160a01b038116611a945760405162461bcd60e51b815260206004820152602660248201527f4f776e61626c653a206e6577206f776e657220697320746865207a65726f206160448201526564647265737360d01b606482015260840161065a565b600080546040516001600160a01b03808516939216917f8be0079c531659141344cd1fd0a4f28419497f9722a3daafe3b4186f6b6457e091a3600080546001600160a01b0319166001600160a01b0392909216919091179055565b828054828255906000526020600020908101928215611b44579160200282015b82811115611b4457825182546001600160a01b0319166001600160a01b03909116178255602090920191600190910190611b0f565b50611b50929150611b8f565b5090565b828054828255906000526020600020908101928215611b44579160200282015b82811115611b44578251825591602001919060010190611b74565b5b80821115611b505760008155600101611b90565b600060208284031215611bb657600080fd5b8135611bc181611ee5565b9392505050565b60008060408385031215611bdb57600080fd5b8235611be681611ee5565b91506020830135611bf681611ee5565b809150509250929050565b60008060408385031215611c1457600080fd5b8235611c1f81611ee5565b946020939093013593505050565b60008060008060808587031215611c4357600080fd5b8435611c4e81611ee5565b935060208501359250604085013591506060850135611c6c81611efd565b939692955090935050565b600060208284031215611c8957600080fd5b8151611bc181611efd565b600060208284031215611ca657600080fd5b5035919050565b600060208284031215611cbf57600080fd5b5051919050565b60008060408385031215611cd957600080fd5b50508035926020909101359150565b6020808252825182820181905260009190848201906040850190845b81811015611d2057835183529284019291840191600101611d04565b50909695505050505050565b6020808252602e908201527f43616e2077697468647261772066726f6d20746865206164647265737320757360408201526d656420666f72206c6f636b696e6760901b606082015260800190565b6020808252818101527f4f776e61626c653a2063616c6c6572206973206e6f7420746865206f776e6572604082015260600190565b60208082526033908201527f556e69782074696d657374616d70206d75737420626520696e207365636f6e64604082015272732c206e6f74206d696c6c697365636f6e647360681b606082015260800190565b60008219821115611e1557611e15611e8d565b500190565b600082611e3757634e487b7160e01b600052601260045260246000fd5b500490565b6000816000190483118215151615611e5657611e56611e8d565b500290565b600082821015611e6d57611e6d611e8d565b500390565b6000600019821415611e8657611e86611e8d565b5060010190565b634e487b7160e01b600052601160045260246000fd5b634e487b7160e01b600052603160045260246000fd5b634e487b7160e01b600052603260045260246000fd5b634e487b7160e01b600052604160045260246000fd5b6001600160a01b0381168114611efa57600080fd5b50565b8015158114611efa57600080fdfea264697066735822122010dd2f0c563c8d0d06c2c2e4be44c5b8756178cd1f9c1b995c62b452b07575a364736f6c63430008070033",
					"opcodes": "PUSH1 0x80 PUSH1 0x40 MSTORE PUSH8 0x3782DACE9D90000 PUSH1 0x2 SSTORE PUSH7 0xB1A2BC2EC50000 PUSH1 0x3 SSTORE PUSH1 0x5 PUSH1 0x4 SSTORE PUSH1 0x0 PUSH1 0x5 SSTORE PUSH1 0x0 PUSH1 0x6 SSTORE CALLVALUE DUP1 ISZERO PUSH2 0x36 JUMPI PUSH1 0x0 DUP1 REVERT JUMPDEST POP PUSH1 0x0 DUP1 SLOAD PUSH1 0x1 PUSH1 0x1 PUSH1 0xA0 SHL SUB NOT AND CALLER SWAP1 DUP2 OR DUP3 SSTORE PUSH1 0x40 MLOAD SWAP1 SWAP2 DUP3 SWAP2 PUSH32 0x8BE0079C531659141344CD1FD0A4F28419497F9722A3DAAFE3B4186F6B6457E0 SWAP1 DUP3 SWAP1 LOG3 POP PUSH1 0x1 DUP1 SSTORE PUSH2 0x1F41 DUP1 PUSH2 0x8B PUSH1 0x0 CODECOPY PUSH1 0x0 RETURN INVALID PUSH1 0x80 PUSH1 0x40 MSTORE PUSH1 0x4 CALLDATASIZE LT PUSH2 0x1B7 JUMPI PUSH1 0x0 CALLDATALOAD PUSH1 0xE0 SHR DUP1 PUSH4 0x890DB72F GT PUSH2 0xEC JUMPI DUP1 PUSH4 0xBB941CFF GT PUSH2 0x8A JUMPI DUP1 PUSH4 0xD4DBE3EF GT PUSH2 0x64 JUMPI DUP1 PUSH4 0xD4DBE3EF EQ PUSH2 0x58F JUMPI DUP1 PUSH4 0xE6A478B3 EQ PUSH2 0x5A5 JUMPI DUP1 PUSH4 0xEFC17415 EQ PUSH2 0x5B8 JUMPI DUP1 PUSH4 0xF2FDE38B EQ PUSH2 0x5CE JUMPI PUSH1 0x0 DUP1 REVERT JUMPDEST DUP1 PUSH4 0xBB941CFF EQ PUSH2 0x4F6 JUMPI DUP1 PUSH4 0xC9028AFF EQ PUSH2 0x54F JUMPI DUP1 PUSH4 0xD0B6FE24 EQ PUSH2 0x56F JUMPI PUSH1 0x0 DUP1 REVERT JUMPDEST DUP1 PUSH4 0x9852099C GT PUSH2 0xC6 JUMPI DUP1 PUSH4 0x9852099C EQ PUSH2 0x472 JUMPI DUP1 PUSH4 0xADAD19BD EQ PUSH2 0x488 JUMPI DUP1 PUSH4 0xAE3FF3DD EQ PUSH2 0x4A8 JUMPI DUP1 PUSH4 0xB9E7DF1C EQ PUSH2 0x4BE JUMPI PUSH1 0x0 DUP1 REVERT JUMPDEST DUP1 PUSH4 0x890DB72F EQ PUSH2 0x39A JUMPI DUP1 PUSH4 0x8A47446C EQ PUSH2 0x42A JUMPI DUP1 PUSH4 0x8DA5CB5B EQ PUSH2 0x44A JUMPI PUSH1 0x0 DUP1 REVERT JUMPDEST DUP1 PUSH4 0x347C80BA GT PUSH2 0x159 JUMPI DUP1 PUSH4 0x6BA03924 GT PUSH2 0x133 JUMPI DUP1 PUSH4 0x6BA03924 EQ PUSH2 0x330 JUMPI DUP1 PUSH4 0x715018A6 EQ PUSH2 0x345 JUMPI DUP1 PUSH4 0x84DFBFE2 EQ PUSH2 0x35A JUMPI DUP1 PUSH4 0x86F65A22 EQ PUSH2 0x37A JUMPI PUSH1 0x0 DUP1 REVERT JUMPDEST DUP1 PUSH4 0x347C80BA EQ PUSH2 0x2AA JUMPI DUP1 PUSH4 0x3FD97B9B EQ PUSH2 0x2F0 JUMPI DUP1 PUSH4 0x530680D8 EQ PUSH2 0x310 JUMPI PUSH1 0x0 DUP1 REVERT JUMPDEST DUP1 PUSH4 0xCFF87F1 GT PUSH2 0x195 JUMPI DUP1 PUSH4 0xCFF87F1 EQ PUSH2 0x227 JUMPI DUP1 PUSH4 0x164E68DE EQ PUSH2 0x254 JUMPI DUP1 PUSH4 0x213596B8 EQ PUSH2 0x274 JUMPI DUP1 PUSH4 0x315A095D EQ PUSH2 0x28A JUMPI PUSH1 0x0 DUP1 REVERT JUMPDEST DUP1 PUSH4 0x70D66BF EQ PUSH2 0x1BC JUMPI DUP1 PUSH4 0xAE27C3A EQ PUSH2 0x1D1 JUMPI DUP1 PUSH4 0xBD59AD3 EQ PUSH2 0x1FA JUMPI JUMPDEST PUSH1 0x0 DUP1 REVERT JUMPDEST PUSH2 0x1CF PUSH2 0x1CA CALLDATASIZE PUSH1 0x4 PUSH2 0x1CC6 JUMP JUMPDEST PUSH2 0x5EE JUMP JUMPDEST STOP JUMPDEST CALLVALUE DUP1 ISZERO PUSH2 0x1DD JUMPI PUSH1 0x0 DUP1 REVERT JUMPDEST POP PUSH2 0x1E7 PUSH1 0x3 SLOAD DUP2 JUMP JUMPDEST PUSH1 0x40 MLOAD SWAP1 DUP2 MSTORE PUSH1 0x20 ADD JUMPDEST PUSH1 0x40 MLOAD DUP1 SWAP2 SUB SWAP1 RETURN JUMPDEST CALLVALUE DUP1 ISZERO PUSH2 0x206 JUMPI PUSH1 0x0 DUP1 REVERT JUMPDEST POP PUSH2 0x21A PUSH2 0x215 CALLDATASIZE PUSH1 0x4 PUSH2 0x1BA4 JUMP JUMPDEST PUSH2 0x7F6 JUMP JUMPDEST PUSH1 0x40 MLOAD PUSH2 0x1F1 SWAP2 SWAP1 PUSH2 0x1CE8 JUMP JUMPDEST CALLVALUE DUP1 ISZERO PUSH2 0x233 JUMPI PUSH1 0x0 DUP1 REVERT JUMPDEST POP PUSH2 0x1E7 PUSH2 0x242 CALLDATASIZE PUSH1 0x4 PUSH2 0x1BA4 JUMP JUMPDEST PUSH1 0x8 PUSH1 0x20 MSTORE PUSH1 0x0 SWAP1 DUP2 MSTORE PUSH1 0x40 SWAP1 KECCAK256 SLOAD DUP2 JUMP JUMPDEST CALLVALUE DUP1 ISZERO PUSH2 0x260 JUMPI PUSH1 0x0 DUP1 REVERT JUMPDEST POP PUSH2 0x1CF PUSH2 0x26F CALLDATASIZE PUSH1 0x4 PUSH2 0x1BA4 JUMP JUMPDEST PUSH2 0x862 JUMP JUMPDEST CALLVALUE DUP1 ISZERO PUSH2 0x280 JUMPI PUSH1 0x0 DUP1 REVERT JUMPDEST POP PUSH2 0x1E7 PUSH1 0x6 SLOAD DUP2 JUMP JUMPDEST CALLVALUE DUP1 ISZERO PUSH2 0x296 JUMPI PUSH1 0x0 DUP1 REVERT JUMPDEST POP PUSH2 0x1CF PUSH2 0x2A5 CALLDATASIZE PUSH1 0x4 PUSH2 0x1C94 JUMP JUMPDEST PUSH2 0xA36 JUMP JUMPDEST CALLVALUE DUP1 ISZERO PUSH2 0x2B6 JUMPI PUSH1 0x0 DUP1 REVERT JUMPDEST POP PUSH2 0x1E7 PUSH2 0x2C5 CALLDATASIZE PUSH1 0x4 PUSH2 0x1BC8 JUMP JUMPDEST PUSH1 0x1 PUSH1 0x1 PUSH1 0xA0 SHL SUB SWAP2 DUP3 AND PUSH1 0x0 SWAP1 DUP2 MSTORE PUSH1 0xE PUSH1 0x20 SWAP1 DUP2 MSTORE PUSH1 0x40 DUP1 DUP4 KECCAK256 SWAP4 SWAP1 SWAP5 AND DUP3 MSTORE SWAP2 SWAP1 SWAP2 MSTORE KECCAK256 SLOAD SWAP1 JUMP JUMPDEST CALLVALUE DUP1 ISZERO PUSH2 0x2FC JUMPI PUSH1 0x0 DUP1 REVERT JUMPDEST POP PUSH2 0x1E7 PUSH2 0x30B CALLDATASIZE PUSH1 0x4 PUSH2 0x1C01 JUMP JUMPDEST PUSH2 0x1066 JUMP JUMPDEST CALLVALUE DUP1 ISZERO PUSH2 0x31C JUMPI PUSH1 0x0 DUP1 REVERT JUMPDEST POP PUSH2 0x1E7 PUSH2 0x32B CALLDATASIZE PUSH1 0x4 PUSH2 0x1C01 JUMP JUMPDEST PUSH2 0x1097 JUMP JUMPDEST CALLVALUE DUP1 ISZERO PUSH2 0x33C JUMPI PUSH1 0x0 DUP1 REVERT JUMPDEST POP PUSH2 0x21A PUSH2 0x10B3 JUMP JUMPDEST CALLVALUE DUP1 ISZERO PUSH2 0x351 JUMPI PUSH1 0x0 DUP1 REVERT JUMPDEST POP PUSH2 0x1CF PUSH2 0x110B JUMP JUMPDEST CALLVALUE DUP1 ISZERO PUSH2 0x366 JUMPI PUSH1 0x0 DUP1 REVERT JUMPDEST POP PUSH2 0x1CF PUSH2 0x375 CALLDATASIZE PUSH1 0x4 PUSH2 0x1C94 JUMP JUMPDEST PUSH2 0x117F JUMP JUMPDEST CALLVALUE DUP1 ISZERO PUSH2 0x386 JUMPI PUSH1 0x0 DUP1 REVERT JUMPDEST POP PUSH2 0x21A PUSH2 0x395 CALLDATASIZE PUSH1 0x4 PUSH2 0x1BA4 JUMP JUMPDEST PUSH2 0x123C JUMP JUMPDEST CALLVALUE DUP1 ISZERO PUSH2 0x3A6 JUMPI PUSH1 0x0 DUP1 REVERT JUMPDEST POP PUSH2 0x3F5 PUSH2 0x3B5 CALLDATASIZE PUSH1 0x4 PUSH2 0x1C94 JUMP JUMPDEST PUSH1 0x0 SWAP1 DUP2 MSTORE PUSH1 0xB PUSH1 0x20 MSTORE PUSH1 0x40 SWAP1 KECCAK256 DUP1 SLOAD PUSH1 0x1 DUP3 ADD SLOAD PUSH1 0x2 DUP4 ADD SLOAD PUSH1 0x3 DUP5 ADD SLOAD PUSH1 0x4 SWAP1 SWAP5 ADD SLOAD PUSH1 0x1 PUSH1 0x1 PUSH1 0xA0 SHL SUB SWAP4 DUP5 AND SWAP6 SWAP4 SWAP1 SWAP3 AND SWAP4 SWAP1 SWAP3 SWAP1 SWAP2 PUSH1 0xFF AND SWAP1 JUMP JUMPDEST PUSH1 0x40 DUP1 MLOAD PUSH1 0x1 PUSH1 0x1 PUSH1 0xA0 SHL SUB SWAP7 DUP8 AND DUP2 MSTORE SWAP6 SWAP1 SWAP5 AND PUSH1 0x20 DUP7 ADD MSTORE SWAP3 DUP5 ADD SWAP2 SWAP1 SWAP2 MSTORE PUSH1 0x60 DUP4 ADD MSTORE ISZERO ISZERO PUSH1 0x80 DUP3 ADD MSTORE PUSH1 0xA0 ADD PUSH2 0x1F1 JUMP JUMPDEST CALLVALUE DUP1 ISZERO PUSH2 0x436 JUMPI PUSH1 0x0 DUP1 REVERT JUMPDEST POP PUSH2 0x1CF PUSH2 0x445 CALLDATASIZE PUSH1 0x4 PUSH2 0x1C94 JUMP JUMPDEST PUSH2 0x12A6 JUMP JUMPDEST CALLVALUE DUP1 ISZERO PUSH2 0x456 JUMPI PUSH1 0x0 DUP1 REVERT JUMPDEST POP PUSH1 0x0 SLOAD PUSH1 0x40 MLOAD PUSH1 0x1 PUSH1 0x1 PUSH1 0xA0 SHL SUB SWAP1 SWAP2 AND DUP2 MSTORE PUSH1 0x20 ADD PUSH2 0x1F1 JUMP JUMPDEST CALLVALUE DUP1 ISZERO PUSH2 0x47E JUMPI PUSH1 0x0 DUP1 REVERT JUMPDEST POP PUSH2 0x1E7 PUSH1 0x9 SLOAD DUP2 JUMP JUMPDEST CALLVALUE DUP1 ISZERO PUSH2 0x494 JUMPI PUSH1 0x0 DUP1 REVERT JUMPDEST POP PUSH2 0x1E7 PUSH2 0x4A3 CALLDATASIZE PUSH1 0x4 PUSH2 0x1BA4 JUMP JUMPDEST PUSH2 0x1363 JUMP JUMPDEST CALLVALUE DUP1 ISZERO PUSH2 0x4B4 JUMPI PUSH1 0x0 DUP1 REVERT JUMPDEST POP PUSH2 0x1E7 PUSH1 0x5 SLOAD DUP2 JUMP JUMPDEST CALLVALUE DUP1 ISZERO PUSH2 0x4CA JUMPI PUSH1 0x0 DUP1 REVERT JUMPDEST POP PUSH2 0x1E7 PUSH2 0x4D9 CALLDATASIZE PUSH1 0x4 PUSH2 0x1BC8 JUMP JUMPDEST PUSH1 0xE PUSH1 0x20 SWAP1 DUP2 MSTORE PUSH1 0x0 SWAP3 DUP4 MSTORE PUSH1 0x40 DUP1 DUP5 KECCAK256 SWAP1 SWAP2 MSTORE SWAP1 DUP3 MSTORE SWAP1 KECCAK256 SLOAD DUP2 JUMP JUMPDEST CALLVALUE DUP1 ISZERO PUSH2 0x502 JUMPI PUSH1 0x0 DUP1 REVERT JUMPDEST POP PUSH2 0x3F5 PUSH2 0x511 CALLDATASIZE PUSH1 0x4 PUSH2 0x1C94 JUMP JUMPDEST PUSH1 0xB PUSH1 0x20 MSTORE PUSH1 0x0 SWAP1 DUP2 MSTORE PUSH1 0x40 SWAP1 KECCAK256 DUP1 SLOAD PUSH1 0x1 DUP3 ADD SLOAD PUSH1 0x2 DUP4 ADD SLOAD PUSH1 0x3 DUP5 ADD SLOAD PUSH1 0x4 SWAP1 SWAP5 ADD SLOAD PUSH1 0x1 PUSH1 0x1 PUSH1 0xA0 SHL SUB SWAP4 DUP5 AND SWAP5 SWAP4 SWAP1 SWAP3 AND SWAP3 SWAP1 SWAP2 PUSH1 0xFF AND DUP6 JUMP JUMPDEST CALLVALUE DUP1 ISZERO PUSH2 0x55B JUMPI PUSH1 0x0 DUP1 REVERT JUMPDEST POP PUSH2 0x1E7 PUSH2 0x56A CALLDATASIZE PUSH1 0x4 PUSH2 0x1C94 JUMP JUMPDEST PUSH2 0x13E3 JUMP JUMPDEST CALLVALUE DUP1 ISZERO PUSH2 0x57B JUMPI PUSH1 0x0 DUP1 REVERT JUMPDEST POP PUSH2 0x1CF PUSH2 0x58A CALLDATASIZE PUSH1 0x4 PUSH2 0x1C94 JUMP JUMPDEST PUSH2 0x1404 JUMP JUMPDEST CALLVALUE DUP1 ISZERO PUSH2 0x59B JUMPI PUSH1 0x0 DUP1 REVERT JUMPDEST POP PUSH2 0x1E7 PUSH1 0x4 SLOAD DUP2 JUMP JUMPDEST PUSH2 0x1E7 PUSH2 0x5B3 CALLDATASIZE PUSH1 0x4 PUSH2 0x1C2D JUMP JUMPDEST PUSH2 0x14BD JUMP JUMPDEST CALLVALUE DUP1 ISZERO PUSH2 0x5C4 JUMPI PUSH1 0x0 DUP1 REVERT JUMPDEST POP PUSH2 0x1E7 PUSH1 0x2 SLOAD DUP2 JUMP JUMPDEST CALLVALUE DUP1 ISZERO PUSH2 0x5DA JUMPI PUSH1 0x0 DUP1 REVERT JUMPDEST POP PUSH2 0x1CF PUSH2 0x5E9 CALLDATASIZE PUSH1 0x4 PUSH2 0x1BA4 JUMP JUMPDEST PUSH2 0x1A05 JUMP JUMPDEST PUSH1 0x0 DUP2 DUP2 MSTORE PUSH1 0xB PUSH1 0x20 MSTORE PUSH1 0x40 SWAP1 KECCAK256 PUSH1 0x3 ADD SLOAD DUP3 LT ISZERO PUSH2 0x663 JUMPI PUSH1 0x40 MLOAD PUSH3 0x461BCD PUSH1 0xE5 SHL DUP2 MSTORE PUSH1 0x20 PUSH1 0x4 DUP3 ADD MSTORE PUSH1 0x26 PUSH1 0x24 DUP3 ADD MSTORE PUSH32 0x4E6577206C6F636B2074696D65206D75737420626520616674657220756E6C6F PUSH1 0x44 DUP3 ADD MSTORE PUSH6 0x636B54696D65 PUSH1 0xD0 SHL PUSH1 0x64 DUP3 ADD MSTORE PUSH1 0x84 ADD JUMPDEST PUSH1 0x40 MLOAD DUP1 SWAP2 SUB SWAP1 REVERT JUMPDEST PUSH1 0x0 DUP2 DUP2 MSTORE PUSH1 0xB PUSH1 0x20 MSTORE PUSH1 0x40 SWAP1 KECCAK256 PUSH1 0x4 ADD SLOAD PUSH1 0xFF AND ISZERO PUSH2 0x6C0 JUMPI PUSH1 0x40 MLOAD PUSH3 0x461BCD PUSH1 0xE5 SHL DUP2 MSTORE PUSH1 0x20 PUSH1 0x4 DUP3 ADD MSTORE PUSH1 0x18 PUSH1 0x24 DUP3 ADD MSTORE PUSH24 0x2A37B5B2B7399030B63932B0B23C903BB4BA34323930BBB7 PUSH1 0x41 SHL PUSH1 0x44 DUP3 ADD MSTORE PUSH1 0x64 ADD PUSH2 0x65A JUMP JUMPDEST PUSH1 0x0 DUP2 DUP2 MSTORE PUSH1 0xB PUSH1 0x20 MSTORE PUSH1 0x40 SWAP1 KECCAK256 PUSH1 0x1 ADD SLOAD PUSH1 0x1 PUSH1 0x1 PUSH1 0xA0 SHL SUB AND CALLER EQ PUSH2 0x6F9 JUMPI PUSH1 0x40 MLOAD PUSH3 0x461BCD PUSH1 0xE5 SHL DUP2 MSTORE PUSH1 0x4 ADD PUSH2 0x65A SWAP1 PUSH2 0x1D2C JUMP JUMPDEST PUSH5 0x2540BE400 DUP3 LT PUSH2 0x71D JUMPI PUSH1 0x40 MLOAD PUSH3 0x461BCD PUSH1 0xE5 SHL DUP2 MSTORE PUSH1 0x4 ADD PUSH2 0x65A SWAP1 PUSH2 0x1DAF JUMP JUMPDEST PUSH1 0x3 SLOAD CALLVALUE GT PUSH2 0x765 JUMPI PUSH1 0x40 MLOAD PUSH3 0x461BCD PUSH1 0xE5 SHL DUP2 MSTORE PUSH1 0x20 PUSH1 0x4 DUP3 ADD MSTORE PUSH1 0x14 PUSH1 0x24 DUP3 ADD MSTORE PUSH20 0x4D7573742050726F7669646520424E4220466565 PUSH1 0x60 SHL PUSH1 0x44 DUP3 ADD MSTORE PUSH1 0x64 ADD PUSH2 0x65A JUMP JUMPDEST CALLVALUE PUSH1 0x5 PUSH1 0x0 DUP3 DUP3 SLOAD PUSH2 0x777 SWAP2 SWAP1 PUSH2 0x1E02 JUMP JUMPDEST SWAP3 POP POP DUP2 SWAP1 SSTORE POP CALLVALUE PUSH1 0x6 PUSH1 0x0 DUP3 DUP3 SLOAD PUSH2 0x790 SWAP2 SWAP1 PUSH2 0x1E02 JUMP JUMPDEST SWAP1 SWAP2 SSTORE POP POP PUSH1 0x0 DUP2 DUP2 MSTORE PUSH1 0xB PUSH1 0x20 SWAP1 DUP2 MSTORE PUSH1 0x40 SWAP2 DUP3 SWAP1 KECCAK256 PUSH1 0x3 DUP2 ADD DUP6 SWAP1 SSTORE SLOAD DUP3 MLOAD DUP6 DUP2 MSTORE SWAP2 DUP3 ADD DUP5 SWAP1 MSTORE PUSH1 0x1 PUSH1 0x1 PUSH1 0xA0 SHL SUB AND SWAP2 DUP3 SWAP2 PUSH32 0xAF206878070DB16635143D5CD56A51CCD35BC26F7BDB3CD4E55E42673CD95FFA SWAP2 ADD PUSH1 0x40 MLOAD DUP1 SWAP2 SUB SWAP1 LOG2 POP POP POP JUMP JUMPDEST PUSH1 0x1 PUSH1 0x1 PUSH1 0xA0 SHL SUB DUP2 AND PUSH1 0x0 SWAP1 DUP2 MSTORE PUSH1 0xC PUSH1 0x20 SWAP1 DUP2 MSTORE PUSH1 0x40 SWAP2 DUP3 SWAP1 KECCAK256 DUP1 SLOAD DUP4 MLOAD DUP2 DUP5 MUL DUP2 ADD DUP5 ADD SWAP1 SWAP5 MSTORE DUP1 DUP5 MSTORE PUSH1 0x60 SWAP4 SWAP3 DUP4 ADD DUP3 DUP3 DUP1 ISZERO PUSH2 0x856 JUMPI PUSH1 0x20 MUL DUP3 ADD SWAP2 SWAP1 PUSH1 0x0 MSTORE PUSH1 0x20 PUSH1 0x0 KECCAK256 SWAP1 JUMPDEST DUP2 SLOAD DUP2 MSTORE PUSH1 0x20 ADD SWAP1 PUSH1 0x1 ADD SWAP1 DUP1 DUP4 GT PUSH2 0x842 JUMPI JUMPDEST POP POP POP POP POP SWAP1 POP SWAP2 SWAP1 POP JUMP JUMPDEST PUSH1 0x0 SLOAD PUSH1 0x1 PUSH1 0x1 PUSH1 0xA0 SHL SUB AND CALLER EQ PUSH2 0x88C JUMPI PUSH1 0x40 MLOAD PUSH3 0x461BCD PUSH1 0xE5 SHL DUP2 MSTORE PUSH1 0x4 ADD PUSH2 0x65A SWAP1 PUSH2 0x1D7A JUMP JUMPDEST PUSH1 0x6 SLOAD ISZERO PUSH2 0x8D2 JUMPI PUSH1 0x6 SLOAD PUSH1 0x40 MLOAD PUSH1 0x1 PUSH1 0x1 PUSH1 0xA0 SHL SUB DUP4 AND SWAP2 DUP1 ISZERO PUSH2 0x8FC MUL SWAP2 PUSH1 0x0 DUP2 DUP2 DUP2 DUP6 DUP9 DUP9 CALL SWAP4 POP POP POP POP ISZERO DUP1 ISZERO PUSH2 0x8CB JUMPI RETURNDATASIZE PUSH1 0x0 DUP1 RETURNDATACOPY RETURNDATASIZE PUSH1 0x0 REVERT JUMPDEST POP PUSH1 0x0 PUSH1 0x6 SSTORE JUMPDEST PUSH1 0x1 JUMPDEST PUSH1 0x7 SLOAD DUP2 GT PUSH2 0xA14 JUMPI PUSH1 0x7 DUP1 SLOAD PUSH1 0x0 SWAP2 SWAP1 PUSH2 0x8F1 SWAP1 DUP5 SWAP1 PUSH2 0x1E5B JUMP JUMPDEST DUP2 SLOAD DUP2 LT PUSH2 0x901 JUMPI PUSH2 0x901 PUSH2 0x1EB9 JUMP JUMPDEST PUSH1 0x0 SWAP2 DUP3 MSTORE PUSH1 0x20 DUP1 DUP4 KECCAK256 SWAP1 SWAP2 ADD SLOAD PUSH1 0x1 PUSH1 0x1 PUSH1 0xA0 SHL SUB AND DUP1 DUP4 MSTORE PUSH1 0x8 SWAP1 SWAP2 MSTORE PUSH1 0x40 SWAP1 SWAP2 KECCAK256 SLOAD SWAP1 SWAP2 POP DUP1 ISZERO PUSH2 0x9B3 JUMPI PUSH1 0x40 MLOAD PUSH4 0xA9059CBB PUSH1 0xE0 SHL DUP2 MSTORE PUSH1 0x1 PUSH1 0x1 PUSH1 0xA0 SHL SUB DUP6 DUP2 AND PUSH1 0x4 DUP4 ADD MSTORE PUSH1 0x24 DUP3 ADD DUP4 SWAP1 MSTORE DUP4 AND SWAP1 PUSH4 0xA9059CBB SWAP1 PUSH1 0x44 ADD PUSH1 0x20 PUSH1 0x40 MLOAD DUP1 DUP4 SUB DUP2 PUSH1 0x0 DUP8 DUP1 EXTCODESIZE ISZERO DUP1 ISZERO PUSH2 0x979 JUMPI PUSH1 0x0 DUP1 REVERT JUMPDEST POP GAS CALL ISZERO DUP1 ISZERO PUSH2 0x98D JUMPI RETURNDATASIZE PUSH1 0x0 DUP1 RETURNDATACOPY RETURNDATASIZE PUSH1 0x0 REVERT JUMPDEST POP POP POP POP PUSH1 0x40 MLOAD RETURNDATASIZE PUSH1 0x1F NOT PUSH1 0x1F DUP3 ADD AND DUP3 ADD DUP1 PUSH1 0x40 MSTORE POP DUP2 ADD SWAP1 PUSH2 0x9B1 SWAP2 SWAP1 PUSH2 0x1C77 JUMP JUMPDEST POP JUMPDEST PUSH1 0x1 PUSH1 0x1 PUSH1 0xA0 SHL SUB DUP3 AND PUSH1 0x0 SWAP1 DUP2 MSTORE PUSH1 0x8 PUSH1 0x20 MSTORE PUSH1 0x40 DUP2 KECCAK256 SSTORE PUSH1 0x7 DUP1 SLOAD DUP1 PUSH2 0x9DD JUMPI PUSH2 0x9DD PUSH2 0x1EA3 JUMP JUMPDEST PUSH1 0x0 DUP3 DUP2 MSTORE PUSH1 0x20 SWAP1 KECCAK256 DUP2 ADD PUSH1 0x0 NOT SWAP1 DUP2 ADD DUP1 SLOAD PUSH1 0x1 PUSH1 0x1 PUSH1 0xA0 SHL SUB NOT AND SWAP1 SSTORE ADD SWAP1 SSTORE POP DUP2 SWAP1 POP PUSH2 0xA0C DUP2 PUSH2 0x1E72 JUMP JUMPDEST SWAP2 POP POP PUSH2 0x8D5 JUMP JUMPDEST POP PUSH1 0x40 DUP1 MLOAD PUSH1 0x0 DUP2 MSTORE PUSH1 0x20 DUP2 ADD SWAP2 DUP3 SWAP1 MSTORE MLOAD PUSH2 0xA32 SWAP2 PUSH1 0x7 SWAP2 PUSH2 0x1AEF JUMP JUMPDEST POP POP JUMP JUMPDEST PUSH1 0x0 DUP2 DUP2 MSTORE PUSH1 0xB PUSH1 0x20 MSTORE PUSH1 0x40 SWAP1 KECCAK256 PUSH1 0x3 ADD SLOAD TIMESTAMP LT ISZERO PUSH2 0xA8B JUMPI PUSH1 0x40 MLOAD PUSH3 0x461BCD PUSH1 0xE5 SHL DUP2 MSTORE PUSH1 0x20 PUSH1 0x4 DUP3 ADD MSTORE PUSH1 0x11 PUSH1 0x24 DUP3 ADD MSTORE PUSH17 0x151BDAD95B9CC8185C99481B1BD8DAD959 PUSH1 0x7A SHL PUSH1 0x44 DUP3 ADD MSTORE PUSH1 0x64 ADD PUSH2 0x65A JUMP JUMPDEST PUSH1 0x0 DUP2 DUP2 MSTORE PUSH1 0xB PUSH1 0x20 MSTORE PUSH1 0x40 SWAP1 KECCAK256 PUSH1 0x4 ADD SLOAD PUSH1 0xFF AND ISZERO PUSH2 0xAE8 JUMPI PUSH1 0x40 MLOAD PUSH3 0x461BCD PUSH1 0xE5 SHL DUP2 MSTORE PUSH1 0x20 PUSH1 0x4 DUP3 ADD MSTORE PUSH1 0x18 PUSH1 0x24 DUP3 ADD MSTORE PUSH24 0x2A37B5B2B7399030B63932B0B23C903BB4BA34323930BBB7 PUSH1 0x41 SHL PUSH1 0x44 DUP3 ADD MSTORE PUSH1 0x64 ADD PUSH2 0x65A JUMP JUMPDEST PUSH1 0x0 DUP2 DUP2 MSTORE PUSH1 0xB PUSH1 0x20 MSTORE PUSH1 0x40 SWAP1 KECCAK256 PUSH1 0x1 ADD SLOAD PUSH1 0x1 PUSH1 0x1 PUSH1 0xA0 SHL SUB AND CALLER EQ PUSH2 0xB21 JUMPI PUSH1 0x40 MLOAD PUSH3 0x461BCD PUSH1 0xE5 SHL DUP2 MSTORE PUSH1 0x4 ADD PUSH2 0x65A SWAP1 PUSH2 0x1D2C JUMP JUMPDEST PUSH1 0x0 DUP2 DUP2 MSTORE PUSH1 0xB PUSH1 0x20 MSTORE PUSH1 0x40 SWAP1 DUP2 SWAP1 KECCAK256 DUP1 SLOAD PUSH1 0x1 DUP3 ADD SLOAD PUSH1 0x2 SWAP1 SWAP3 ADD SLOAD SWAP3 MLOAD PUSH4 0xA9059CBB PUSH1 0xE0 SHL DUP2 MSTORE PUSH1 0x1 PUSH1 0x1 PUSH1 0xA0 SHL SUB SWAP3 DUP4 AND PUSH1 0x4 DUP3 ADD DUP2 SWAP1 MSTORE PUSH1 0x24 DUP3 ADD DUP6 SWAP1 MSTORE SWAP3 SWAP1 SWAP2 AND SWAP3 SWAP1 DUP4 SWAP1 PUSH4 0xA9059CBB SWAP1 PUSH1 0x44 ADD PUSH1 0x20 PUSH1 0x40 MLOAD DUP1 DUP4 SUB DUP2 PUSH1 0x0 DUP8 DUP1 EXTCODESIZE ISZERO DUP1 ISZERO PUSH2 0xB8E JUMPI PUSH1 0x0 DUP1 REVERT JUMPDEST POP GAS CALL ISZERO DUP1 ISZERO PUSH2 0xBA2 JUMPI RETURNDATASIZE PUSH1 0x0 DUP1 RETURNDATACOPY RETURNDATASIZE PUSH1 0x0 REVERT JUMPDEST POP POP POP POP PUSH1 0x40 MLOAD RETURNDATASIZE PUSH1 0x1F NOT PUSH1 0x1F DUP3 ADD AND DUP3 ADD DUP1 PUSH1 0x40 MSTORE POP DUP2 ADD SWAP1 PUSH2 0xBC6 SWAP2 SWAP1 PUSH2 0x1C77 JUMP JUMPDEST PUSH2 0xC12 JUMPI PUSH1 0x40 MLOAD PUSH3 0x461BCD PUSH1 0xE5 SHL DUP2 MSTORE PUSH1 0x20 PUSH1 0x4 DUP3 ADD MSTORE PUSH1 0x19 PUSH1 0x24 DUP3 ADD MSTORE PUSH32 0x4661696C656420746F207472616E7366657220746F6B656E7300000000000000 PUSH1 0x44 DUP3 ADD MSTORE PUSH1 0x64 ADD PUSH2 0x65A JUMP JUMPDEST PUSH1 0x0 DUP5 DUP2 MSTORE PUSH1 0xB PUSH1 0x20 SWAP1 DUP2 MSTORE PUSH1 0x40 DUP1 DUP4 KECCAK256 PUSH1 0x4 ADD DUP1 SLOAD PUSH1 0xFF NOT AND PUSH1 0x1 OR SWAP1 SSTORE PUSH1 0x1 PUSH1 0x1 PUSH1 0xA0 SHL SUB DUP7 AND DUP4 MSTORE PUSH1 0xE DUP3 MSTORE DUP1 DUP4 KECCAK256 CALLER DUP5 MSTORE SWAP1 SWAP2 MSTORE SWAP1 KECCAK256 SLOAD PUSH2 0xC57 DUP3 DUP3 PUSH2 0x1E5B JUMP JUMPDEST PUSH1 0x1 PUSH1 0x1 PUSH1 0xA0 SHL SUB DUP1 DUP7 AND PUSH1 0x0 SWAP1 DUP2 MSTORE PUSH1 0xE PUSH1 0x20 SWAP1 DUP2 MSTORE PUSH1 0x40 DUP1 DUP4 KECCAK256 CALLER DUP5 MSTORE DUP3 MSTORE DUP1 DUP4 KECCAK256 SWAP5 SWAP1 SWAP5 SSTORE SWAP2 DUP7 AND DUP2 MSTORE PUSH1 0xC SWAP1 SWAP2 MSTORE SWAP1 DUP2 KECCAK256 SLOAD DUP2 SWAP1 DUP2 PUSH2 0xC9B PUSH1 0x1 DUP4 PUSH2 0x1E5B JUMP JUMPDEST PUSH8 0xFFFFFFFFFFFFFFFF DUP2 GT ISZERO PUSH2 0xCB3 JUMPI PUSH2 0xCB3 PUSH2 0x1ECF JUMP JUMPDEST PUSH1 0x40 MLOAD SWAP1 DUP1 DUP3 MSTORE DUP1 PUSH1 0x20 MUL PUSH1 0x20 ADD DUP3 ADD PUSH1 0x40 MSTORE DUP1 ISZERO PUSH2 0xCDC JUMPI DUP2 PUSH1 0x20 ADD PUSH1 0x20 DUP3 MUL DUP1 CALLDATASIZE DUP4 CALLDATACOPY ADD SWAP1 POP JUMPDEST POP SWAP1 POP PUSH1 0x0 SWAP3 POP JUMPDEST DUP2 DUP4 LT ISZERO PUSH2 0xE17 JUMPI PUSH1 0x1 PUSH1 0x1 PUSH1 0xA0 SHL SUB DUP8 AND PUSH1 0x0 SWAP1 DUP2 MSTORE PUSH1 0xC PUSH1 0x20 MSTORE PUSH1 0x40 SWAP1 KECCAK256 DUP1 SLOAD DUP11 SWAP2 SWAP1 DUP6 SWAP1 DUP2 LT PUSH2 0xD19 JUMPI PUSH2 0xD19 PUSH2 0x1EB9 JUMP JUMPDEST SWAP1 PUSH1 0x0 MSTORE PUSH1 0x20 PUSH1 0x0 KECCAK256 ADD SLOAD EQ ISZERO PUSH2 0xDB2 JUMPI DUP3 SWAP4 POP JUMPDEST PUSH2 0xD39 PUSH1 0x1 DUP4 PUSH2 0x1E5B JUMP JUMPDEST DUP5 LT ISZERO PUSH2 0xDAD JUMPI PUSH1 0x1 PUSH1 0x1 PUSH1 0xA0 SHL SUB DUP8 AND PUSH1 0x0 SWAP1 DUP2 MSTORE PUSH1 0xC PUSH1 0x20 MSTORE PUSH1 0x40 SWAP1 KECCAK256 PUSH2 0xD63 DUP6 PUSH1 0x1 PUSH2 0x1E02 JUMP JUMPDEST DUP2 SLOAD DUP2 LT PUSH2 0xD73 JUMPI PUSH2 0xD73 PUSH2 0x1EB9 JUMP JUMPDEST SWAP1 PUSH1 0x0 MSTORE PUSH1 0x20 PUSH1 0x0 KECCAK256 ADD SLOAD DUP2 DUP6 DUP2 MLOAD DUP2 LT PUSH2 0xD90 JUMPI PUSH2 0xD90 PUSH2 0x1EB9 JUMP JUMPDEST PUSH1 0x20 SWAP1 DUP2 MUL SWAP2 SWAP1 SWAP2 ADD ADD MSTORE DUP4 PUSH2 0xDA5 DUP2 PUSH2 0x1E72 JUMP JUMPDEST SWAP5 POP POP PUSH2 0xD2E JUMP JUMPDEST PUSH2 0xE17 JUMP JUMPDEST PUSH1 0x1 PUSH1 0x1 PUSH1 0xA0 SHL SUB DUP8 AND PUSH1 0x0 SWAP1 DUP2 MSTORE PUSH1 0xC PUSH1 0x20 MSTORE PUSH1 0x40 SWAP1 KECCAK256 DUP1 SLOAD DUP5 SWAP1 DUP2 LT PUSH2 0xDDC JUMPI PUSH2 0xDDC PUSH2 0x1EB9 JUMP JUMPDEST SWAP1 PUSH1 0x0 MSTORE PUSH1 0x20 PUSH1 0x0 KECCAK256 ADD SLOAD DUP2 DUP5 DUP2 MLOAD DUP2 LT PUSH2 0xDF9 JUMPI PUSH2 0xDF9 PUSH2 0x1EB9 JUMP JUMPDEST PUSH1 0x20 MUL PUSH1 0x20 ADD ADD DUP2 DUP2 MSTORE POP POP DUP3 PUSH2 0xE0F DUP2 PUSH2 0x1E72 JUMP JUMPDEST SWAP4 POP POP PUSH2 0xCE4 JUMP JUMPDEST PUSH1 0x1 PUSH1 0x1 PUSH1 0xA0 SHL SUB DUP8 AND PUSH1 0x0 SWAP1 DUP2 MSTORE PUSH1 0xC PUSH1 0x20 SWAP1 DUP2 MSTORE PUSH1 0x40 SWAP1 SWAP2 KECCAK256 DUP3 MLOAD PUSH2 0xE40 SWAP3 DUP5 ADD SWAP1 PUSH2 0x1B54 JUMP JUMPDEST POP PUSH1 0x1 PUSH1 0x1 PUSH1 0xA0 SHL SUB DUP9 AND PUSH1 0x0 SWAP1 DUP2 MSTORE PUSH1 0xD PUSH1 0x20 MSTORE PUSH1 0x40 DUP2 KECCAK256 SLOAD SWAP1 PUSH2 0xE66 PUSH1 0x1 DUP4 PUSH2 0x1E5B JUMP JUMPDEST PUSH8 0xFFFFFFFFFFFFFFFF DUP2 GT ISZERO PUSH2 0xE7E JUMPI PUSH2 0xE7E PUSH2 0x1ECF JUMP JUMPDEST PUSH1 0x40 MLOAD SWAP1 DUP1 DUP3 MSTORE DUP1 PUSH1 0x20 MUL PUSH1 0x20 ADD DUP3 ADD PUSH1 0x40 MSTORE DUP1 ISZERO PUSH2 0xEA7 JUMPI DUP2 PUSH1 0x20 ADD PUSH1 0x20 DUP3 MUL DUP1 CALLDATASIZE DUP4 CALLDATACOPY ADD SWAP1 POP JUMPDEST POP SWAP1 POP PUSH1 0x0 SWAP5 POP JUMPDEST DUP2 DUP6 LT ISZERO PUSH2 0xFE2 JUMPI PUSH1 0x1 PUSH1 0x1 PUSH1 0xA0 SHL SUB DUP11 AND PUSH1 0x0 SWAP1 DUP2 MSTORE PUSH1 0xD PUSH1 0x20 MSTORE PUSH1 0x40 SWAP1 KECCAK256 DUP1 SLOAD DUP13 SWAP2 SWAP1 DUP8 SWAP1 DUP2 LT PUSH2 0xEE4 JUMPI PUSH2 0xEE4 PUSH2 0x1EB9 JUMP JUMPDEST SWAP1 PUSH1 0x0 MSTORE PUSH1 0x20 PUSH1 0x0 KECCAK256 ADD SLOAD EQ ISZERO PUSH2 0xF7D JUMPI DUP5 SWAP6 POP JUMPDEST PUSH2 0xF04 PUSH1 0x1 DUP4 PUSH2 0x1E5B JUMP JUMPDEST DUP7 LT ISZERO PUSH2 0xF78 JUMPI PUSH1 0x1 PUSH1 0x1 PUSH1 0xA0 SHL SUB DUP11 AND PUSH1 0x0 SWAP1 DUP2 MSTORE PUSH1 0xD PUSH1 0x20 MSTORE PUSH1 0x40 SWAP1 KECCAK256 PUSH2 0xF2E DUP8 PUSH1 0x1 PUSH2 0x1E02 JUMP JUMPDEST DUP2 SLOAD DUP2 LT PUSH2 0xF3E JUMPI PUSH2 0xF3E PUSH2 0x1EB9 JUMP JUMPDEST SWAP1 PUSH1 0x0 MSTORE PUSH1 0x20 PUSH1 0x0 KECCAK256 ADD SLOAD DUP2 DUP8 DUP2 MLOAD DUP2 LT PUSH2 0xF5B JUMPI PUSH2 0xF5B PUSH2 0x1EB9 JUMP JUMPDEST PUSH1 0x20 SWAP1 DUP2 MUL SWAP2 SWAP1 SWAP2 ADD ADD MSTORE DUP6 PUSH2 0xF70 DUP2 PUSH2 0x1E72 JUMP JUMPDEST SWAP7 POP POP PUSH2 0xEF9 JUMP JUMPDEST PUSH2 0xFE2 JUMP JUMPDEST PUSH1 0x1 PUSH1 0x1 PUSH1 0xA0 SHL SUB DUP11 AND PUSH1 0x0 SWAP1 DUP2 MSTORE PUSH1 0xD PUSH1 0x20 MSTORE PUSH1 0x40 SWAP1 KECCAK256 DUP1 SLOAD DUP7 SWAP1 DUP2 LT PUSH2 0xFA7 JUMPI PUSH2 0xFA7 PUSH2 0x1EB9 JUMP JUMPDEST SWAP1 PUSH1 0x0 MSTORE PUSH1 0x20 PUSH1 0x0 KECCAK256 ADD SLOAD DUP2 DUP7 DUP2 MLOAD DUP2 LT PUSH2 0xFC4 JUMPI PUSH2 0xFC4 PUSH2 0x1EB9 JUMP JUMPDEST PUSH1 0x20 MUL PUSH1 0x20 ADD ADD DUP2 DUP2 MSTORE POP POP DUP5 PUSH2 0xFDA DUP2 PUSH2 0x1E72 JUMP JUMPDEST SWAP6 POP POP PUSH2 0xEAF JUMP JUMPDEST PUSH1 0x1 PUSH1 0x1 PUSH1 0xA0 SHL SUB DUP11 AND PUSH1 0x0 SWAP1 DUP2 MSTORE PUSH1 0xD PUSH1 0x20 SWAP1 DUP2 MSTORE PUSH1 0x40 SWAP1 SWAP2 KECCAK256 DUP3 MLOAD PUSH2 0x100B SWAP3 DUP5 ADD SWAP1 PUSH2 0x1B54 JUMP JUMPDEST POP DUP9 PUSH1 0x1 PUSH1 0x1 PUSH1 0xA0 SHL SUB AND DUP11 PUSH1 0x1 PUSH1 0x1 PUSH1 0xA0 SHL SUB AND PUSH32 0x6337ED398C0E8467698C581374FDCE4DB14922DF487B5A39483079F5F59B60A4 DUP11 PUSH1 0x40 MLOAD PUSH2 0x1051 SWAP2 DUP2 MSTORE PUSH1 0x20 ADD SWAP1 JUMP JUMPDEST PUSH1 0x40 MLOAD DUP1 SWAP2 SUB SWAP1 LOG3 POP POP POP POP POP POP POP POP POP POP POP JUMP JUMPDEST PUSH1 0xD PUSH1 0x20 MSTORE DUP2 PUSH1 0x0 MSTORE PUSH1 0x40 PUSH1 0x0 KECCAK256 DUP2 DUP2 SLOAD DUP2 LT PUSH2 0x1082 JUMPI PUSH1 0x0 DUP1 REVERT JUMPDEST SWAP1 PUSH1 0x0 MSTORE PUSH1 0x20 PUSH1 0x0 KECCAK256 ADD PUSH1 0x0 SWAP2 POP SWAP2 POP POP SLOAD DUP2 JUMP JUMPDEST PUSH1 0xC PUSH1 0x20 MSTORE DUP2 PUSH1 0x0 MSTORE PUSH1 0x40 PUSH1 0x0 KECCAK256 DUP2 DUP2 SLOAD DUP2 LT PUSH2 0x1082 JUMPI PUSH1 0x0 DUP1 REVERT JUMPDEST PUSH1 0x60 PUSH1 0xA DUP1 SLOAD DUP1 PUSH1 0x20 MUL PUSH1 0x20 ADD PUSH1 0x40 MLOAD SWAP1 DUP2 ADD PUSH1 0x40 MSTORE DUP1 SWAP3 SWAP2 SWAP1 DUP2 DUP2 MSTORE PUSH1 0x20 ADD DUP3 DUP1 SLOAD DUP1 ISZERO PUSH2 0x1101 JUMPI PUSH1 0x20 MUL DUP3 ADD SWAP2 SWAP1 PUSH1 0x0 MSTORE PUSH1 0x20 PUSH1 0x0 KECCAK256 SWAP1 JUMPDEST DUP2 SLOAD DUP2 MSTORE PUSH1 0x20 ADD SWAP1 PUSH1 0x1 ADD SWAP1 DUP1 DUP4 GT PUSH2 0x10ED JUMPI JUMPDEST POP POP POP POP POP SWAP1 POP SWAP1 JUMP JUMPDEST PUSH1 0x0 SLOAD PUSH1 0x1 PUSH1 0x1 PUSH1 0xA0 SHL SUB AND CALLER EQ PUSH2 0x1135 JUMPI PUSH1 0x40 MLOAD PUSH3 0x461BCD PUSH1 0xE5 SHL DUP2 MSTORE PUSH1 0x4 ADD PUSH2 0x65A SWAP1 PUSH2 0x1D7A JUMP JUMPDEST PUSH1 0x0 DUP1 SLOAD PUSH1 0x40 MLOAD PUSH1 0x1 PUSH1 0x1 PUSH1 0xA0 SHL SUB SWAP1 SWAP2 AND SWAP1 PUSH32 0x8BE0079C531659141344CD1FD0A4F28419497F9722A3DAAFE3B4186F6B6457E0 SWAP1 DUP4 SWAP1 LOG3 PUSH1 0x0 DUP1 SLOAD PUSH1 0x1 PUSH1 0x1 PUSH1 0xA0 SHL SUB NOT AND SWAP1 SSTORE JUMP JUMPDEST PUSH1 0x0 SLOAD PUSH1 0x1 PUSH1 0x1 PUSH1 0xA0 SHL SUB AND CALLER EQ PUSH2 0x11A9 JUMPI PUSH1 0x40 MLOAD PUSH3 0x461BCD PUSH1 0xE5 SHL DUP2 MSTORE PUSH1 0x4 ADD PUSH2 0x65A SWAP1 PUSH2 0x1D7A JUMP JUMPDEST PUSH1 0x0 DUP2 GT PUSH2 0x11F0 JUMPI PUSH1 0x40 MLOAD PUSH3 0x461BCD PUSH1 0xE5 SHL DUP2 MSTORE PUSH1 0x20 PUSH1 0x4 DUP3 ADD MSTORE PUSH1 0x14 PUSH1 0x24 DUP3 ADD MSTORE PUSH20 0x14195C98D95B9D081A5CC81D1BDBC81CDB585B1B PUSH1 0x62 SHL PUSH1 0x44 DUP3 ADD MSTORE PUSH1 0x64 ADD PUSH2 0x65A JUMP JUMPDEST PUSH1 0x3 DUP2 LT PUSH2 0x1237 JUMPI PUSH1 0x40 MLOAD PUSH3 0x461BCD PUSH1 0xE5 SHL DUP2 MSTORE PUSH1 0x20 PUSH1 0x4 DUP3 ADD MSTORE PUSH1 0x14 PUSH1 0x24 DUP3 ADD MSTORE PUSH20 0x50657263656E7420697320746F6F204C61726765 PUSH1 0x60 SHL PUSH1 0x44 DUP3 ADD MSTORE PUSH1 0x64 ADD PUSH2 0x65A JUMP JUMPDEST PUSH1 0x4 SSTORE JUMP JUMPDEST PUSH1 0x1 PUSH1 0x1 PUSH1 0xA0 SHL SUB DUP2 AND PUSH1 0x0 SWAP1 DUP2 MSTORE PUSH1 0xD PUSH1 0x20 SWAP1 DUP2 MSTORE PUSH1 0x40 SWAP2 DUP3 SWAP1 KECCAK256 DUP1 SLOAD DUP4 MLOAD DUP2 DUP5 MUL DUP2 ADD DUP5 ADD SWAP1 SWAP5 MSTORE DUP1 DUP5 MSTORE PUSH1 0x60 SWAP4 SWAP3 DUP4 ADD DUP3 DUP3 DUP1 ISZERO PUSH2 0x856 JUMPI PUSH1 0x20 MUL DUP3 ADD SWAP2 SWAP1 PUSH1 0x0 MSTORE PUSH1 0x20 PUSH1 0x0 KECCAK256 SWAP1 DUP2 SLOAD DUP2 MSTORE PUSH1 0x20 ADD SWAP1 PUSH1 0x1 ADD SWAP1 DUP1 DUP4 GT PUSH2 0x842 JUMPI POP POP POP POP POP SWAP1 POP SWAP2 SWAP1 POP JUMP JUMPDEST PUSH1 0x0 SLOAD PUSH1 0x1 PUSH1 0x1 PUSH1 0xA0 SHL SUB AND CALLER EQ PUSH2 0x12D0 JUMPI PUSH1 0x40 MLOAD PUSH3 0x461BCD PUSH1 0xE5 SHL DUP2 MSTORE PUSH1 0x4 ADD PUSH2 0x65A SWAP1 PUSH2 0x1D7A JUMP JUMPDEST PUSH1 0x0 DUP2 GT PUSH2 0x1313 JUMPI PUSH1 0x40 MLOAD PUSH3 0x461BCD PUSH1 0xE5 SHL DUP2 MSTORE PUSH1 0x20 PUSH1 0x4 DUP3 ADD MSTORE PUSH1 0x10 PUSH1 0x24 DUP3 ADD MSTORE PUSH16 0x119959481A5CC81D1BDBC81CDB585B1B PUSH1 0x82 SHL PUSH1 0x44 DUP3 ADD MSTORE PUSH1 0x64 ADD PUSH2 0x65A JUMP JUMPDEST PUSH8 0xDE0B6B3A7640000 DUP2 LT PUSH2 0x135E JUMPI PUSH1 0x40 MLOAD PUSH3 0x461BCD PUSH1 0xE5 SHL DUP2 MSTORE PUSH1 0x20 PUSH1 0x4 DUP3 ADD MSTORE PUSH1 0x11 PUSH1 0x24 DUP3 ADD MSTORE PUSH17 0x4665656520697320746F6F204C61726765 PUSH1 0x78 SHL PUSH1 0x44 DUP3 ADD MSTORE PUSH1 0x64 ADD PUSH2 0x65A JUMP JUMPDEST PUSH1 0x2 SSTORE JUMP JUMPDEST PUSH1 0x40 MLOAD PUSH4 0x70A08231 PUSH1 0xE0 SHL DUP2 MSTORE ADDRESS PUSH1 0x4 DUP3 ADD MSTORE PUSH1 0x0 SWAP1 PUSH1 0x1 PUSH1 0x1 PUSH1 0xA0 SHL SUB DUP4 AND SWAP1 PUSH4 0x70A08231 SWAP1 PUSH1 0x24 ADD PUSH1 0x20 PUSH1 0x40 MLOAD DUP1 DUP4 SUB DUP2 DUP7 DUP1 EXTCODESIZE ISZERO DUP1 ISZERO PUSH2 0x13A5 JUMPI PUSH1 0x0 DUP1 REVERT JUMPDEST POP GAS STATICCALL ISZERO DUP1 ISZERO PUSH2 0x13B9 JUMPI RETURNDATASIZE PUSH1 0x0 DUP1 RETURNDATACOPY RETURNDATASIZE PUSH1 0x0 REVERT JUMPDEST POP POP POP POP PUSH1 0x40 MLOAD RETURNDATASIZE PUSH1 0x1F NOT PUSH1 0x1F DUP3 ADD AND DUP3 ADD DUP1 PUSH1 0x40 MSTORE POP DUP2 ADD SWAP1 PUSH2 0x13DD SWAP2 SWAP1 PUSH2 0x1CAD JUMP JUMPDEST SWAP3 SWAP2 POP POP JUMP JUMPDEST PUSH1 0xA DUP2 DUP2 SLOAD DUP2 LT PUSH2 0x13F3 JUMPI PUSH1 0x0 DUP1 REVERT JUMPDEST PUSH1 0x0 SWAP2 DUP3 MSTORE PUSH1 0x20 SWAP1 SWAP2 KECCAK256 ADD SLOAD SWAP1 POP DUP2 JUMP JUMPDEST PUSH1 0x0 SLOAD PUSH1 0x1 PUSH1 0x1 PUSH1 0xA0 SHL SUB AND CALLER EQ PUSH2 0x142E JUMPI PUSH1 0x40 MLOAD PUSH3 0x461BCD PUSH1 0xE5 SHL DUP2 MSTORE PUSH1 0x4 ADD PUSH2 0x65A SWAP1 PUSH2 0x1D7A JUMP JUMPDEST PUSH1 0x0 DUP2 GT PUSH2 0x146E JUMPI PUSH1 0x40 MLOAD PUSH3 0x461BCD PUSH1 0xE5 SHL DUP2 MSTORE PUSH1 0x20 PUSH1 0x4 DUP3 ADD MSTORE PUSH1 0xD PUSH1 0x24 DUP3 ADD MSTORE PUSH13 0x119959481D1BDBC81CDB585B1B PUSH1 0x9A SHL PUSH1 0x44 DUP3 ADD MSTORE PUSH1 0x64 ADD PUSH2 0x65A JUMP JUMPDEST PUSH8 0x3782DACE9D90000 DUP2 LT PUSH2 0x14B8 JUMPI PUSH1 0x40 MLOAD PUSH3 0x461BCD PUSH1 0xE5 SHL DUP2 MSTORE PUSH1 0x20 PUSH1 0x4 DUP3 ADD MSTORE PUSH1 0x10 PUSH1 0x24 DUP3 ADD MSTORE PUSH16 0x46656520697320746F6F204C61726765 PUSH1 0x80 SHL PUSH1 0x44 DUP3 ADD MSTORE PUSH1 0x64 ADD PUSH2 0x65A JUMP JUMPDEST PUSH1 0x3 SSTORE JUMP JUMPDEST PUSH1 0x0 DUP1 DUP5 GT PUSH2 0x151A JUMPI PUSH1 0x40 MLOAD PUSH3 0x461BCD PUSH1 0xE5 SHL DUP2 MSTORE PUSH1 0x20 PUSH1 0x4 DUP3 ADD MSTORE PUSH1 0x24 DUP1 DUP3 ADD MSTORE PUSH32 0x546F6B656E7320616D6F756E74206D7573742062652067726561746572207468 PUSH1 0x44 DUP3 ADD MSTORE PUSH4 0x616E203 PUSH1 0xE4 SHL PUSH1 0x64 DUP3 ADD MSTORE PUSH1 0x84 ADD PUSH2 0x65A JUMP JUMPDEST PUSH5 0x2540BE400 DUP4 LT PUSH2 0x153E JUMPI PUSH1 0x40 MLOAD PUSH3 0x461BCD PUSH1 0xE5 SHL DUP2 MSTORE PUSH1 0x4 ADD PUSH2 0x65A SWAP1 PUSH2 0x1DAF JUMP JUMPDEST PUSH2 0x154B TIMESTAMP PUSH3 0x15180 PUSH2 0x1E02 JUMP JUMPDEST DUP4 GT PUSH2 0x15A9 JUMPI PUSH1 0x40 MLOAD PUSH3 0x461BCD PUSH1 0xE5 SHL DUP2 MSTORE PUSH1 0x20 PUSH1 0x4 DUP3 ADD MSTORE PUSH1 0x27 PUSH1 0x24 DUP3 ADD MSTORE PUSH32 0x556E6C6F636B2074696D65206D7573742062652061667465722061746C656173 PUSH1 0x44 DUP3 ADD MSTORE PUSH7 0x74203120646179 PUSH1 0xC8 SHL PUSH1 0x64 DUP3 ADD MSTORE PUSH1 0x84 ADD PUSH2 0x65A JUMP JUMPDEST DUP2 ISZERO DUP1 PUSH2 0x15B7 JUMPI POP PUSH1 0x2 SLOAD CALLVALUE GT JUMPDEST PUSH2 0x15FA JUMPI PUSH1 0x40 MLOAD PUSH3 0x461BCD PUSH1 0xE5 SHL DUP2 MSTORE PUSH1 0x20 PUSH1 0x4 DUP3 ADD MSTORE PUSH1 0x14 PUSH1 0x24 DUP3 ADD MSTORE PUSH20 0x10939088199959481B9BDD081C1C9BDD9A591959 PUSH1 0x62 SHL PUSH1 0x44 DUP3 ADD MSTORE PUSH1 0x64 ADD PUSH2 0x65A JUMP JUMPDEST PUSH1 0x40 MLOAD PUSH4 0x95EA7B3 PUSH1 0xE0 SHL DUP2 MSTORE ADDRESS PUSH1 0x4 DUP3 ADD MSTORE PUSH1 0x24 DUP2 ADD DUP6 SWAP1 MSTORE PUSH1 0x1 PUSH1 0x1 PUSH1 0xA0 SHL SUB DUP7 AND SWAP1 PUSH4 0x95EA7B3 SWAP1 PUSH1 0x44 ADD PUSH1 0x20 PUSH1 0x40 MLOAD DUP1 DUP4 SUB DUP2 PUSH1 0x0 DUP8 DUP1 EXTCODESIZE ISZERO DUP1 ISZERO PUSH2 0x1642 JUMPI PUSH1 0x0 DUP1 REVERT JUMPDEST POP GAS CALL ISZERO DUP1 ISZERO PUSH2 0x1656 JUMPI RETURNDATASIZE PUSH1 0x0 DUP1 RETURNDATACOPY RETURNDATASIZE PUSH1 0x0 REVERT JUMPDEST POP POP POP POP PUSH1 0x40 MLOAD RETURNDATASIZE PUSH1 0x1F NOT PUSH1 0x1F DUP3 ADD AND DUP3 ADD DUP1 PUSH1 0x40 MSTORE POP DUP2 ADD SWAP1 PUSH2 0x167A SWAP2 SWAP1 PUSH2 0x1C77 JUMP JUMPDEST PUSH2 0x16C6 JUMPI PUSH1 0x40 MLOAD PUSH3 0x461BCD PUSH1 0xE5 SHL DUP2 MSTORE PUSH1 0x20 PUSH1 0x4 DUP3 ADD MSTORE PUSH1 0x18 PUSH1 0x24 DUP3 ADD MSTORE PUSH32 0x4661696C656420746F20617070726F766520746F6B656E730000000000000000 PUSH1 0x44 DUP3 ADD MSTORE PUSH1 0x64 ADD PUSH2 0x65A JUMP JUMPDEST PUSH1 0x40 MLOAD PUSH4 0x23B872DD PUSH1 0xE0 SHL DUP2 MSTORE CALLER PUSH1 0x4 DUP3 ADD MSTORE ADDRESS PUSH1 0x24 DUP3 ADD MSTORE PUSH1 0x44 DUP2 ADD DUP6 SWAP1 MSTORE PUSH1 0x1 PUSH1 0x1 PUSH1 0xA0 SHL SUB DUP7 AND SWAP1 PUSH4 0x23B872DD SWAP1 PUSH1 0x64 ADD PUSH1 0x20 PUSH1 0x40 MLOAD DUP1 DUP4 SUB DUP2 PUSH1 0x0 DUP8 DUP1 EXTCODESIZE ISZERO DUP1 ISZERO PUSH2 0x1714 JUMPI PUSH1 0x0 DUP1 REVERT JUMPDEST POP GAS CALL ISZERO DUP1 ISZERO PUSH2 0x1728 JUMPI RETURNDATASIZE PUSH1 0x0 DUP1 RETURNDATACOPY RETURNDATASIZE PUSH1 0x0 REVERT JUMPDEST POP POP POP POP PUSH1 0x40 MLOAD RETURNDATASIZE PUSH1 0x1F NOT PUSH1 0x1F DUP3 ADD AND DUP3 ADD DUP1 PUSH1 0x40 MSTORE POP DUP2 ADD SWAP1 PUSH2 0x174C SWAP2 SWAP1 PUSH2 0x1C77 JUMP JUMPDEST PUSH2 0x17A4 JUMPI PUSH1 0x40 MLOAD PUSH3 0x461BCD PUSH1 0xE5 SHL DUP2 MSTORE PUSH1 0x20 PUSH1 0x4 DUP3 ADD MSTORE PUSH1 0x23 PUSH1 0x24 DUP3 ADD MSTORE PUSH32 0x4661696C656420746F207472616E7366657220746F6B656E7320746F206C6F63 PUSH1 0x44 DUP3 ADD MSTORE PUSH3 0x35B2B9 PUSH1 0xE9 SHL PUSH1 0x64 DUP3 ADD MSTORE PUSH1 0x84 ADD PUSH2 0x65A JUMP JUMPDEST DUP4 DUP3 ISZERO PUSH2 0x17E1 JUMPI CALLVALUE PUSH1 0x5 PUSH1 0x0 DUP3 DUP3 SLOAD PUSH2 0x17BD SWAP2 SWAP1 PUSH2 0x1E02 JUMP JUMPDEST SWAP3 POP POP DUP2 SWAP1 SSTORE POP CALLVALUE PUSH1 0x6 PUSH1 0x0 DUP3 DUP3 SLOAD PUSH2 0x17D6 SWAP2 SWAP1 PUSH2 0x1E02 JUMP JUMPDEST SWAP1 SWAP2 SSTORE POP PUSH2 0x18A5 SWAP1 POP JUMP JUMPDEST PUSH1 0x0 PUSH2 0x3E8 PUSH1 0x4 SLOAD DUP4 PUSH2 0x17F4 SWAP2 SWAP1 PUSH2 0x1E3C JUMP JUMPDEST PUSH2 0x17FE SWAP2 SWAP1 PUSH2 0x1E1A JUMP JUMPDEST SWAP1 POP PUSH2 0x180A DUP2 DUP4 PUSH2 0x1E5B JUMP JUMPDEST PUSH1 0x1 PUSH1 0x1 PUSH1 0xA0 SHL SUB DUP9 AND PUSH1 0x0 SWAP1 DUP2 MSTORE PUSH1 0x8 PUSH1 0x20 MSTORE PUSH1 0x40 SWAP1 KECCAK256 SLOAD SWAP1 SWAP3 POP PUSH2 0x1876 JUMPI PUSH1 0x7 DUP1 SLOAD PUSH1 0x1 DUP2 ADD DUP3 SSTORE PUSH1 0x0 SWAP2 SWAP1 SWAP2 MSTORE PUSH32 0xA66CC928B5EDB82AF9BD49922954155AB7B0942694BEA4CE44661D9A8736C688 ADD DUP1 SLOAD PUSH1 0x1 PUSH1 0x1 PUSH1 0xA0 SHL SUB NOT AND PUSH1 0x1 PUSH1 0x1 PUSH1 0xA0 SHL SUB DUP10 AND OR SWAP1 SSTORE JUMPDEST PUSH1 0x1 PUSH1 0x1 PUSH1 0xA0 SHL SUB DUP8 AND PUSH1 0x0 SWAP1 DUP2 MSTORE PUSH1 0x8 PUSH1 0x20 MSTORE PUSH1 0x40 DUP2 KECCAK256 DUP1 SLOAD DUP4 SWAP3 SWAP1 PUSH2 0x189E SWAP1 DUP5 SWAP1 PUSH2 0x1E02 JUMP JUMPDEST SWAP1 SWAP2 SSTORE POP POP POP JUMPDEST PUSH1 0x1 PUSH1 0x1 PUSH1 0xA0 SHL SUB DUP7 AND PUSH1 0x0 SWAP1 DUP2 MSTORE PUSH1 0xE PUSH1 0x20 SWAP1 DUP2 MSTORE PUSH1 0x40 DUP1 DUP4 KECCAK256 CALLER DUP5 MSTORE SWAP1 SWAP2 MSTORE DUP2 KECCAK256 DUP1 SLOAD DUP8 SWAP3 SWAP1 PUSH2 0x18D8 SWAP1 DUP5 SWAP1 PUSH2 0x1E02 JUMP JUMPDEST SWAP1 SWAP2 SSTORE POP POP PUSH1 0x9 DUP1 SLOAD CALLER SWAP2 SWAP1 PUSH1 0x0 SWAP1 PUSH2 0x18F0 SWAP1 PUSH2 0x1E72 JUMP JUMPDEST SWAP2 DUP3 SWAP1 SSTORE POP PUSH1 0x0 DUP2 DUP2 MSTORE PUSH1 0xB PUSH1 0x20 SWAP1 DUP2 MSTORE PUSH1 0x40 DUP1 DUP4 KECCAK256 DUP1 SLOAD PUSH1 0x1 PUSH1 0x1 PUSH1 0xA0 SHL SUB DUP14 DUP2 AND PUSH1 0x1 PUSH1 0x1 PUSH1 0xA0 SHL SUB NOT SWAP3 DUP4 AND DUP2 OR DUP5 SSTORE PUSH1 0x1 DUP1 DUP6 ADD DUP1 SLOAD SWAP4 DUP12 AND SWAP4 SWAP1 SWAP5 AND DUP4 OR SWAP1 SWAP4 SSTORE PUSH1 0x2 DUP5 ADD DUP11 SWAP1 SSTORE PUSH1 0x3 DUP5 ADD DUP14 SWAP1 SSTORE PUSH1 0x4 SWAP1 SWAP4 ADD DUP1 SLOAD PUSH1 0xFF NOT AND SWAP1 SSTORE PUSH1 0xA DUP1 SLOAD DUP1 DUP5 ADD SWAP1 SWAP2 SSTORE PUSH32 0xC65A7BB8D6351C1CF70C95A316CC6A92839C986682D98BC35F958F4883F9D2A8 ADD DUP8 SWAP1 SSTORE DUP6 MSTORE PUSH1 0xC DUP5 MSTORE DUP3 DUP6 KECCAK256 DUP1 SLOAD DUP1 DUP4 ADD DUP3 SSTORE SWAP1 DUP7 MSTORE DUP5 DUP7 KECCAK256 ADD DUP7 SWAP1 SSTORE DUP2 DUP6 MSTORE PUSH1 0xD DUP5 MSTORE DUP3 DUP6 KECCAK256 DUP1 SLOAD SWAP2 DUP3 ADD DUP2 SSTORE DUP6 MSTORE SWAP4 DUP4 SWAP1 KECCAK256 SWAP1 SWAP4 ADD DUP5 SWAP1 SSTORE PUSH1 0x9 SLOAD DUP2 MLOAD DUP12 DUP2 MSTORE SWAP3 DUP4 ADD DUP11 SWAP1 MSTORE SWAP1 DUP3 ADD MSTORE SWAP2 SWAP5 POP CALLER SWAP2 PUSH32 0xA6782D3322ABBFBE850E6D5C5C78E8E1DF603EA07608BB9A62DD83F40D4FECCC SWAP1 PUSH1 0x60 ADD PUSH1 0x40 MLOAD DUP1 SWAP2 SUB SWAP1 LOG3 POP POP SWAP5 SWAP4 POP POP POP POP JUMP JUMPDEST PUSH1 0x0 SLOAD PUSH1 0x1 PUSH1 0x1 PUSH1 0xA0 SHL SUB AND CALLER EQ PUSH2 0x1A2F JUMPI PUSH1 0x40 MLOAD PUSH3 0x461BCD PUSH1 0xE5 SHL DUP2 MSTORE PUSH1 0x4 ADD PUSH2 0x65A SWAP1 PUSH2 0x1D7A JUMP JUMPDEST PUSH1 0x1 PUSH1 0x1 PUSH1 0xA0 SHL SUB DUP2 AND PUSH2 0x1A94 JUMPI PUSH1 0x40 MLOAD PUSH3 0x461BCD PUSH1 0xE5 SHL DUP2 MSTORE PUSH1 0x20 PUSH1 0x4 DUP3 ADD MSTORE PUSH1 0x26 PUSH1 0x24 DUP3 ADD MSTORE PUSH32 0x4F776E61626C653A206E6577206F776E657220697320746865207A65726F2061 PUSH1 0x44 DUP3 ADD MSTORE PUSH6 0x646472657373 PUSH1 0xD0 SHL PUSH1 0x64 DUP3 ADD MSTORE PUSH1 0x84 ADD PUSH2 0x65A JUMP JUMPDEST PUSH1 0x0 DUP1 SLOAD PUSH1 0x40 MLOAD PUSH1 0x1 PUSH1 0x1 PUSH1 0xA0 SHL SUB DUP1 DUP6 AND SWAP4 SWAP3 AND SWAP2 PUSH32 0x8BE0079C531659141344CD1FD0A4F28419497F9722A3DAAFE3B4186F6B6457E0 SWAP2 LOG3 PUSH1 0x0 DUP1 SLOAD PUSH1 0x1 PUSH1 0x1 PUSH1 0xA0 SHL SUB NOT AND PUSH1 0x1 PUSH1 0x1 PUSH1 0xA0 SHL SUB SWAP3 SWAP1 SWAP3 AND SWAP2 SWAP1 SWAP2 OR SWAP1 SSTORE JUMP JUMPDEST DUP3 DUP1 SLOAD DUP3 DUP3 SSTORE SWAP1 PUSH1 0x0 MSTORE PUSH1 0x20 PUSH1 0x0 KECCAK256 SWAP1 DUP2 ADD SWAP3 DUP3 ISZERO PUSH2 0x1B44 JUMPI SWAP2 PUSH1 0x20 MUL DUP3 ADD JUMPDEST DUP3 DUP2 GT ISZERO PUSH2 0x1B44 JUMPI DUP3 MLOAD DUP3 SLOAD PUSH1 0x1 PUSH1 0x1 PUSH1 0xA0 SHL SUB NOT AND PUSH1 0x1 PUSH1 0x1 PUSH1 0xA0 SHL SUB SWAP1 SWAP2 AND OR DUP3 SSTORE PUSH1 0x20 SWAP1 SWAP3 ADD SWAP2 PUSH1 0x1 SWAP1 SWAP2 ADD SWAP1 PUSH2 0x1B0F JUMP JUMPDEST POP PUSH2 0x1B50 SWAP3 SWAP2 POP PUSH2 0x1B8F JUMP JUMPDEST POP SWAP1 JUMP JUMPDEST DUP3 DUP1 SLOAD DUP3 DUP3 SSTORE SWAP1 PUSH1 0x0 MSTORE PUSH1 0x20 PUSH1 0x0 KECCAK256 SWAP1 DUP2 ADD SWAP3 DUP3 ISZERO PUSH2 0x1B44 JUMPI SWAP2 PUSH1 0x20 MUL DUP3 ADD JUMPDEST DUP3 DUP2 GT ISZERO PUSH2 0x1B44 JUMPI DUP3 MLOAD DUP3 SSTORE SWAP2 PUSH1 0x20 ADD SWAP2 SWAP1 PUSH1 0x1 ADD SWAP1 PUSH2 0x1B74 JUMP JUMPDEST JUMPDEST DUP1 DUP3 GT ISZERO PUSH2 0x1B50 JUMPI PUSH1 0x0 DUP2 SSTORE PUSH1 0x1 ADD PUSH2 0x1B90 JUMP JUMPDEST PUSH1 0x0 PUSH1 0x20 DUP3 DUP5 SUB SLT ISZERO PUSH2 0x1BB6 JUMPI PUSH1 0x0 DUP1 REVERT JUMPDEST DUP2 CALLDATALOAD PUSH2 0x1BC1 DUP2 PUSH2 0x1EE5 JUMP JUMPDEST SWAP4 SWAP3 POP POP POP JUMP JUMPDEST PUSH1 0x0 DUP1 PUSH1 0x40 DUP4 DUP6 SUB SLT ISZERO PUSH2 0x1BDB JUMPI PUSH1 0x0 DUP1 REVERT JUMPDEST DUP3 CALLDATALOAD PUSH2 0x1BE6 DUP2 PUSH2 0x1EE5 JUMP JUMPDEST SWAP2 POP PUSH1 0x20 DUP4 ADD CALLDATALOAD PUSH2 0x1BF6 DUP2 PUSH2 0x1EE5 JUMP JUMPDEST DUP1 SWAP2 POP POP SWAP3 POP SWAP3 SWAP1 POP JUMP JUMPDEST PUSH1 0x0 DUP1 PUSH1 0x40 DUP4 DUP6 SUB SLT ISZERO PUSH2 0x1C14 JUMPI PUSH1 0x0 DUP1 REVERT JUMPDEST DUP3 CALLDATALOAD PUSH2 0x1C1F DUP2 PUSH2 0x1EE5 JUMP JUMPDEST SWAP5 PUSH1 0x20 SWAP4 SWAP1 SWAP4 ADD CALLDATALOAD SWAP4 POP POP POP JUMP JUMPDEST PUSH1 0x0 DUP1 PUSH1 0x0 DUP1 PUSH1 0x80 DUP6 DUP8 SUB SLT ISZERO PUSH2 0x1C43 JUMPI PUSH1 0x0 DUP1 REVERT JUMPDEST DUP5 CALLDATALOAD PUSH2 0x1C4E DUP2 PUSH2 0x1EE5 JUMP JUMPDEST SWAP4 POP PUSH1 0x20 DUP6 ADD CALLDATALOAD SWAP3 POP PUSH1 0x40 DUP6 ADD CALLDATALOAD SWAP2 POP PUSH1 0x60 DUP6 ADD CALLDATALOAD PUSH2 0x1C6C DUP2 PUSH2 0x1EFD JUMP JUMPDEST SWAP4 SWAP7 SWAP3 SWAP6 POP SWAP1 SWAP4 POP POP JUMP JUMPDEST PUSH1 0x0 PUSH1 0x20 DUP3 DUP5 SUB SLT ISZERO PUSH2 0x1C89 JUMPI PUSH1 0x0 DUP1 REVERT JUMPDEST DUP2 MLOAD PUSH2 0x1BC1 DUP2 PUSH2 0x1EFD JUMP JUMPDEST PUSH1 0x0 PUSH1 0x20 DUP3 DUP5 SUB SLT ISZERO PUSH2 0x1CA6 JUMPI PUSH1 0x0 DUP1 REVERT JUMPDEST POP CALLDATALOAD SWAP2 SWAP1 POP JUMP JUMPDEST PUSH1 0x0 PUSH1 0x20 DUP3 DUP5 SUB SLT ISZERO PUSH2 0x1CBF JUMPI PUSH1 0x0 DUP1 REVERT JUMPDEST POP MLOAD SWAP2 SWAP1 POP JUMP JUMPDEST PUSH1 0x0 DUP1 PUSH1 0x40 DUP4 DUP6 SUB SLT ISZERO PUSH2 0x1CD9 JUMPI PUSH1 0x0 DUP1 REVERT JUMPDEST POP POP DUP1 CALLDATALOAD SWAP3 PUSH1 0x20 SWAP1 SWAP2 ADD CALLDATALOAD SWAP2 POP JUMP JUMPDEST PUSH1 0x20 DUP1 DUP3 MSTORE DUP3 MLOAD DUP3 DUP3 ADD DUP2 SWAP1 MSTORE PUSH1 0x0 SWAP2 SWAP1 DUP5 DUP3 ADD SWAP1 PUSH1 0x40 DUP6 ADD SWAP1 DUP5 JUMPDEST DUP2 DUP2 LT ISZERO PUSH2 0x1D20 JUMPI DUP4 MLOAD DUP4 MSTORE SWAP3 DUP5 ADD SWAP3 SWAP2 DUP5 ADD SWAP2 PUSH1 0x1 ADD PUSH2 0x1D04 JUMP JUMPDEST POP SWAP1 SWAP7 SWAP6 POP POP POP POP POP POP JUMP JUMPDEST PUSH1 0x20 DUP1 DUP3 MSTORE PUSH1 0x2E SWAP1 DUP3 ADD MSTORE PUSH32 0x43616E2077697468647261772066726F6D207468652061646472657373207573 PUSH1 0x40 DUP3 ADD MSTORE PUSH14 0x656420666F72206C6F636B696E67 PUSH1 0x90 SHL PUSH1 0x60 DUP3 ADD MSTORE PUSH1 0x80 ADD SWAP1 JUMP JUMPDEST PUSH1 0x20 DUP1 DUP3 MSTORE DUP2 DUP2 ADD MSTORE PUSH32 0x4F776E61626C653A2063616C6C6572206973206E6F7420746865206F776E6572 PUSH1 0x40 DUP3 ADD MSTORE PUSH1 0x60 ADD SWAP1 JUMP JUMPDEST PUSH1 0x20 DUP1 DUP3 MSTORE PUSH1 0x33 SWAP1 DUP3 ADD MSTORE PUSH32 0x556E69782074696D657374616D70206D75737420626520696E207365636F6E64 PUSH1 0x40 DUP3 ADD MSTORE PUSH19 0x732C206E6F74206D696C6C697365636F6E6473 PUSH1 0x68 SHL PUSH1 0x60 DUP3 ADD MSTORE PUSH1 0x80 ADD SWAP1 JUMP JUMPDEST PUSH1 0x0 DUP3 NOT DUP3 GT ISZERO PUSH2 0x1E15 JUMPI PUSH2 0x1E15 PUSH2 0x1E8D JUMP JUMPDEST POP ADD SWAP1 JUMP JUMPDEST PUSH1 0x0 DUP3 PUSH2 0x1E37 JUMPI PUSH4 0x4E487B71 PUSH1 0xE0 SHL PUSH1 0x0 MSTORE PUSH1 0x12 PUSH1 0x4 MSTORE PUSH1 0x24 PUSH1 0x0 REVERT JUMPDEST POP DIV SWAP1 JUMP JUMPDEST PUSH1 0x0 DUP2 PUSH1 0x0 NOT DIV DUP4 GT DUP3 ISZERO ISZERO AND ISZERO PUSH2 0x1E56 JUMPI PUSH2 0x1E56 PUSH2 0x1E8D JUMP JUMPDEST POP MUL SWAP1 JUMP JUMPDEST PUSH1 0x0 DUP3 DUP3 LT ISZERO PUSH2 0x1E6D JUMPI PUSH2 0x1E6D PUSH2 0x1E8D JUMP JUMPDEST POP SUB SWAP1 JUMP JUMPDEST PUSH1 0x0 PUSH1 0x0 NOT DUP3 EQ ISZERO PUSH2 0x1E86 JUMPI PUSH2 0x1E86 PUSH2 0x1E8D JUMP JUMPDEST POP PUSH1 0x1 ADD SWAP1 JUMP JUMPDEST PUSH4 0x4E487B71 PUSH1 0xE0 SHL PUSH1 0x0 MSTORE PUSH1 0x11 PUSH1 0x4 MSTORE PUSH1 0x24 PUSH1 0x0 REVERT JUMPDEST PUSH4 0x4E487B71 PUSH1 0xE0 SHL PUSH1 0x0 MSTORE PUSH1 0x31 PUSH1 0x4 MSTORE PUSH1 0x24 PUSH1 0x0 REVERT JUMPDEST PUSH4 0x4E487B71 PUSH1 0xE0 SHL PUSH1 0x0 MSTORE PUSH1 0x32 PUSH1 0x4 MSTORE PUSH1 0x24 PUSH1 0x0 REVERT JUMPDEST PUSH4 0x4E487B71 PUSH1 0xE0 SHL PUSH1 0x0 MSTORE PUSH1 0x41 PUSH1 0x4 MSTORE PUSH1 0x24 PUSH1 0x0 REVERT JUMPDEST PUSH1 0x1 PUSH1 0x1 PUSH1 0xA0 SHL SUB DUP2 AND DUP2 EQ PUSH2 0x1EFA JUMPI PUSH1 0x0 DUP1 REVERT JUMPDEST POP JUMP JUMPDEST DUP1 ISZERO ISZERO DUP2 EQ PUSH2 0x1EFA JUMPI PUSH1 0x0 DUP1 REVERT INVALID LOG2 PUSH5 0x6970667358 0x22 SLT KECCAK256 LT 0xDD 0x2F 0xC JUMP EXTCODECOPY DUP14 0xD MOD 0xC2 0xC2 0xE4 0xBE DIFFICULTY 0xC5 0xB8 PUSH22 0x6178CD1F9C1B995C62B452B07575A364736F6C634300 ADDMOD SMOD STOP CALLER "
				},
				"gasEstimates": {
					"creation": {
						"codeDepositCost": "1600200",
						"executionCost": "125889",
						"totalCost": "1726089"
					},
					"external": {
						"allDepositIds(uint256)": "4631",
						"bnbFee()": "2372",
						"depositId()": "2329",
						"depositsByTokenAddress(address,uint256)": "4795",
						"depositsByWithdrawalAddress(address,uint256)": "4817",
						"extendFee()": "2353",
						"extendLock(uint256,uint256)": "infinite",
						"getAllDepositIds()": "infinite",
						"getDepositDetails(uint256)": "11097",
						"getDepositsByTokenAddress(address)": "infinite",
						"getDepositsByWithdrawalAddress(address)": "infinite",
						"getTokenBalanceByAddress(address,address)": "infinite",
						"getTotalTokenBalance(address)": "infinite",
						"lockTokens(address,uint256,uint256,bool)": "infinite",
						"lockedToken(uint256)": "11090",
						"lpFeePercent()": "2328",
						"owner()": "2391",
						"remainingBnbFees()": "2374",
						"renounceOwnership()": "30232",
						"setBnbFee(uint256)": "24578",
						"setExtendFee(uint256)": "24599",
						"setLpFee(uint256)": "24599",
						"tokensFees(address)": "2548",
						"totalBnbFees()": "2373",
						"transferOwnership(address)": "30504",
						"walletTokenBalance(address,address)": "infinite",
						"withdrawFees(address)": "infinite",
						"withdrawTokens(uint256)": "infinite"
					}
				},
				"methodIdentifiers": {
					"allDepositIds(uint256)": "c9028aff",
					"bnbFee()": "efc17415",
					"depositId()": "9852099c",
					"depositsByTokenAddress(address,uint256)": "3fd97b9b",
					"depositsByWithdrawalAddress(address,uint256)": "530680d8",
					"extendFee()": "0ae27c3a",
					"extendLock(uint256,uint256)": "070d66bf",
					"getAllDepositIds()": "6ba03924",
					"getDepositDetails(uint256)": "890db72f",
					"getDepositsByTokenAddress(address)": "86f65a22",
					"getDepositsByWithdrawalAddress(address)": "0bd59ad3",
					"getTokenBalanceByAddress(address,address)": "347c80ba",
					"getTotalTokenBalance(address)": "adad19bd",
					"lockTokens(address,uint256,uint256,bool)": "e6a478b3",
					"lockedToken(uint256)": "bb941cff",
					"lpFeePercent()": "d4dbe3ef",
					"owner()": "8da5cb5b",
					"remainingBnbFees()": "213596b8",
					"renounceOwnership()": "715018a6",
					"setBnbFee(uint256)": "8a47446c",
					"setExtendFee(uint256)": "d0b6fe24",
					"setLpFee(uint256)": "84dfbfe2",
					"tokensFees(address)": "0cff87f1",
					"totalBnbFees()": "ae3ff3dd",
					"transferOwnership(address)": "f2fde38b",
					"walletTokenBalance(address,address)": "b9e7df1c",
					"withdrawFees(address)": "164e68de",
					"withdrawTokens(uint256)": "315a095d"
				}
			},
			"userdoc": {
				"kind": "user",
				"methods": {},
				"version": 1
			}
		}
	}
}